{
	"CoinFlip/attackCoinFlip.sol": {
		"AttackCoinFlip": {
			"abi": [
				{
					"inputs": [],
					"name": "guessTheCurrentBlockValue",
					"outputs": [
						{
							"internalType": "uint256",
							"name": "",
							"type": "uint256"
						}
					],
					"stateMutability": "nonpayable",
					"type": "function"
				},
				{
					"inputs": [],
					"name": "guessing",
					"outputs": [
						{
							"internalType": "uint256",
							"name": "",
							"type": "uint256"
						}
					],
					"stateMutability": "view",
					"type": "function"
				}
			],
			"devdoc": {
				"kind": "dev",
				"methods": {},
				"version": 1
			},
			"evm": {
				"assembly": "    /* \"CoinFlip/attackCoinFlip.sol\":63:262  contract AttackCoinFlip{... */\n  mstore(0x40, 0x80)\n  callvalue\n  dup1\n  iszero\n  tag_1\n  jumpi\n  0x00\n  dup1\n  revert\ntag_1:\n  pop\n  dataSize(sub_0)\n  dup1\n  dataOffset(sub_0)\n  0x00\n  codecopy\n  0x00\n  return\nstop\n\nsub_0: assembly {\n        /* \"CoinFlip/attackCoinFlip.sol\":63:262  contract AttackCoinFlip{... */\n      mstore(0x40, 0x80)\n      callvalue\n      dup1\n      iszero\n      tag_1\n      jumpi\n      0x00\n      dup1\n      revert\n    tag_1:\n      pop\n      jumpi(tag_2, lt(calldatasize, 0x04))\n      shr(0xe0, calldataload(0x00))\n      dup1\n      0x79e41b39\n      eq\n      tag_3\n      jumpi\n      dup1\n      0x99b084bf\n      eq\n      tag_4\n      jumpi\n    tag_2:\n      0x00\n      dup1\n      revert\n        /* \"CoinFlip/attackCoinFlip.sol\":93:116  uint256 public guessing */\n    tag_3:\n      tag_5\n      tag_6\n      jump\t// in\n    tag_5:\n      mload(0x40)\n      tag_7\n      swap2\n      swap1\n      tag_8\n      jump\t// in\n    tag_7:\n      mload(0x40)\n      dup1\n      swap2\n      sub\n      swap1\n      return\n        /* \"CoinFlip/attackCoinFlip.sol\":123:259  function guessTheCurrentBlockValue() public returns(uint256){... */\n    tag_4:\n      tag_9\n      tag_10\n      jump\t// in\n    tag_9:\n      mload(0x40)\n      tag_11\n      swap2\n      swap1\n      tag_8\n      jump\t// in\n    tag_11:\n      mload(0x40)\n      dup1\n      swap2\n      sub\n      swap1\n      return\n        /* \"CoinFlip/attackCoinFlip.sol\":93:116  uint256 public guessing */\n    tag_6:\n      sload(0x00)\n      dup2\n      jump\t// out\n        /* \"CoinFlip/attackCoinFlip.sol\":123:259  function guessTheCurrentBlockValue() public returns(uint256){... */\n    tag_10:\n        /* \"CoinFlip/attackCoinFlip.sol\":175:182  uint256 */\n      0x00\n        /* \"CoinFlip/attackCoinFlip.sol\":194:214  uint256 tmpOfCurrent */\n      dup1\n        /* \"CoinFlip/attackCoinFlip.sol\":235:247  block.number */\n      number\n        /* \"CoinFlip/attackCoinFlip.sol\":225:248  blockhash(block.number) */\n      blockhash\n        /* \"CoinFlip/attackCoinFlip.sol\":217:249  uint256(blockhash(block.number)) */\n      0x00\n      shr\n        /* \"CoinFlip/attackCoinFlip.sol\":194:249  uint256 tmpOfCurrent = uint256(blockhash(block.number)) */\n      swap1\n      pop\n        /* \"CoinFlip/attackCoinFlip.sol\":183:259  {... */\n      pop\n        /* \"CoinFlip/attackCoinFlip.sol\":123:259  function guessTheCurrentBlockValue() public returns(uint256){... */\n      swap1\n      jump\t// out\n        /* \"#utility.yul\":7:84   */\n    tag_13:\n        /* \"#utility.yul\":44:51   */\n      0x00\n        /* \"#utility.yul\":73:78   */\n      dup2\n        /* \"#utility.yul\":62:78   */\n      swap1\n      pop\n        /* \"#utility.yul\":7:84   */\n      swap2\n      swap1\n      pop\n      jump\t// out\n        /* \"#utility.yul\":90:208   */\n    tag_14:\n        /* \"#utility.yul\":177:201   */\n      tag_18\n        /* \"#utility.yul\":195:200   */\n      dup2\n        /* \"#utility.yul\":177:201   */\n      tag_13\n      jump\t// in\n    tag_18:\n        /* \"#utility.yul\":172:175   */\n      dup3\n        /* \"#utility.yul\":165:202   */\n      mstore\n        /* \"#utility.yul\":90:208   */\n      pop\n      pop\n      jump\t// out\n        /* \"#utility.yul\":214:436   */\n    tag_8:\n        /* \"#utility.yul\":307:311   */\n      0x00\n        /* \"#utility.yul\":345:347   */\n      0x20\n        /* \"#utility.yul\":334:343   */\n      dup3\n        /* \"#utility.yul\":330:348   */\n      add\n        /* \"#utility.yul\":322:348   */\n      swap1\n      pop\n        /* \"#utility.yul\":358:429   */\n      tag_20\n        /* \"#utility.yul\":426:427   */\n      0x00\n        /* \"#utility.yul\":415:424   */\n      dup4\n        /* \"#utility.yul\":411:428   */\n      add\n        /* \"#utility.yul\":402:408   */\n      dup5\n        /* \"#utility.yul\":358:429   */\n      tag_14\n      jump\t// in\n    tag_20:\n        /* \"#utility.yul\":214:436   */\n      swap3\n      swap2\n      pop\n      pop\n      jump\t// out\n\n    auxdata: 0xa264697066735822122022c119e969a64e66339daf3ed00cb1b799f073e58ca92a1fa8ad910838befaf464736f6c634300080d0033\n}\n",
				"bytecode": {
					"linkReferences": {},
					"object": "608060405234801561001057600080fd5b5060e58061001f6000396000f3fe6080604052348015600f57600080fd5b506004361060325760003560e01c806379e41b3914603757806399b084bf146051575b600080fd5b603d606b565b604051604891906096565b60405180910390f35b60576071565b604051606291906096565b60405180910390f35b60005481565b600080434060001c90505090565b6000819050919050565b609081607f565b82525050565b600060208201905060a960008301846089565b9291505056fea264697066735822122022c119e969a64e66339daf3ed00cb1b799f073e58ca92a1fa8ad910838befaf464736f6c634300080d0033",
					"opcodes": "PUSH1 0x80 PUSH1 0x40 MSTORE CALLVALUE DUP1 ISZERO PUSH2 0x10 JUMPI PUSH1 0x0 DUP1 REVERT JUMPDEST POP PUSH1 0xE5 DUP1 PUSH2 0x1F PUSH1 0x0 CODECOPY PUSH1 0x0 RETURN INVALID PUSH1 0x80 PUSH1 0x40 MSTORE CALLVALUE DUP1 ISZERO PUSH1 0xF JUMPI PUSH1 0x0 DUP1 REVERT JUMPDEST POP PUSH1 0x4 CALLDATASIZE LT PUSH1 0x32 JUMPI PUSH1 0x0 CALLDATALOAD PUSH1 0xE0 SHR DUP1 PUSH4 0x79E41B39 EQ PUSH1 0x37 JUMPI DUP1 PUSH4 0x99B084BF EQ PUSH1 0x51 JUMPI JUMPDEST PUSH1 0x0 DUP1 REVERT JUMPDEST PUSH1 0x3D PUSH1 0x6B JUMP JUMPDEST PUSH1 0x40 MLOAD PUSH1 0x48 SWAP2 SWAP1 PUSH1 0x96 JUMP JUMPDEST PUSH1 0x40 MLOAD DUP1 SWAP2 SUB SWAP1 RETURN JUMPDEST PUSH1 0x57 PUSH1 0x71 JUMP JUMPDEST PUSH1 0x40 MLOAD PUSH1 0x62 SWAP2 SWAP1 PUSH1 0x96 JUMP JUMPDEST PUSH1 0x40 MLOAD DUP1 SWAP2 SUB SWAP1 RETURN JUMPDEST PUSH1 0x0 SLOAD DUP2 JUMP JUMPDEST PUSH1 0x0 DUP1 NUMBER BLOCKHASH PUSH1 0x0 SHR SWAP1 POP POP SWAP1 JUMP JUMPDEST PUSH1 0x0 DUP2 SWAP1 POP SWAP2 SWAP1 POP JUMP JUMPDEST PUSH1 0x90 DUP2 PUSH1 0x7F JUMP JUMPDEST DUP3 MSTORE POP POP JUMP JUMPDEST PUSH1 0x0 PUSH1 0x20 DUP3 ADD SWAP1 POP PUSH1 0xA9 PUSH1 0x0 DUP4 ADD DUP5 PUSH1 0x89 JUMP JUMPDEST SWAP3 SWAP2 POP POP JUMP INVALID LOG2 PUSH5 0x6970667358 0x22 SLT KECCAK256 0x22 0xC1 NOT 0xE9 PUSH10 0xA64E66339DAF3ED00CB1 0xB7 SWAP10 CREATE PUSH20 0xE58CA92A1FA8AD910838BEFAF464736F6C634300 ADDMOD 0xD STOP CALLER "
				},
				"gasEstimates": {
					"creation": {
						"codeDepositCost": "45800",
						"executionCost": "99",
						"totalCost": "45899"
					},
					"external": {
						"guessTheCurrentBlockValue()": "367",
						"guessing()": "2407"
					}
				},
				"methodIdentifiers": {
					"guessTheCurrentBlockValue()": "99b084bf",
					"guessing()": "79e41b39"
				}
			},
			"userdoc": {
				"kind": "user",
				"methods": {},
				"version": 1
			}
		}
	}
}