{
	"CoinFlip/attackCoinFlip.sol": {
		"AttackCoinFlip": {
			"abi": [
				{
					"inputs": [],
					"name": "guessTheCurrentBlockValue",
					"outputs": [
						{
							"internalType": "uint256",
							"name": "",
							"type": "uint256"
						}
					],
					"stateMutability": "nonpayable",
					"type": "function"
				},
				{
					"inputs": [],
					"name": "guessing",
					"outputs": [
						{
							"internalType": "uint256",
							"name": "",
							"type": "uint256"
						}
					],
					"stateMutability": "view",
					"type": "function"
				}
			],
			"devdoc": {
				"kind": "dev",
				"methods": {},
				"version": 1
			},
			"evm": {
				"assembly": "    /* \"CoinFlip/attackCoinFlip.sol\":63:418  contract AttackCoinFlip{... */\n  mstore(0x40, 0x80)\n  callvalue\n  dup1\n  iszero\n  tag_1\n  jumpi\n  0x00\n  dup1\n  revert\ntag_1:\n  pop\n  dataSize(sub_0)\n  dup1\n  dataOffset(sub_0)\n  0x00\n  codecopy\n  0x00\n  return\nstop\n\nsub_0: assembly {\n        /* \"CoinFlip/attackCoinFlip.sol\":63:418  contract AttackCoinFlip{... */\n      mstore(0x40, 0x80)\n      callvalue\n      dup1\n      iszero\n      tag_1\n      jumpi\n      0x00\n      dup1\n      revert\n    tag_1:\n      pop\n      jumpi(tag_2, lt(calldatasize, 0x04))\n      shr(0xe0, calldataload(0x00))\n      dup1\n      0x79e41b39\n      eq\n      tag_3\n      jumpi\n      dup1\n      0x99b084bf\n      eq\n      tag_4\n      jumpi\n    tag_2:\n      0x00\n      dup1\n      revert\n        /* \"CoinFlip/attackCoinFlip.sol\":126:149  uint256 public guessing */\n    tag_3:\n      tag_5\n      tag_6\n      jump\t// in\n    tag_5:\n      mload(0x40)\n      tag_7\n      swap2\n      swap1\n      tag_8\n      jump\t// in\n    tag_7:\n      mload(0x40)\n      dup1\n      swap2\n      sub\n      swap1\n      return\n        /* \"CoinFlip/attackCoinFlip.sol\":156:415  function guessTheCurrentBlockValue() public returns(uint256){... */\n    tag_4:\n      tag_9\n      tag_10\n      jump\t// in\n    tag_9:\n      mload(0x40)\n      tag_11\n      swap2\n      swap1\n      tag_8\n      jump\t// in\n    tag_11:\n      mload(0x40)\n      dup1\n      swap2\n      sub\n      swap1\n      return\n        /* \"CoinFlip/attackCoinFlip.sol\":126:149  uint256 public guessing */\n    tag_6:\n      sload(0x00)\n      dup2\n      jump\t// out\n        /* \"CoinFlip/attackCoinFlip.sol\":156:415  function guessTheCurrentBlockValue() public returns(uint256){... */\n    tag_10:\n        /* \"CoinFlip/attackCoinFlip.sol\":208:215  uint256 */\n      0x00\n        /* \"CoinFlip/attackCoinFlip.sol\":227:247  uint256 tmpOfCurrent */\n      dup1\n        /* \"CoinFlip/attackCoinFlip.sol\":268:280  block.number */\n      number\n        /* \"CoinFlip/attackCoinFlip.sol\":258:281  blockhash(block.number) */\n      blockhash\n        /* \"CoinFlip/attackCoinFlip.sol\":250:282  uint256(blockhash(block.number)) */\n      0x00\n      shr\n        /* \"CoinFlip/attackCoinFlip.sol\":227:282  uint256 tmpOfCurrent = uint256(blockhash(block.number)) */\n      swap1\n      pop\n        /* \"CoinFlip/attackCoinFlip.sol\":304:399  tmpOfCurrent.div(57896044618658097711785492504343953926634992332820282019728792003956564819968) */\n      tag_13\n        /* \"CoinFlip/attackCoinFlip.sol\":321:398  57896044618658097711785492504343953926634992332820282019728792003956564819968 */\n      0x8000000000000000000000000000000000000000000000000000000000000000\n        /* \"CoinFlip/attackCoinFlip.sol\":304:316  tmpOfCurrent */\n      dup3\n        /* \"CoinFlip/attackCoinFlip.sol\":304:320  tmpOfCurrent.div */\n      tag_14\n      swap1\n        /* \"CoinFlip/attackCoinFlip.sol\":304:399  tmpOfCurrent.div(57896044618658097711785492504343953926634992332820282019728792003956564819968) */\n      swap2\n      swap1\n      0xffffffff\n      and\n      jump\t// in\n    tag_13:\n        /* \"CoinFlip/attackCoinFlip.sol\":293:301  guessing */\n      0x00\n        /* \"CoinFlip/attackCoinFlip.sol\":293:399  guessing = tmpOfCurrent.div(57896044618658097711785492504343953926634992332820282019728792003956564819968) */\n      dup2\n      swap1\n      sstore\n      pop\n        /* \"CoinFlip/attackCoinFlip.sol\":216:415  {... */\n      pop\n        /* \"CoinFlip/attackCoinFlip.sol\":156:415  function guessTheCurrentBlockValue() public returns(uint256){... */\n      swap1\n      jump\t// out\n        /* \"Fallback/SafeMath.sol\":3969:4067  function div(uint256 a, uint256 b) internal pure returns (uint256) {... */\n    tag_14:\n        /* \"Fallback/SafeMath.sol\":4027:4034  uint256 */\n      0x00\n        /* \"Fallback/SafeMath.sol\":4058:4059  b */\n      dup2\n        /* \"Fallback/SafeMath.sol\":4054:4055  a */\n      dup4\n        /* \"Fallback/SafeMath.sol\":4054:4059  a / b */\n      tag_16\n      swap2\n      swap1\n      tag_17\n      jump\t// in\n    tag_16:\n        /* \"Fallback/SafeMath.sol\":4047:4059  return a / b */\n      swap1\n      pop\n        /* \"Fallback/SafeMath.sol\":3969:4067  function div(uint256 a, uint256 b) internal pure returns (uint256) {... */\n      swap3\n      swap2\n      pop\n      pop\n      jump\t// out\n        /* \"#utility.yul\":7:84   */\n    tag_18:\n        /* \"#utility.yul\":44:51   */\n      0x00\n        /* \"#utility.yul\":73:78   */\n      dup2\n        /* \"#utility.yul\":62:78   */\n      swap1\n      pop\n        /* \"#utility.yul\":7:84   */\n      swap2\n      swap1\n      pop\n      jump\t// out\n        /* \"#utility.yul\":90:208   */\n    tag_19:\n        /* \"#utility.yul\":177:201   */\n      tag_25\n        /* \"#utility.yul\":195:200   */\n      dup2\n        /* \"#utility.yul\":177:201   */\n      tag_18\n      jump\t// in\n    tag_25:\n        /* \"#utility.yul\":172:175   */\n      dup3\n        /* \"#utility.yul\":165:202   */\n      mstore\n        /* \"#utility.yul\":90:208   */\n      pop\n      pop\n      jump\t// out\n        /* \"#utility.yul\":214:436   */\n    tag_8:\n        /* \"#utility.yul\":307:311   */\n      0x00\n        /* \"#utility.yul\":345:347   */\n      0x20\n        /* \"#utility.yul\":334:343   */\n      dup3\n        /* \"#utility.yul\":330:348   */\n      add\n        /* \"#utility.yul\":322:348   */\n      swap1\n      pop\n        /* \"#utility.yul\":358:429   */\n      tag_27\n        /* \"#utility.yul\":426:427   */\n      0x00\n        /* \"#utility.yul\":415:424   */\n      dup4\n        /* \"#utility.yul\":411:428   */\n      add\n        /* \"#utility.yul\":402:408   */\n      dup5\n        /* \"#utility.yul\":358:429   */\n      tag_19\n      jump\t// in\n    tag_27:\n        /* \"#utility.yul\":214:436   */\n      swap3\n      swap2\n      pop\n      pop\n      jump\t// out\n        /* \"#utility.yul\":442:622   */\n    tag_20:\n        /* \"#utility.yul\":490:567   */\n      0x4e487b7100000000000000000000000000000000000000000000000000000000\n        /* \"#utility.yul\":487:488   */\n      0x00\n        /* \"#utility.yul\":480:568   */\n      mstore\n        /* \"#utility.yul\":587:591   */\n      0x12\n        /* \"#utility.yul\":584:585   */\n      0x04\n        /* \"#utility.yul\":577:592   */\n      mstore\n        /* \"#utility.yul\":611:615   */\n      0x24\n        /* \"#utility.yul\":608:609   */\n      0x00\n        /* \"#utility.yul\":601:616   */\n      revert\n        /* \"#utility.yul\":814:999   */\n    tag_17:\n        /* \"#utility.yul\":854:855   */\n      0x00\n        /* \"#utility.yul\":871:891   */\n      tag_31\n        /* \"#utility.yul\":889:890   */\n      dup3\n        /* \"#utility.yul\":871:891   */\n      tag_18\n      jump\t// in\n    tag_31:\n        /* \"#utility.yul\":866:891   */\n      swap2\n      pop\n        /* \"#utility.yul\":905:925   */\n      tag_32\n        /* \"#utility.yul\":923:924   */\n      dup4\n        /* \"#utility.yul\":905:925   */\n      tag_18\n      jump\t// in\n    tag_32:\n        /* \"#utility.yul\":900:925   */\n      swap3\n      pop\n        /* \"#utility.yul\":944:945   */\n      dup3\n        /* \"#utility.yul\":934:969   */\n      tag_33\n      jumpi\n        /* \"#utility.yul\":949:967   */\n      tag_34\n      tag_20\n      jump\t// in\n    tag_34:\n        /* \"#utility.yul\":934:969   */\n    tag_33:\n        /* \"#utility.yul\":991:992   */\n      dup3\n        /* \"#utility.yul\":988:989   */\n      dup3\n        /* \"#utility.yul\":984:993   */\n      div\n        /* \"#utility.yul\":979:993   */\n      swap1\n      pop\n        /* \"#utility.yul\":814:999   */\n      swap3\n      swap2\n      pop\n      pop\n      jump\t// out\n\n    auxdata: 0xa2646970667358221220eff2e0a48010b0a2bb9bca6a613ad8f56d084c3a349e37189b7b02cad8666ae664736f6c634300080d0033\n}\n",
				"bytecode": {
					"linkReferences": {},
					"object": "608060405234801561001057600080fd5b506101a4806100206000396000f3fe608060405234801561001057600080fd5b50600436106100365760003560e01c806379e41b391461003b57806399b084bf14610059575b600080fd5b610043610077565b60405161005091906100f3565b60405180910390f35b61006161007d565b60405161006e91906100f3565b60405180910390f35b60005481565b600080434060001c90506100ba7f8000000000000000000000000000000000000000000000000000000000000000826100c490919063ffffffff16565b6000819055505090565b600081836100d2919061013d565b905092915050565b6000819050919050565b6100ed816100da565b82525050565b600060208201905061010860008301846100e4565b92915050565b7f4e487b7100000000000000000000000000000000000000000000000000000000600052601260045260246000fd5b6000610148826100da565b9150610153836100da565b9250826101635761016261010e565b5b82820490509291505056fea2646970667358221220eff2e0a48010b0a2bb9bca6a613ad8f56d084c3a349e37189b7b02cad8666ae664736f6c634300080d0033",
					"opcodes": "PUSH1 0x80 PUSH1 0x40 MSTORE CALLVALUE DUP1 ISZERO PUSH2 0x10 JUMPI PUSH1 0x0 DUP1 REVERT JUMPDEST POP PUSH2 0x1A4 DUP1 PUSH2 0x20 PUSH1 0x0 CODECOPY PUSH1 0x0 RETURN INVALID PUSH1 0x80 PUSH1 0x40 MSTORE CALLVALUE DUP1 ISZERO PUSH2 0x10 JUMPI PUSH1 0x0 DUP1 REVERT JUMPDEST POP PUSH1 0x4 CALLDATASIZE LT PUSH2 0x36 JUMPI PUSH1 0x0 CALLDATALOAD PUSH1 0xE0 SHR DUP1 PUSH4 0x79E41B39 EQ PUSH2 0x3B JUMPI DUP1 PUSH4 0x99B084BF EQ PUSH2 0x59 JUMPI JUMPDEST PUSH1 0x0 DUP1 REVERT JUMPDEST PUSH2 0x43 PUSH2 0x77 JUMP JUMPDEST PUSH1 0x40 MLOAD PUSH2 0x50 SWAP2 SWAP1 PUSH2 0xF3 JUMP JUMPDEST PUSH1 0x40 MLOAD DUP1 SWAP2 SUB SWAP1 RETURN JUMPDEST PUSH2 0x61 PUSH2 0x7D JUMP JUMPDEST PUSH1 0x40 MLOAD PUSH2 0x6E SWAP2 SWAP1 PUSH2 0xF3 JUMP JUMPDEST PUSH1 0x40 MLOAD DUP1 SWAP2 SUB SWAP1 RETURN JUMPDEST PUSH1 0x0 SLOAD DUP2 JUMP JUMPDEST PUSH1 0x0 DUP1 NUMBER BLOCKHASH PUSH1 0x0 SHR SWAP1 POP PUSH2 0xBA PUSH32 0x8000000000000000000000000000000000000000000000000000000000000000 DUP3 PUSH2 0xC4 SWAP1 SWAP2 SWAP1 PUSH4 0xFFFFFFFF AND JUMP JUMPDEST PUSH1 0x0 DUP2 SWAP1 SSTORE POP POP SWAP1 JUMP JUMPDEST PUSH1 0x0 DUP2 DUP4 PUSH2 0xD2 SWAP2 SWAP1 PUSH2 0x13D JUMP JUMPDEST SWAP1 POP SWAP3 SWAP2 POP POP JUMP JUMPDEST PUSH1 0x0 DUP2 SWAP1 POP SWAP2 SWAP1 POP JUMP JUMPDEST PUSH2 0xED DUP2 PUSH2 0xDA JUMP JUMPDEST DUP3 MSTORE POP POP JUMP JUMPDEST PUSH1 0x0 PUSH1 0x20 DUP3 ADD SWAP1 POP PUSH2 0x108 PUSH1 0x0 DUP4 ADD DUP5 PUSH2 0xE4 JUMP JUMPDEST SWAP3 SWAP2 POP POP JUMP JUMPDEST PUSH32 0x4E487B7100000000000000000000000000000000000000000000000000000000 PUSH1 0x0 MSTORE PUSH1 0x12 PUSH1 0x4 MSTORE PUSH1 0x24 PUSH1 0x0 REVERT JUMPDEST PUSH1 0x0 PUSH2 0x148 DUP3 PUSH2 0xDA JUMP JUMPDEST SWAP2 POP PUSH2 0x153 DUP4 PUSH2 0xDA JUMP JUMPDEST SWAP3 POP DUP3 PUSH2 0x163 JUMPI PUSH2 0x162 PUSH2 0x10E JUMP JUMPDEST JUMPDEST DUP3 DUP3 DIV SWAP1 POP SWAP3 SWAP2 POP POP JUMP INVALID LOG2 PUSH5 0x6970667358 0x22 SLT KECCAK256 0xEF CALLCODE 0xE0 LOG4 DUP1 LT 0xB0 LOG2 0xBB SWAP12 0xCA PUSH11 0x613AD8F56D084C3A349E37 XOR SWAP12 PUSH28 0x2CAD8666AE664736F6C634300080D00330000000000000000000000 "
				},
				"gasEstimates": {
					"creation": {
						"codeDepositCost": "84000",
						"executionCost": "135",
						"totalCost": "84135"
					},
					"external": {
						"guessTheCurrentBlockValue()": "infinite",
						"guessing()": "2407"
					}
				},
				"methodIdentifiers": {
					"guessTheCurrentBlockValue()": "99b084bf",
					"guessing()": "79e41b39"
				}
			},
			"userdoc": {
				"kind": "user",
				"methods": {},
				"version": 1
			}
		}
	}
}