{
	"CoinFlip/attackCoinFlip.sol": {
		"AttackCoinFlip": {
			"abi": [
				{
					"inputs": [
						{
							"internalType": "address",
							"name": "_contract",
							"type": "address"
						}
					],
					"name": "attack",
					"outputs": [
						{
							"internalType": "bool",
							"name": "",
							"type": "bool"
						}
					],
					"stateMutability": "nonpayable",
					"type": "function"
				},
				{
					"inputs": [],
					"name": "guessing",
					"outputs": [
						{
							"internalType": "bool",
							"name": "",
							"type": "bool"
						}
					],
					"stateMutability": "view",
					"type": "function"
				}
			],
			"devdoc": {
				"kind": "dev",
				"methods": {},
				"version": 1
			},
			"evm": {
				"assembly": "    /* \"CoinFlip/attackCoinFlip.sol\":89:679  contract AttackCoinFlip{... */\n  mstore(0x40, 0x80)\n  callvalue\n  dup1\n  iszero\n  tag_1\n  jumpi\n  0x00\n  dup1\n  revert\ntag_1:\n  pop\n  dataSize(sub_0)\n  dup1\n  dataOffset(sub_0)\n  0x00\n  codecopy\n  0x00\n  return\nstop\n\nsub_0: assembly {\n        /* \"CoinFlip/attackCoinFlip.sol\":89:679  contract AttackCoinFlip{... */\n      mstore(0x40, 0x80)\n      callvalue\n      dup1\n      iszero\n      tag_1\n      jumpi\n      0x00\n      dup1\n      revert\n    tag_1:\n      pop\n      jumpi(tag_2, lt(calldatasize, 0x04))\n      shr(0xe0, calldataload(0x00))\n      dup1\n      0x79e41b39\n      eq\n      tag_3\n      jumpi\n      dup1\n      0xd018db3e\n      eq\n      tag_4\n      jumpi\n    tag_2:\n      0x00\n      dup1\n      revert\n        /* \"CoinFlip/attackCoinFlip.sol\":152:172  bool public guessing */\n    tag_3:\n      tag_5\n      tag_6\n      jump\t// in\n    tag_5:\n      mload(0x40)\n      tag_7\n      swap2\n      swap1\n      tag_8\n      jump\t// in\n    tag_7:\n      mload(0x40)\n      dup1\n      swap2\n      sub\n      swap1\n      return\n        /* \"CoinFlip/attackCoinFlip.sol\":181:670  function attack(address _contract) public returns(bool) {... */\n    tag_4:\n      tag_9\n      0x04\n      dup1\n      calldatasize\n      sub\n      dup2\n      add\n      swap1\n      tag_10\n      swap2\n      swap1\n      tag_11\n      jump\t// in\n    tag_10:\n      tag_12\n      jump\t// in\n    tag_9:\n      mload(0x40)\n      tag_13\n      swap2\n      swap1\n      tag_8\n      jump\t// in\n    tag_13:\n      mload(0x40)\n      dup1\n      swap2\n      sub\n      swap1\n      return\n        /* \"CoinFlip/attackCoinFlip.sol\":152:172  bool public guessing */\n    tag_6:\n      0x00\n      dup1\n      sload\n      swap1\n      0x0100\n      exp\n      swap1\n      div\n      0xff\n      and\n      dup2\n      jump\t// out\n        /* \"CoinFlip/attackCoinFlip.sol\":181:670  function attack(address _contract) public returns(bool) {... */\n    tag_12:\n        /* \"CoinFlip/attackCoinFlip.sol\":231:235  bool */\n      0x00\n        /* \"CoinFlip/attackCoinFlip.sol\":248:269  uint256 guessingValue */\n      dup1\n        /* \"CoinFlip/attackCoinFlip.sol\":280:300  uint256 tmpOfCurrent */\n      0x00\n        /* \"CoinFlip/attackCoinFlip.sol\":321:333  block.number */\n      number\n        /* \"CoinFlip/attackCoinFlip.sol\":311:334  blockhash(block.number) */\n      blockhash\n        /* \"CoinFlip/attackCoinFlip.sol\":303:335  uint256(blockhash(block.number)) */\n      0x00\n      shr\n        /* \"CoinFlip/attackCoinFlip.sol\":280:335  uint256 tmpOfCurrent = uint256(blockhash(block.number)) */\n      swap1\n      pop\n        /* \"CoinFlip/attackCoinFlip.sol\":346:357  bool result */\n      0x00\n        /* \"CoinFlip/attackCoinFlip.sol\":392:487  tmpOfCurrent.div(57896044618658097711785492504343953926634992332820282019728792003956564819968) */\n      tag_15\n        /* \"CoinFlip/attackCoinFlip.sol\":409:486  57896044618658097711785492504343953926634992332820282019728792003956564819968 */\n      0x8000000000000000000000000000000000000000000000000000000000000000\n        /* \"CoinFlip/attackCoinFlip.sol\":392:404  tmpOfCurrent */\n      dup4\n        /* \"CoinFlip/attackCoinFlip.sol\":392:408  tmpOfCurrent.div */\n      tag_16\n      swap1\n        /* \"CoinFlip/attackCoinFlip.sol\":392:487  tmpOfCurrent.div(57896044618658097711785492504343953926634992332820282019728792003956564819968) */\n      swap2\n      swap1\n      0xffffffff\n      and\n      jump\t// in\n    tag_15:\n        /* \"CoinFlip/attackCoinFlip.sol\":376:487  guessingValue = tmpOfCurrent.div(57896044618658097711785492504343953926634992332820282019728792003956564819968) */\n      swap3\n      pop\n        /* \"CoinFlip/attackCoinFlip.sol\":530:531  1 */\n      0x01\n        /* \"CoinFlip/attackCoinFlip.sol\":513:526  guessingValue */\n      dup4\n        /* \"CoinFlip/attackCoinFlip.sol\":513:531  guessingValue == 1 */\n      eq\n        /* \"CoinFlip/attackCoinFlip.sol\":513:546  guessingValue == 1 ? true : false */\n      tag_17\n      jumpi\n        /* \"CoinFlip/attackCoinFlip.sol\":541:546  false */\n      0x00\n        /* \"CoinFlip/attackCoinFlip.sol\":513:546  guessingValue == 1 ? true : false */\n      jump(tag_18)\n    tag_17:\n        /* \"CoinFlip/attackCoinFlip.sol\":534:538  true */\n      0x01\n        /* \"CoinFlip/attackCoinFlip.sol\":513:546  guessingValue == 1 ? true : false */\n    tag_18:\n        /* \"CoinFlip/attackCoinFlip.sol\":502:510  guessing */\n      0x00\n      dup1\n        /* \"CoinFlip/attackCoinFlip.sol\":502:546  guessing = guessingValue == 1 ? true : false */\n      0x0100\n      exp\n      dup2\n      sload\n      dup2\n      0xff\n      mul\n      not\n      and\n      swap1\n      dup4\n      iszero\n      iszero\n      mul\n      or\n      swap1\n      sstore\n      pop\n        /* \"CoinFlip/attackCoinFlip.sol\":570:580  CoinFlip C */\n      0x00\n        /* \"CoinFlip/attackCoinFlip.sol\":592:601  _contract */\n      dup6\n        /* \"CoinFlip/attackCoinFlip.sol\":570:602  CoinFlip C = CoinFlip(_contract) */\n      swap1\n      pop\n        /* \"CoinFlip/attackCoinFlip.sol\":622:623  C */\n      dup1\n        /* \"CoinFlip/attackCoinFlip.sol\":622:628  C.flip */\n      0xffffffffffffffffffffffffffffffffffffffff\n      and\n      0x1d263f67\n        /* \"CoinFlip/attackCoinFlip.sol\":629:637  guessing */\n      0x00\n      dup1\n      sload\n      swap1\n      0x0100\n      exp\n      swap1\n      div\n      0xff\n      and\n        /* \"CoinFlip/attackCoinFlip.sol\":622:638  C.flip(guessing) */\n      mload(0x40)\n      dup3\n      0xffffffff\n      and\n      0xe0\n      shl\n      dup2\n      mstore\n      0x04\n      add\n      tag_19\n      swap2\n      swap1\n      tag_8\n      jump\t// in\n    tag_19:\n      0x20\n      mload(0x40)\n      dup1\n      dup4\n      sub\n      dup2\n      0x00\n      dup8\n      gas\n      call\n      iszero\n      dup1\n      iszero\n      tag_21\n      jumpi\n      returndatasize\n      0x00\n      dup1\n      returndatacopy\n      revert(0x00, returndatasize)\n    tag_21:\n      pop\n      pop\n      pop\n      pop\n      mload(0x40)\n      returndatasize\n      not(0x1f)\n      0x1f\n      dup3\n      add\n      and\n      dup3\n      add\n      dup1\n      0x40\n      mstore\n      pop\n      dup2\n      add\n      swap1\n      tag_22\n      swap2\n      swap1\n      tag_23\n      jump\t// in\n    tag_22:\n        /* \"CoinFlip/attackCoinFlip.sol\":613:638  result = C.flip(guessing) */\n      swap2\n      pop\n        /* \"CoinFlip/attackCoinFlip.sol\":656:662  result */\n      dup2\n        /* \"CoinFlip/attackCoinFlip.sol\":649:662  return result */\n      swap5\n      pop\n      pop\n      pop\n      pop\n      pop\n        /* \"CoinFlip/attackCoinFlip.sol\":181:670  function attack(address _contract) public returns(bool) {... */\n      swap2\n      swap1\n      pop\n      jump\t// out\n        /* \"Fallback/SafeMath.sol\":3969:4067  function div(uint256 a, uint256 b) internal pure returns (uint256) {... */\n    tag_16:\n        /* \"Fallback/SafeMath.sol\":4027:4034  uint256 */\n      0x00\n        /* \"Fallback/SafeMath.sol\":4058:4059  b */\n      dup2\n        /* \"Fallback/SafeMath.sol\":4054:4055  a */\n      dup4\n        /* \"Fallback/SafeMath.sol\":4054:4059  a / b */\n      tag_25\n      swap2\n      swap1\n      tag_26\n      jump\t// in\n    tag_25:\n        /* \"Fallback/SafeMath.sol\":4047:4059  return a / b */\n      swap1\n      pop\n        /* \"Fallback/SafeMath.sol\":3969:4067  function div(uint256 a, uint256 b) internal pure returns (uint256) {... */\n      swap3\n      swap2\n      pop\n      pop\n      jump\t// out\n        /* \"#utility.yul\":7:97   */\n    tag_27:\n        /* \"#utility.yul\":41:48   */\n      0x00\n        /* \"#utility.yul\":84:89   */\n      dup2\n        /* \"#utility.yul\":77:90   */\n      iszero\n        /* \"#utility.yul\":70:91   */\n      iszero\n        /* \"#utility.yul\":59:91   */\n      swap1\n      pop\n        /* \"#utility.yul\":7:97   */\n      swap2\n      swap1\n      pop\n      jump\t// out\n        /* \"#utility.yul\":103:212   */\n    tag_28:\n        /* \"#utility.yul\":184:205   */\n      tag_44\n        /* \"#utility.yul\":199:204   */\n      dup2\n        /* \"#utility.yul\":184:205   */\n      tag_27\n      jump\t// in\n    tag_44:\n        /* \"#utility.yul\":179:182   */\n      dup3\n        /* \"#utility.yul\":172:206   */\n      mstore\n        /* \"#utility.yul\":103:212   */\n      pop\n      pop\n      jump\t// out\n        /* \"#utility.yul\":218:428   */\n    tag_8:\n        /* \"#utility.yul\":305:309   */\n      0x00\n        /* \"#utility.yul\":343:345   */\n      0x20\n        /* \"#utility.yul\":332:341   */\n      dup3\n        /* \"#utility.yul\":328:346   */\n      add\n        /* \"#utility.yul\":320:346   */\n      swap1\n      pop\n        /* \"#utility.yul\":356:421   */\n      tag_46\n        /* \"#utility.yul\":418:419   */\n      0x00\n        /* \"#utility.yul\":407:416   */\n      dup4\n        /* \"#utility.yul\":403:420   */\n      add\n        /* \"#utility.yul\":394:400   */\n      dup5\n        /* \"#utility.yul\":356:421   */\n      tag_28\n      jump\t// in\n    tag_46:\n        /* \"#utility.yul\":218:428   */\n      swap3\n      swap2\n      pop\n      pop\n      jump\t// out\n        /* \"#utility.yul\":515:632   */\n    tag_30:\n        /* \"#utility.yul\":624:625   */\n      0x00\n        /* \"#utility.yul\":621:622   */\n      dup1\n        /* \"#utility.yul\":614:626   */\n      revert\n        /* \"#utility.yul\":761:887   */\n    tag_32:\n        /* \"#utility.yul\":798:805   */\n      0x00\n        /* \"#utility.yul\":838:880   */\n      0xffffffffffffffffffffffffffffffffffffffff\n        /* \"#utility.yul\":831:836   */\n      dup3\n        /* \"#utility.yul\":827:881   */\n      and\n        /* \"#utility.yul\":816:881   */\n      swap1\n      pop\n        /* \"#utility.yul\":761:887   */\n      swap2\n      swap1\n      pop\n      jump\t// out\n        /* \"#utility.yul\":893:989   */\n    tag_33:\n        /* \"#utility.yul\":930:937   */\n      0x00\n        /* \"#utility.yul\":959:983   */\n      tag_52\n        /* \"#utility.yul\":977:982   */\n      dup3\n        /* \"#utility.yul\":959:983   */\n      tag_32\n      jump\t// in\n    tag_52:\n        /* \"#utility.yul\":948:983   */\n      swap1\n      pop\n        /* \"#utility.yul\":893:989   */\n      swap2\n      swap1\n      pop\n      jump\t// out\n        /* \"#utility.yul\":995:1117   */\n    tag_34:\n        /* \"#utility.yul\":1068:1092   */\n      tag_54\n        /* \"#utility.yul\":1086:1091   */\n      dup2\n        /* \"#utility.yul\":1068:1092   */\n      tag_33\n      jump\t// in\n    tag_54:\n        /* \"#utility.yul\":1061:1066   */\n      dup2\n        /* \"#utility.yul\":1058:1093   */\n      eq\n        /* \"#utility.yul\":1048:1111   */\n      tag_55\n      jumpi\n        /* \"#utility.yul\":1107:1108   */\n      0x00\n        /* \"#utility.yul\":1104:1105   */\n      dup1\n        /* \"#utility.yul\":1097:1109   */\n      revert\n        /* \"#utility.yul\":1048:1111   */\n    tag_55:\n        /* \"#utility.yul\":995:1117   */\n      pop\n      jump\t// out\n        /* \"#utility.yul\":1123:1262   */\n    tag_35:\n        /* \"#utility.yul\":1169:1174   */\n      0x00\n        /* \"#utility.yul\":1207:1213   */\n      dup2\n        /* \"#utility.yul\":1194:1214   */\n      calldataload\n        /* \"#utility.yul\":1185:1214   */\n      swap1\n      pop\n        /* \"#utility.yul\":1223:1256   */\n      tag_57\n        /* \"#utility.yul\":1250:1255   */\n      dup2\n        /* \"#utility.yul\":1223:1256   */\n      tag_34\n      jump\t// in\n    tag_57:\n        /* \"#utility.yul\":1123:1262   */\n      swap3\n      swap2\n      pop\n      pop\n      jump\t// out\n        /* \"#utility.yul\":1268:1597   */\n    tag_11:\n        /* \"#utility.yul\":1327:1333   */\n      0x00\n        /* \"#utility.yul\":1376:1378   */\n      0x20\n        /* \"#utility.yul\":1364:1373   */\n      dup3\n        /* \"#utility.yul\":1355:1362   */\n      dup5\n        /* \"#utility.yul\":1351:1374   */\n      sub\n        /* \"#utility.yul\":1347:1379   */\n      slt\n        /* \"#utility.yul\":1344:1463   */\n      iszero\n      tag_59\n      jumpi\n        /* \"#utility.yul\":1382:1461   */\n      tag_60\n      tag_30\n      jump\t// in\n    tag_60:\n        /* \"#utility.yul\":1344:1463   */\n    tag_59:\n        /* \"#utility.yul\":1502:1503   */\n      0x00\n        /* \"#utility.yul\":1527:1580   */\n      tag_61\n        /* \"#utility.yul\":1572:1579   */\n      dup5\n        /* \"#utility.yul\":1563:1569   */\n      dup3\n        /* \"#utility.yul\":1552:1561   */\n      dup6\n        /* \"#utility.yul\":1548:1570   */\n      add\n        /* \"#utility.yul\":1527:1580   */\n      tag_35\n      jump\t// in\n    tag_61:\n        /* \"#utility.yul\":1517:1580   */\n      swap2\n      pop\n        /* \"#utility.yul\":1473:1590   */\n      pop\n        /* \"#utility.yul\":1268:1597   */\n      swap3\n      swap2\n      pop\n      pop\n      jump\t// out\n        /* \"#utility.yul\":1603:1719   */\n    tag_36:\n        /* \"#utility.yul\":1673:1694   */\n      tag_63\n        /* \"#utility.yul\":1688:1693   */\n      dup2\n        /* \"#utility.yul\":1673:1694   */\n      tag_27\n      jump\t// in\n    tag_63:\n        /* \"#utility.yul\":1666:1671   */\n      dup2\n        /* \"#utility.yul\":1663:1695   */\n      eq\n        /* \"#utility.yul\":1653:1713   */\n      tag_64\n      jumpi\n        /* \"#utility.yul\":1709:1710   */\n      0x00\n        /* \"#utility.yul\":1706:1707   */\n      dup1\n        /* \"#utility.yul\":1699:1711   */\n      revert\n        /* \"#utility.yul\":1653:1713   */\n    tag_64:\n        /* \"#utility.yul\":1603:1719   */\n      pop\n      jump\t// out\n        /* \"#utility.yul\":1725:1862   */\n    tag_37:\n        /* \"#utility.yul\":1779:1784   */\n      0x00\n        /* \"#utility.yul\":1810:1816   */\n      dup2\n        /* \"#utility.yul\":1804:1817   */\n      mload\n        /* \"#utility.yul\":1795:1817   */\n      swap1\n      pop\n        /* \"#utility.yul\":1826:1856   */\n      tag_66\n        /* \"#utility.yul\":1850:1855   */\n      dup2\n        /* \"#utility.yul\":1826:1856   */\n      tag_36\n      jump\t// in\n    tag_66:\n        /* \"#utility.yul\":1725:1862   */\n      swap3\n      swap2\n      pop\n      pop\n      jump\t// out\n        /* \"#utility.yul\":1868:2213   */\n    tag_23:\n        /* \"#utility.yul\":1935:1941   */\n      0x00\n        /* \"#utility.yul\":1984:1986   */\n      0x20\n        /* \"#utility.yul\":1972:1981   */\n      dup3\n        /* \"#utility.yul\":1963:1970   */\n      dup5\n        /* \"#utility.yul\":1959:1982   */\n      sub\n        /* \"#utility.yul\":1955:1987   */\n      slt\n        /* \"#utility.yul\":1952:2071   */\n      iszero\n      tag_68\n      jumpi\n        /* \"#utility.yul\":1990:2069   */\n      tag_69\n      tag_30\n      jump\t// in\n    tag_69:\n        /* \"#utility.yul\":1952:2071   */\n    tag_68:\n        /* \"#utility.yul\":2110:2111   */\n      0x00\n        /* \"#utility.yul\":2135:2196   */\n      tag_70\n        /* \"#utility.yul\":2188:2195   */\n      dup5\n        /* \"#utility.yul\":2179:2185   */\n      dup3\n        /* \"#utility.yul\":2168:2177   */\n      dup6\n        /* \"#utility.yul\":2164:2186   */\n      add\n        /* \"#utility.yul\":2135:2196   */\n      tag_37\n      jump\t// in\n    tag_70:\n        /* \"#utility.yul\":2125:2196   */\n      swap2\n      pop\n        /* \"#utility.yul\":2081:2206   */\n      pop\n        /* \"#utility.yul\":1868:2213   */\n      swap3\n      swap2\n      pop\n      pop\n      jump\t// out\n        /* \"#utility.yul\":2219:2296   */\n    tag_38:\n        /* \"#utility.yul\":2256:2263   */\n      0x00\n        /* \"#utility.yul\":2285:2290   */\n      dup2\n        /* \"#utility.yul\":2274:2290   */\n      swap1\n      pop\n        /* \"#utility.yul\":2219:2296   */\n      swap2\n      swap1\n      pop\n      jump\t// out\n        /* \"#utility.yul\":2302:2482   */\n    tag_39:\n        /* \"#utility.yul\":2350:2427   */\n      0x4e487b7100000000000000000000000000000000000000000000000000000000\n        /* \"#utility.yul\":2347:2348   */\n      0x00\n        /* \"#utility.yul\":2340:2428   */\n      mstore\n        /* \"#utility.yul\":2447:2451   */\n      0x12\n        /* \"#utility.yul\":2444:2445   */\n      0x04\n        /* \"#utility.yul\":2437:2452   */\n      mstore\n        /* \"#utility.yul\":2471:2475   */\n      0x24\n        /* \"#utility.yul\":2468:2469   */\n      0x00\n        /* \"#utility.yul\":2461:2476   */\n      revert\n        /* \"#utility.yul\":2674:2859   */\n    tag_26:\n        /* \"#utility.yul\":2714:2715   */\n      0x00\n        /* \"#utility.yul\":2731:2751   */\n      tag_75\n        /* \"#utility.yul\":2749:2750   */\n      dup3\n        /* \"#utility.yul\":2731:2751   */\n      tag_38\n      jump\t// in\n    tag_75:\n        /* \"#utility.yul\":2726:2751   */\n      swap2\n      pop\n        /* \"#utility.yul\":2765:2785   */\n      tag_76\n        /* \"#utility.yul\":2783:2784   */\n      dup4\n        /* \"#utility.yul\":2765:2785   */\n      tag_38\n      jump\t// in\n    tag_76:\n        /* \"#utility.yul\":2760:2785   */\n      swap3\n      pop\n        /* \"#utility.yul\":2804:2805   */\n      dup3\n        /* \"#utility.yul\":2794:2829   */\n      tag_77\n      jumpi\n        /* \"#utility.yul\":2809:2827   */\n      tag_78\n      tag_39\n      jump\t// in\n    tag_78:\n        /* \"#utility.yul\":2794:2829   */\n    tag_77:\n        /* \"#utility.yul\":2851:2852   */\n      dup3\n        /* \"#utility.yul\":2848:2849   */\n      dup3\n        /* \"#utility.yul\":2844:2853   */\n      div\n        /* \"#utility.yul\":2839:2853   */\n      swap1\n      pop\n        /* \"#utility.yul\":2674:2859   */\n      swap3\n      swap2\n      pop\n      pop\n      jump\t// out\n\n    auxdata: 0xa2646970667358221220c88a8cd2cd7d82164a65878bf5065d9f6d7b6b479935df72a58ff07521fcff9364736f6c634300080d0033\n}\n",
				"bytecode": {
					"linkReferences": {},
					"object": "608060405234801561001057600080fd5b50610378806100206000396000f3fe608060405234801561001057600080fd5b50600436106100365760003560e01c806379e41b391461003b578063d018db3e14610059575b600080fd5b610043610089565b60405161005091906101d4565b60405180910390f35b610073600480360381019061006e9190610252565b61009a565b60405161008091906101d4565b60405180910390f35b60008054906101000a900460ff1681565b6000806000434060001c905060006100db7f8000000000000000000000000000000000000000000000000000000000000000836101a390919063ffffffff16565b9250600183146100ec5760006100ef565b60015b6000806101000a81548160ff02191690831515021790555060008590508073ffffffffffffffffffffffffffffffffffffffff16631d263f6760008054906101000a900460ff166040518263ffffffff1660e01b815260040161015291906101d4565b6020604051808303816000875af1158015610171573d6000803e3d6000fd5b505050506040513d601f19601f8201168201806040525081019061019591906102ab565b915081945050505050919050565b600081836101b19190610311565b905092915050565b60008115159050919050565b6101ce816101b9565b82525050565b60006020820190506101e960008301846101c5565b92915050565b600080fd5b600073ffffffffffffffffffffffffffffffffffffffff82169050919050565b600061021f826101f4565b9050919050565b61022f81610214565b811461023a57600080fd5b50565b60008135905061024c81610226565b92915050565b600060208284031215610268576102676101ef565b5b60006102768482850161023d565b91505092915050565b610288816101b9565b811461029357600080fd5b50565b6000815190506102a58161027f565b92915050565b6000602082840312156102c1576102c06101ef565b5b60006102cf84828501610296565b91505092915050565b6000819050919050565b7f4e487b7100000000000000000000000000000000000000000000000000000000600052601260045260246000fd5b600061031c826102d8565b9150610327836102d8565b925082610337576103366102e2565b5b82820490509291505056fea2646970667358221220c88a8cd2cd7d82164a65878bf5065d9f6d7b6b479935df72a58ff07521fcff9364736f6c634300080d0033",
					"opcodes": "PUSH1 0x80 PUSH1 0x40 MSTORE CALLVALUE DUP1 ISZERO PUSH2 0x10 JUMPI PUSH1 0x0 DUP1 REVERT JUMPDEST POP PUSH2 0x378 DUP1 PUSH2 0x20 PUSH1 0x0 CODECOPY PUSH1 0x0 RETURN INVALID PUSH1 0x80 PUSH1 0x40 MSTORE CALLVALUE DUP1 ISZERO PUSH2 0x10 JUMPI PUSH1 0x0 DUP1 REVERT JUMPDEST POP PUSH1 0x4 CALLDATASIZE LT PUSH2 0x36 JUMPI PUSH1 0x0 CALLDATALOAD PUSH1 0xE0 SHR DUP1 PUSH4 0x79E41B39 EQ PUSH2 0x3B JUMPI DUP1 PUSH4 0xD018DB3E EQ PUSH2 0x59 JUMPI JUMPDEST PUSH1 0x0 DUP1 REVERT JUMPDEST PUSH2 0x43 PUSH2 0x89 JUMP JUMPDEST PUSH1 0x40 MLOAD PUSH2 0x50 SWAP2 SWAP1 PUSH2 0x1D4 JUMP JUMPDEST PUSH1 0x40 MLOAD DUP1 SWAP2 SUB SWAP1 RETURN JUMPDEST PUSH2 0x73 PUSH1 0x4 DUP1 CALLDATASIZE SUB DUP2 ADD SWAP1 PUSH2 0x6E SWAP2 SWAP1 PUSH2 0x252 JUMP JUMPDEST PUSH2 0x9A JUMP JUMPDEST PUSH1 0x40 MLOAD PUSH2 0x80 SWAP2 SWAP1 PUSH2 0x1D4 JUMP JUMPDEST PUSH1 0x40 MLOAD DUP1 SWAP2 SUB SWAP1 RETURN JUMPDEST PUSH1 0x0 DUP1 SLOAD SWAP1 PUSH2 0x100 EXP SWAP1 DIV PUSH1 0xFF AND DUP2 JUMP JUMPDEST PUSH1 0x0 DUP1 PUSH1 0x0 NUMBER BLOCKHASH PUSH1 0x0 SHR SWAP1 POP PUSH1 0x0 PUSH2 0xDB PUSH32 0x8000000000000000000000000000000000000000000000000000000000000000 DUP4 PUSH2 0x1A3 SWAP1 SWAP2 SWAP1 PUSH4 0xFFFFFFFF AND JUMP JUMPDEST SWAP3 POP PUSH1 0x1 DUP4 EQ PUSH2 0xEC JUMPI PUSH1 0x0 PUSH2 0xEF JUMP JUMPDEST PUSH1 0x1 JUMPDEST PUSH1 0x0 DUP1 PUSH2 0x100 EXP DUP2 SLOAD DUP2 PUSH1 0xFF MUL NOT AND SWAP1 DUP4 ISZERO ISZERO MUL OR SWAP1 SSTORE POP PUSH1 0x0 DUP6 SWAP1 POP DUP1 PUSH20 0xFFFFFFFFFFFFFFFFFFFFFFFFFFFFFFFFFFFFFFFF AND PUSH4 0x1D263F67 PUSH1 0x0 DUP1 SLOAD SWAP1 PUSH2 0x100 EXP SWAP1 DIV PUSH1 0xFF AND PUSH1 0x40 MLOAD DUP3 PUSH4 0xFFFFFFFF AND PUSH1 0xE0 SHL DUP2 MSTORE PUSH1 0x4 ADD PUSH2 0x152 SWAP2 SWAP1 PUSH2 0x1D4 JUMP JUMPDEST PUSH1 0x20 PUSH1 0x40 MLOAD DUP1 DUP4 SUB DUP2 PUSH1 0x0 DUP8 GAS CALL ISZERO DUP1 ISZERO PUSH2 0x171 JUMPI RETURNDATASIZE PUSH1 0x0 DUP1 RETURNDATACOPY RETURNDATASIZE PUSH1 0x0 REVERT JUMPDEST POP POP POP POP PUSH1 0x40 MLOAD RETURNDATASIZE PUSH1 0x1F NOT PUSH1 0x1F DUP3 ADD AND DUP3 ADD DUP1 PUSH1 0x40 MSTORE POP DUP2 ADD SWAP1 PUSH2 0x195 SWAP2 SWAP1 PUSH2 0x2AB JUMP JUMPDEST SWAP2 POP DUP2 SWAP5 POP POP POP POP POP SWAP2 SWAP1 POP JUMP JUMPDEST PUSH1 0x0 DUP2 DUP4 PUSH2 0x1B1 SWAP2 SWAP1 PUSH2 0x311 JUMP JUMPDEST SWAP1 POP SWAP3 SWAP2 POP POP JUMP JUMPDEST PUSH1 0x0 DUP2 ISZERO ISZERO SWAP1 POP SWAP2 SWAP1 POP JUMP JUMPDEST PUSH2 0x1CE DUP2 PUSH2 0x1B9 JUMP JUMPDEST DUP3 MSTORE POP POP JUMP JUMPDEST PUSH1 0x0 PUSH1 0x20 DUP3 ADD SWAP1 POP PUSH2 0x1E9 PUSH1 0x0 DUP4 ADD DUP5 PUSH2 0x1C5 JUMP JUMPDEST SWAP3 SWAP2 POP POP JUMP JUMPDEST PUSH1 0x0 DUP1 REVERT JUMPDEST PUSH1 0x0 PUSH20 0xFFFFFFFFFFFFFFFFFFFFFFFFFFFFFFFFFFFFFFFF DUP3 AND SWAP1 POP SWAP2 SWAP1 POP JUMP JUMPDEST PUSH1 0x0 PUSH2 0x21F DUP3 PUSH2 0x1F4 JUMP JUMPDEST SWAP1 POP SWAP2 SWAP1 POP JUMP JUMPDEST PUSH2 0x22F DUP2 PUSH2 0x214 JUMP JUMPDEST DUP2 EQ PUSH2 0x23A JUMPI PUSH1 0x0 DUP1 REVERT JUMPDEST POP JUMP JUMPDEST PUSH1 0x0 DUP2 CALLDATALOAD SWAP1 POP PUSH2 0x24C DUP2 PUSH2 0x226 JUMP JUMPDEST SWAP3 SWAP2 POP POP JUMP JUMPDEST PUSH1 0x0 PUSH1 0x20 DUP3 DUP5 SUB SLT ISZERO PUSH2 0x268 JUMPI PUSH2 0x267 PUSH2 0x1EF JUMP JUMPDEST JUMPDEST PUSH1 0x0 PUSH2 0x276 DUP5 DUP3 DUP6 ADD PUSH2 0x23D JUMP JUMPDEST SWAP2 POP POP SWAP3 SWAP2 POP POP JUMP JUMPDEST PUSH2 0x288 DUP2 PUSH2 0x1B9 JUMP JUMPDEST DUP2 EQ PUSH2 0x293 JUMPI PUSH1 0x0 DUP1 REVERT JUMPDEST POP JUMP JUMPDEST PUSH1 0x0 DUP2 MLOAD SWAP1 POP PUSH2 0x2A5 DUP2 PUSH2 0x27F JUMP JUMPDEST SWAP3 SWAP2 POP POP JUMP JUMPDEST PUSH1 0x0 PUSH1 0x20 DUP3 DUP5 SUB SLT ISZERO PUSH2 0x2C1 JUMPI PUSH2 0x2C0 PUSH2 0x1EF JUMP JUMPDEST JUMPDEST PUSH1 0x0 PUSH2 0x2CF DUP5 DUP3 DUP6 ADD PUSH2 0x296 JUMP JUMPDEST SWAP2 POP POP SWAP3 SWAP2 POP POP JUMP JUMPDEST PUSH1 0x0 DUP2 SWAP1 POP SWAP2 SWAP1 POP JUMP JUMPDEST PUSH32 0x4E487B7100000000000000000000000000000000000000000000000000000000 PUSH1 0x0 MSTORE PUSH1 0x12 PUSH1 0x4 MSTORE PUSH1 0x24 PUSH1 0x0 REVERT JUMPDEST PUSH1 0x0 PUSH2 0x31C DUP3 PUSH2 0x2D8 JUMP JUMPDEST SWAP2 POP PUSH2 0x327 DUP4 PUSH2 0x2D8 JUMP JUMPDEST SWAP3 POP DUP3 PUSH2 0x337 JUMPI PUSH2 0x336 PUSH2 0x2E2 JUMP JUMPDEST JUMPDEST DUP3 DUP3 DIV SWAP1 POP SWAP3 SWAP2 POP POP JUMP INVALID LOG2 PUSH5 0x6970667358 0x22 SLT KECCAK256 0xC8 DUP11 DUP13 0xD2 0xCD PUSH30 0x82164A65878BF5065D9F6D7B6B479935DF72A58FF07521FCFF9364736F6C PUSH4 0x4300080D STOP CALLER "
				},
				"gasEstimates": {
					"creation": {
						"codeDepositCost": "177600",
						"executionCost": "220",
						"totalCost": "177820"
					},
					"external": {
						"attack(address)": "infinite",
						"guessing()": "2446"
					}
				},
				"methodIdentifiers": {
					"attack(address)": "d018db3e",
					"guessing()": "79e41b39"
				}
			},
			"userdoc": {
				"kind": "user",
				"methods": {},
				"version": 1
			}
		}
	}
}