{
	"CoinFlip/attackCoinFlip.sol": {
		"AttackCoinFlip": {
			"abi": [
				{
					"inputs": [
						{
							"internalType": "address",
							"name": "_contract",
							"type": "address"
						}
					],
					"name": "attack",
					"outputs": [],
					"stateMutability": "nonpayable",
					"type": "function"
				},
				{
					"inputs": [],
					"name": "guessTheCurrentBlockValue",
					"outputs": [
						{
							"internalType": "uint256",
							"name": "",
							"type": "uint256"
						}
					],
					"stateMutability": "nonpayable",
					"type": "function"
				},
				{
					"inputs": [],
					"name": "guessing",
					"outputs": [
						{
							"internalType": "uint256",
							"name": "",
							"type": "uint256"
						}
					],
					"stateMutability": "view",
					"type": "function"
				}
			],
			"devdoc": {
				"kind": "dev",
				"methods": {},
				"version": 1
			},
			"evm": {
				"assembly": "    /* \"CoinFlip/attackCoinFlip.sol\":63:484  contract AttackCoinFlip{... */\n  mstore(0x40, 0x80)\n  callvalue\n  dup1\n  iszero\n  tag_1\n  jumpi\n  0x00\n  dup1\n  revert\ntag_1:\n  pop\n  dataSize(sub_0)\n  dup1\n  dataOffset(sub_0)\n  0x00\n  codecopy\n  0x00\n  return\nstop\n\nsub_0: assembly {\n        /* \"CoinFlip/attackCoinFlip.sol\":63:484  contract AttackCoinFlip{... */\n      mstore(0x40, 0x80)\n      callvalue\n      dup1\n      iszero\n      tag_1\n      jumpi\n      0x00\n      dup1\n      revert\n    tag_1:\n      pop\n      jumpi(tag_2, lt(calldatasize, 0x04))\n      shr(0xe0, calldataload(0x00))\n      dup1\n      0x79e41b39\n      eq\n      tag_3\n      jumpi\n      dup1\n      0x99b084bf\n      eq\n      tag_4\n      jumpi\n      dup1\n      0xd018db3e\n      eq\n      tag_5\n      jumpi\n    tag_2:\n      0x00\n      dup1\n      revert\n        /* \"CoinFlip/attackCoinFlip.sol\":126:149  uint256 public guessing */\n    tag_3:\n      tag_6\n      tag_7\n      jump\t// in\n    tag_6:\n      mload(0x40)\n      tag_8\n      swap2\n      swap1\n      tag_9\n      jump\t// in\n    tag_8:\n      mload(0x40)\n      dup1\n      swap2\n      sub\n      swap1\n      return\n        /* \"CoinFlip/attackCoinFlip.sol\":156:415  function guessTheCurrentBlockValue() public returns(uint256){... */\n    tag_4:\n      tag_10\n      tag_11\n      jump\t// in\n    tag_10:\n      mload(0x40)\n      tag_12\n      swap2\n      swap1\n      tag_9\n      jump\t// in\n    tag_12:\n      mload(0x40)\n      dup1\n      swap2\n      sub\n      swap1\n      return\n        /* \"CoinFlip/attackCoinFlip.sol\":421:481  function attack(address _contract) public {... */\n    tag_5:\n      tag_13\n      0x04\n      dup1\n      calldatasize\n      sub\n      dup2\n      add\n      swap1\n      tag_14\n      swap2\n      swap1\n      tag_15\n      jump\t// in\n    tag_14:\n      tag_16\n      jump\t// in\n    tag_13:\n      stop\n        /* \"CoinFlip/attackCoinFlip.sol\":126:149  uint256 public guessing */\n    tag_7:\n      sload(0x00)\n      dup2\n      jump\t// out\n        /* \"CoinFlip/attackCoinFlip.sol\":156:415  function guessTheCurrentBlockValue() public returns(uint256){... */\n    tag_11:\n        /* \"CoinFlip/attackCoinFlip.sol\":208:215  uint256 */\n      0x00\n        /* \"CoinFlip/attackCoinFlip.sol\":227:247  uint256 tmpOfCurrent */\n      dup1\n        /* \"CoinFlip/attackCoinFlip.sol\":268:280  block.number */\n      number\n        /* \"CoinFlip/attackCoinFlip.sol\":258:281  blockhash(block.number) */\n      blockhash\n        /* \"CoinFlip/attackCoinFlip.sol\":250:282  uint256(blockhash(block.number)) */\n      0x00\n      shr\n        /* \"CoinFlip/attackCoinFlip.sol\":227:282  uint256 tmpOfCurrent = uint256(blockhash(block.number)) */\n      swap1\n      pop\n        /* \"CoinFlip/attackCoinFlip.sol\":304:399  tmpOfCurrent.div(57896044618658097711785492504343953926634992332820282019728792003956564819968) */\n      tag_18\n        /* \"CoinFlip/attackCoinFlip.sol\":321:398  57896044618658097711785492504343953926634992332820282019728792003956564819968 */\n      0x8000000000000000000000000000000000000000000000000000000000000000\n        /* \"CoinFlip/attackCoinFlip.sol\":304:316  tmpOfCurrent */\n      dup3\n        /* \"CoinFlip/attackCoinFlip.sol\":304:320  tmpOfCurrent.div */\n      tag_19\n      swap1\n        /* \"CoinFlip/attackCoinFlip.sol\":304:399  tmpOfCurrent.div(57896044618658097711785492504343953926634992332820282019728792003956564819968) */\n      swap2\n      swap1\n      0xffffffff\n      and\n      jump\t// in\n    tag_18:\n        /* \"CoinFlip/attackCoinFlip.sol\":293:301  guessing */\n      0x00\n        /* \"CoinFlip/attackCoinFlip.sol\":293:399  guessing = tmpOfCurrent.div(57896044618658097711785492504343953926634992332820282019728792003956564819968) */\n      dup2\n      swap1\n      sstore\n      pop\n        /* \"CoinFlip/attackCoinFlip.sol\":216:415  {... */\n      pop\n        /* \"CoinFlip/attackCoinFlip.sol\":156:415  function guessTheCurrentBlockValue() public returns(uint256){... */\n      swap1\n      jump\t// out\n        /* \"CoinFlip/attackCoinFlip.sol\":421:481  function attack(address _contract) public {... */\n    tag_16:\n      pop\n      jump\t// out\n        /* \"Fallback/SafeMath.sol\":3969:4067  function div(uint256 a, uint256 b) internal pure returns (uint256) {... */\n    tag_19:\n        /* \"Fallback/SafeMath.sol\":4027:4034  uint256 */\n      0x00\n        /* \"Fallback/SafeMath.sol\":4058:4059  b */\n      dup2\n        /* \"Fallback/SafeMath.sol\":4054:4055  a */\n      dup4\n        /* \"Fallback/SafeMath.sol\":4054:4059  a / b */\n      tag_22\n      swap2\n      swap1\n      tag_23\n      jump\t// in\n    tag_22:\n        /* \"Fallback/SafeMath.sol\":4047:4059  return a / b */\n      swap1\n      pop\n        /* \"Fallback/SafeMath.sol\":3969:4067  function div(uint256 a, uint256 b) internal pure returns (uint256) {... */\n      swap3\n      swap2\n      pop\n      pop\n      jump\t// out\n        /* \"#utility.yul\":7:84   */\n    tag_24:\n        /* \"#utility.yul\":44:51   */\n      0x00\n        /* \"#utility.yul\":73:78   */\n      dup2\n        /* \"#utility.yul\":62:78   */\n      swap1\n      pop\n        /* \"#utility.yul\":7:84   */\n      swap2\n      swap1\n      pop\n      jump\t// out\n        /* \"#utility.yul\":90:208   */\n    tag_25:\n        /* \"#utility.yul\":177:201   */\n      tag_38\n        /* \"#utility.yul\":195:200   */\n      dup2\n        /* \"#utility.yul\":177:201   */\n      tag_24\n      jump\t// in\n    tag_38:\n        /* \"#utility.yul\":172:175   */\n      dup3\n        /* \"#utility.yul\":165:202   */\n      mstore\n        /* \"#utility.yul\":90:208   */\n      pop\n      pop\n      jump\t// out\n        /* \"#utility.yul\":214:436   */\n    tag_9:\n        /* \"#utility.yul\":307:311   */\n      0x00\n        /* \"#utility.yul\":345:347   */\n      0x20\n        /* \"#utility.yul\":334:343   */\n      dup3\n        /* \"#utility.yul\":330:348   */\n      add\n        /* \"#utility.yul\":322:348   */\n      swap1\n      pop\n        /* \"#utility.yul\":358:429   */\n      tag_40\n        /* \"#utility.yul\":426:427   */\n      0x00\n        /* \"#utility.yul\":415:424   */\n      dup4\n        /* \"#utility.yul\":411:428   */\n      add\n        /* \"#utility.yul\":402:408   */\n      dup5\n        /* \"#utility.yul\":358:429   */\n      tag_25\n      jump\t// in\n    tag_40:\n        /* \"#utility.yul\":214:436   */\n      swap3\n      swap2\n      pop\n      pop\n      jump\t// out\n        /* \"#utility.yul\":523:640   */\n    tag_27:\n        /* \"#utility.yul\":632:633   */\n      0x00\n        /* \"#utility.yul\":629:630   */\n      dup1\n        /* \"#utility.yul\":622:634   */\n      revert\n        /* \"#utility.yul\":769:895   */\n    tag_29:\n        /* \"#utility.yul\":806:813   */\n      0x00\n        /* \"#utility.yul\":846:888   */\n      0xffffffffffffffffffffffffffffffffffffffff\n        /* \"#utility.yul\":839:844   */\n      dup3\n        /* \"#utility.yul\":835:889   */\n      and\n        /* \"#utility.yul\":824:889   */\n      swap1\n      pop\n        /* \"#utility.yul\":769:895   */\n      swap2\n      swap1\n      pop\n      jump\t// out\n        /* \"#utility.yul\":901:997   */\n    tag_30:\n        /* \"#utility.yul\":938:945   */\n      0x00\n        /* \"#utility.yul\":967:991   */\n      tag_46\n        /* \"#utility.yul\":985:990   */\n      dup3\n        /* \"#utility.yul\":967:991   */\n      tag_29\n      jump\t// in\n    tag_46:\n        /* \"#utility.yul\":956:991   */\n      swap1\n      pop\n        /* \"#utility.yul\":901:997   */\n      swap2\n      swap1\n      pop\n      jump\t// out\n        /* \"#utility.yul\":1003:1125   */\n    tag_31:\n        /* \"#utility.yul\":1076:1100   */\n      tag_48\n        /* \"#utility.yul\":1094:1099   */\n      dup2\n        /* \"#utility.yul\":1076:1100   */\n      tag_30\n      jump\t// in\n    tag_48:\n        /* \"#utility.yul\":1069:1074   */\n      dup2\n        /* \"#utility.yul\":1066:1101   */\n      eq\n        /* \"#utility.yul\":1056:1119   */\n      tag_49\n      jumpi\n        /* \"#utility.yul\":1115:1116   */\n      0x00\n        /* \"#utility.yul\":1112:1113   */\n      dup1\n        /* \"#utility.yul\":1105:1117   */\n      revert\n        /* \"#utility.yul\":1056:1119   */\n    tag_49:\n        /* \"#utility.yul\":1003:1125   */\n      pop\n      jump\t// out\n        /* \"#utility.yul\":1131:1270   */\n    tag_32:\n        /* \"#utility.yul\":1177:1182   */\n      0x00\n        /* \"#utility.yul\":1215:1221   */\n      dup2\n        /* \"#utility.yul\":1202:1222   */\n      calldataload\n        /* \"#utility.yul\":1193:1222   */\n      swap1\n      pop\n        /* \"#utility.yul\":1231:1264   */\n      tag_51\n        /* \"#utility.yul\":1258:1263   */\n      dup2\n        /* \"#utility.yul\":1231:1264   */\n      tag_31\n      jump\t// in\n    tag_51:\n        /* \"#utility.yul\":1131:1270   */\n      swap3\n      swap2\n      pop\n      pop\n      jump\t// out\n        /* \"#utility.yul\":1276:1605   */\n    tag_15:\n        /* \"#utility.yul\":1335:1341   */\n      0x00\n        /* \"#utility.yul\":1384:1386   */\n      0x20\n        /* \"#utility.yul\":1372:1381   */\n      dup3\n        /* \"#utility.yul\":1363:1370   */\n      dup5\n        /* \"#utility.yul\":1359:1382   */\n      sub\n        /* \"#utility.yul\":1355:1387   */\n      slt\n        /* \"#utility.yul\":1352:1471   */\n      iszero\n      tag_53\n      jumpi\n        /* \"#utility.yul\":1390:1469   */\n      tag_54\n      tag_27\n      jump\t// in\n    tag_54:\n        /* \"#utility.yul\":1352:1471   */\n    tag_53:\n        /* \"#utility.yul\":1510:1511   */\n      0x00\n        /* \"#utility.yul\":1535:1588   */\n      tag_55\n        /* \"#utility.yul\":1580:1587   */\n      dup5\n        /* \"#utility.yul\":1571:1577   */\n      dup3\n        /* \"#utility.yul\":1560:1569   */\n      dup6\n        /* \"#utility.yul\":1556:1578   */\n      add\n        /* \"#utility.yul\":1535:1588   */\n      tag_32\n      jump\t// in\n    tag_55:\n        /* \"#utility.yul\":1525:1588   */\n      swap2\n      pop\n        /* \"#utility.yul\":1481:1598   */\n      pop\n        /* \"#utility.yul\":1276:1605   */\n      swap3\n      swap2\n      pop\n      pop\n      jump\t// out\n        /* \"#utility.yul\":1611:1791   */\n    tag_33:\n        /* \"#utility.yul\":1659:1736   */\n      0x4e487b7100000000000000000000000000000000000000000000000000000000\n        /* \"#utility.yul\":1656:1657   */\n      0x00\n        /* \"#utility.yul\":1649:1737   */\n      mstore\n        /* \"#utility.yul\":1756:1760   */\n      0x12\n        /* \"#utility.yul\":1753:1754   */\n      0x04\n        /* \"#utility.yul\":1746:1761   */\n      mstore\n        /* \"#utility.yul\":1780:1784   */\n      0x24\n        /* \"#utility.yul\":1777:1778   */\n      0x00\n        /* \"#utility.yul\":1770:1785   */\n      revert\n        /* \"#utility.yul\":1983:2168   */\n    tag_23:\n        /* \"#utility.yul\":2023:2024   */\n      0x00\n        /* \"#utility.yul\":2040:2060   */\n      tag_59\n        /* \"#utility.yul\":2058:2059   */\n      dup3\n        /* \"#utility.yul\":2040:2060   */\n      tag_24\n      jump\t// in\n    tag_59:\n        /* \"#utility.yul\":2035:2060   */\n      swap2\n      pop\n        /* \"#utility.yul\":2074:2094   */\n      tag_60\n        /* \"#utility.yul\":2092:2093   */\n      dup4\n        /* \"#utility.yul\":2074:2094   */\n      tag_24\n      jump\t// in\n    tag_60:\n        /* \"#utility.yul\":2069:2094   */\n      swap3\n      pop\n        /* \"#utility.yul\":2113:2114   */\n      dup3\n        /* \"#utility.yul\":2103:2138   */\n      tag_61\n      jumpi\n        /* \"#utility.yul\":2118:2136   */\n      tag_62\n      tag_33\n      jump\t// in\n    tag_62:\n        /* \"#utility.yul\":2103:2138   */\n    tag_61:\n        /* \"#utility.yul\":2160:2161   */\n      dup3\n        /* \"#utility.yul\":2157:2158   */\n      dup3\n        /* \"#utility.yul\":2153:2162   */\n      div\n        /* \"#utility.yul\":2148:2162   */\n      swap1\n      pop\n        /* \"#utility.yul\":1983:2168   */\n      swap3\n      swap2\n      pop\n      pop\n      jump\t// out\n\n    auxdata: 0xa264697066735822122036a4ee82fbfe84d3d1710baf072ebef2d3190ce08e0119f30daedfe46011e16764736f6c634300080d0033\n}\n",
				"bytecode": {
					"linkReferences": {},
					"object": "608060405234801561001057600080fd5b5061025e806100206000396000f3fe608060405234801561001057600080fd5b50600436106100415760003560e01c806379e41b391461004657806399b084bf14610064578063d018db3e14610082575b600080fd5b61004e61009e565b60405161005b919061011d565b60405180910390f35b61006c6100a4565b604051610079919061011d565b60405180910390f35b61009c6004803603810190610097919061019b565b6100eb565b005b60005481565b600080434060001c90506100e17f8000000000000000000000000000000000000000000000000000000000000000826100ee90919063ffffffff16565b6000819055505090565b50565b600081836100fc91906101f7565b905092915050565b6000819050919050565b61011781610104565b82525050565b6000602082019050610132600083018461010e565b92915050565b600080fd5b600073ffffffffffffffffffffffffffffffffffffffff82169050919050565b60006101688261013d565b9050919050565b6101788161015d565b811461018357600080fd5b50565b6000813590506101958161016f565b92915050565b6000602082840312156101b1576101b0610138565b5b60006101bf84828501610186565b91505092915050565b7f4e487b7100000000000000000000000000000000000000000000000000000000600052601260045260246000fd5b600061020282610104565b915061020d83610104565b92508261021d5761021c6101c8565b5b82820490509291505056fea264697066735822122036a4ee82fbfe84d3d1710baf072ebef2d3190ce08e0119f30daedfe46011e16764736f6c634300080d0033",
					"opcodes": "PUSH1 0x80 PUSH1 0x40 MSTORE CALLVALUE DUP1 ISZERO PUSH2 0x10 JUMPI PUSH1 0x0 DUP1 REVERT JUMPDEST POP PUSH2 0x25E DUP1 PUSH2 0x20 PUSH1 0x0 CODECOPY PUSH1 0x0 RETURN INVALID PUSH1 0x80 PUSH1 0x40 MSTORE CALLVALUE DUP1 ISZERO PUSH2 0x10 JUMPI PUSH1 0x0 DUP1 REVERT JUMPDEST POP PUSH1 0x4 CALLDATASIZE LT PUSH2 0x41 JUMPI PUSH1 0x0 CALLDATALOAD PUSH1 0xE0 SHR DUP1 PUSH4 0x79E41B39 EQ PUSH2 0x46 JUMPI DUP1 PUSH4 0x99B084BF EQ PUSH2 0x64 JUMPI DUP1 PUSH4 0xD018DB3E EQ PUSH2 0x82 JUMPI JUMPDEST PUSH1 0x0 DUP1 REVERT JUMPDEST PUSH2 0x4E PUSH2 0x9E JUMP JUMPDEST PUSH1 0x40 MLOAD PUSH2 0x5B SWAP2 SWAP1 PUSH2 0x11D JUMP JUMPDEST PUSH1 0x40 MLOAD DUP1 SWAP2 SUB SWAP1 RETURN JUMPDEST PUSH2 0x6C PUSH2 0xA4 JUMP JUMPDEST PUSH1 0x40 MLOAD PUSH2 0x79 SWAP2 SWAP1 PUSH2 0x11D JUMP JUMPDEST PUSH1 0x40 MLOAD DUP1 SWAP2 SUB SWAP1 RETURN JUMPDEST PUSH2 0x9C PUSH1 0x4 DUP1 CALLDATASIZE SUB DUP2 ADD SWAP1 PUSH2 0x97 SWAP2 SWAP1 PUSH2 0x19B JUMP JUMPDEST PUSH2 0xEB JUMP JUMPDEST STOP JUMPDEST PUSH1 0x0 SLOAD DUP2 JUMP JUMPDEST PUSH1 0x0 DUP1 NUMBER BLOCKHASH PUSH1 0x0 SHR SWAP1 POP PUSH2 0xE1 PUSH32 0x8000000000000000000000000000000000000000000000000000000000000000 DUP3 PUSH2 0xEE SWAP1 SWAP2 SWAP1 PUSH4 0xFFFFFFFF AND JUMP JUMPDEST PUSH1 0x0 DUP2 SWAP1 SSTORE POP POP SWAP1 JUMP JUMPDEST POP JUMP JUMPDEST PUSH1 0x0 DUP2 DUP4 PUSH2 0xFC SWAP2 SWAP1 PUSH2 0x1F7 JUMP JUMPDEST SWAP1 POP SWAP3 SWAP2 POP POP JUMP JUMPDEST PUSH1 0x0 DUP2 SWAP1 POP SWAP2 SWAP1 POP JUMP JUMPDEST PUSH2 0x117 DUP2 PUSH2 0x104 JUMP JUMPDEST DUP3 MSTORE POP POP JUMP JUMPDEST PUSH1 0x0 PUSH1 0x20 DUP3 ADD SWAP1 POP PUSH2 0x132 PUSH1 0x0 DUP4 ADD DUP5 PUSH2 0x10E JUMP JUMPDEST SWAP3 SWAP2 POP POP JUMP JUMPDEST PUSH1 0x0 DUP1 REVERT JUMPDEST PUSH1 0x0 PUSH20 0xFFFFFFFFFFFFFFFFFFFFFFFFFFFFFFFFFFFFFFFF DUP3 AND SWAP1 POP SWAP2 SWAP1 POP JUMP JUMPDEST PUSH1 0x0 PUSH2 0x168 DUP3 PUSH2 0x13D JUMP JUMPDEST SWAP1 POP SWAP2 SWAP1 POP JUMP JUMPDEST PUSH2 0x178 DUP2 PUSH2 0x15D JUMP JUMPDEST DUP2 EQ PUSH2 0x183 JUMPI PUSH1 0x0 DUP1 REVERT JUMPDEST POP JUMP JUMPDEST PUSH1 0x0 DUP2 CALLDATALOAD SWAP1 POP PUSH2 0x195 DUP2 PUSH2 0x16F JUMP JUMPDEST SWAP3 SWAP2 POP POP JUMP JUMPDEST PUSH1 0x0 PUSH1 0x20 DUP3 DUP5 SUB SLT ISZERO PUSH2 0x1B1 JUMPI PUSH2 0x1B0 PUSH2 0x138 JUMP JUMPDEST JUMPDEST PUSH1 0x0 PUSH2 0x1BF DUP5 DUP3 DUP6 ADD PUSH2 0x186 JUMP JUMPDEST SWAP2 POP POP SWAP3 SWAP2 POP POP JUMP JUMPDEST PUSH32 0x4E487B7100000000000000000000000000000000000000000000000000000000 PUSH1 0x0 MSTORE PUSH1 0x12 PUSH1 0x4 MSTORE PUSH1 0x24 PUSH1 0x0 REVERT JUMPDEST PUSH1 0x0 PUSH2 0x202 DUP3 PUSH2 0x104 JUMP JUMPDEST SWAP2 POP PUSH2 0x20D DUP4 PUSH2 0x104 JUMP JUMPDEST SWAP3 POP DUP3 PUSH2 0x21D JUMPI PUSH2 0x21C PUSH2 0x1C8 JUMP JUMPDEST JUMPDEST DUP3 DUP3 DIV SWAP1 POP SWAP3 SWAP2 POP POP JUMP INVALID LOG2 PUSH5 0x6970667358 0x22 SLT KECCAK256 CALLDATASIZE LOG4 0xEE DUP3 0xFB INVALID DUP5 0xD3 0xD1 PUSH18 0xBAF072EBEF2D3190CE08E0119F30DAEDFE4 PUSH1 0x11 0xE1 PUSH8 0x64736F6C63430008 0xD STOP CALLER "
				},
				"gasEstimates": {
					"creation": {
						"codeDepositCost": "121200",
						"executionCost": "165",
						"totalCost": "121365"
					},
					"external": {
						"attack(address)": "477",
						"guessTheCurrentBlockValue()": "infinite",
						"guessing()": "2407"
					}
				},
				"methodIdentifiers": {
					"attack(address)": "d018db3e",
					"guessTheCurrentBlockValue()": "99b084bf",
					"guessing()": "79e41b39"
				}
			},
			"userdoc": {
				"kind": "user",
				"methods": {},
				"version": 1
			}
		}
	}
}