{
	"CoinFlip/CoinFlip.sol": {
		"CoinFlip": {
			"abi": [
				{
					"inputs": [],
					"stateMutability": "nonpayable",
					"type": "constructor"
				},
				{
					"inputs": [],
					"name": "consecutiveWins",
					"outputs": [
						{
							"internalType": "uint256",
							"name": "",
							"type": "uint256"
						}
					],
					"stateMutability": "view",
					"type": "function"
				},
				{
					"inputs": [
						{
							"internalType": "bool",
							"name": "_guess",
							"type": "bool"
						}
					],
					"name": "flip",
					"outputs": [
						{
							"internalType": "bool",
							"name": "",
							"type": "bool"
						}
					],
					"stateMutability": "nonpayable",
					"type": "function"
				}
			],
			"devdoc": {
				"kind": "dev",
				"methods": {},
				"version": 1
			},
			"evm": {
				"assembly": "    /* \"CoinFlip/CoinFlip.sol\":65:793  contract CoinFlip {... */\n  mstore(0x40, 0x80)\n    /* \"CoinFlip/CoinFlip.sol\":194:271  57896044618658097711785492504343953926634992332820282019728792003956564819968 */\n  0x8000000000000000000000000000000000000000000000000000000000000000\n    /* \"CoinFlip/CoinFlip.sol\":177:271  uint256 FACTOR = 57896044618658097711785492504343953926634992332820282019728792003956564819968 */\n  0x02\n  sstore\n    /* \"CoinFlip/CoinFlip.sol\":278:331  constructor() public {... */\n  callvalue\n  dup1\n  iszero\n  tag_1\n  jumpi\n  0x00\n  dup1\n  revert\ntag_1:\n  pop\n    /* \"CoinFlip/CoinFlip.sol\":324:325  0 */\n  0x00\n    /* \"CoinFlip/CoinFlip.sol\":306:321  consecutiveWins */\n  dup1\n    /* \"CoinFlip/CoinFlip.sol\":306:325  consecutiveWins = 0 */\n  dup2\n  swap1\n  sstore\n  pop\n    /* \"CoinFlip/CoinFlip.sol\":65:793  contract CoinFlip {... */\n  dataSize(sub_0)\n  dup1\n  dataOffset(sub_0)\n  0x00\n  codecopy\n  0x00\n  return\nstop\n\nsub_0: assembly {\n        /* \"CoinFlip/CoinFlip.sol\":65:793  contract CoinFlip {... */\n      mstore(0x40, 0x80)\n      callvalue\n      dup1\n      iszero\n      tag_1\n      jumpi\n      0x00\n      dup1\n      revert\n    tag_1:\n      pop\n      jumpi(tag_2, lt(calldatasize, 0x04))\n      shr(0xe0, calldataload(0x00))\n      dup1\n      0x1d263f67\n      eq\n      tag_3\n      jumpi\n      dup1\n      0xe6f334d7\n      eq\n      tag_4\n      jumpi\n    tag_2:\n      0x00\n      dup1\n      revert\n        /* \"CoinFlip/CoinFlip.sol\":337:790  function flip(bool _guess) public returns (bool) {... */\n    tag_3:\n      tag_5\n      0x04\n      dup1\n      calldatasize\n      sub\n      dup2\n      add\n      swap1\n      tag_6\n      swap2\n      swap1\n      tag_7\n      jump\t// in\n    tag_6:\n      tag_8\n      jump\t// in\n    tag_5:\n      mload(0x40)\n      tag_9\n      swap2\n      swap1\n      tag_10\n      jump\t// in\n    tag_9:\n      mload(0x40)\n      dup1\n      swap2\n      sub\n      swap1\n      return\n        /* \"CoinFlip/CoinFlip.sol\":121:151  uint256 public consecutiveWins */\n    tag_4:\n      tag_11\n      tag_12\n      jump\t// in\n    tag_11:\n      mload(0x40)\n      tag_13\n      swap2\n      swap1\n      tag_14\n      jump\t// in\n    tag_13:\n      mload(0x40)\n      dup1\n      swap2\n      sub\n      swap1\n      return\n        /* \"CoinFlip/CoinFlip.sol\":337:790  function flip(bool _guess) public returns (bool) {... */\n    tag_8:\n        /* \"CoinFlip/CoinFlip.sol\":380:384  bool */\n      0x00\n        /* \"CoinFlip/CoinFlip.sol\":393:411  uint256 blockValue */\n      dup1\n        /* \"CoinFlip/CoinFlip.sol\":432:451  block.number.sub(1) */\n      tag_16\n        /* \"CoinFlip/CoinFlip.sol\":449:450  1 */\n      0x01\n        /* \"CoinFlip/CoinFlip.sol\":432:444  block.number */\n      number\n        /* \"CoinFlip/CoinFlip.sol\":432:448  block.number.sub */\n      tag_17\n      swap1\n        /* \"CoinFlip/CoinFlip.sol\":432:451  block.number.sub(1) */\n      swap2\n      swap1\n      0xffffffff\n      and\n      jump\t// in\n    tag_16:\n        /* \"CoinFlip/CoinFlip.sol\":422:452  blockhash(block.number.sub(1)) */\n      blockhash\n        /* \"CoinFlip/CoinFlip.sol\":414:453  uint256(blockhash(block.number.sub(1))) */\n      0x00\n      shr\n        /* \"CoinFlip/CoinFlip.sol\":393:453  uint256 blockValue = uint256(blockhash(block.number.sub(1))) */\n      swap1\n      pop\n        /* \"CoinFlip/CoinFlip.sol\":478:488  blockValue */\n      dup1\n        /* \"CoinFlip/CoinFlip.sol\":466:474  lastHash */\n      sload(0x01)\n        /* \"CoinFlip/CoinFlip.sol\":466:488  lastHash == blockValue */\n      sub\n        /* \"CoinFlip/CoinFlip.sol\":462:515  if (lastHash == blockValue) {... */\n      tag_18\n      jumpi\n        /* \"CoinFlip/CoinFlip.sol\":499:507  revert() */\n      0x00\n      dup1\n      revert\n        /* \"CoinFlip/CoinFlip.sol\":462:515  if (lastHash == blockValue) {... */\n    tag_18:\n        /* \"CoinFlip/CoinFlip.sol\":534:544  blockValue */\n      dup1\n        /* \"CoinFlip/CoinFlip.sol\":523:531  lastHash */\n      0x01\n        /* \"CoinFlip/CoinFlip.sol\":523:544  lastHash = blockValue */\n      dup2\n      swap1\n      sstore\n      pop\n        /* \"CoinFlip/CoinFlip.sol\":551:567  uint256 coinFlip */\n      0x00\n        /* \"CoinFlip/CoinFlip.sol\":570:592  blockValue.div(FACTOR) */\n      tag_19\n        /* \"CoinFlip/CoinFlip.sol\":585:591  FACTOR */\n      sload(0x02)\n        /* \"CoinFlip/CoinFlip.sol\":570:580  blockValue */\n      dup4\n        /* \"CoinFlip/CoinFlip.sol\":570:584  blockValue.div */\n      tag_20\n      swap1\n        /* \"CoinFlip/CoinFlip.sol\":570:592  blockValue.div(FACTOR) */\n      swap2\n      swap1\n      0xffffffff\n      and\n      jump\t// in\n    tag_19:\n        /* \"CoinFlip/CoinFlip.sol\":551:592  uint256 coinFlip = blockValue.div(FACTOR) */\n      swap1\n      pop\n        /* \"CoinFlip/CoinFlip.sol\":599:608  bool side */\n      0x00\n        /* \"CoinFlip/CoinFlip.sol\":623:624  1 */\n      0x01\n        /* \"CoinFlip/CoinFlip.sol\":611:619  coinFlip */\n      dup3\n        /* \"CoinFlip/CoinFlip.sol\":611:624  coinFlip == 1 */\n      eq\n        /* \"CoinFlip/CoinFlip.sol\":611:639  coinFlip == 1 ? true : false */\n      tag_21\n      jumpi\n        /* \"CoinFlip/CoinFlip.sol\":634:639  false */\n      0x00\n        /* \"CoinFlip/CoinFlip.sol\":611:639  coinFlip == 1 ? true : false */\n      jump(tag_22)\n    tag_21:\n        /* \"CoinFlip/CoinFlip.sol\":627:631  true */\n      0x01\n        /* \"CoinFlip/CoinFlip.sol\":611:639  coinFlip == 1 ? true : false */\n    tag_22:\n        /* \"CoinFlip/CoinFlip.sol\":599:639  bool side = coinFlip == 1 ? true : false */\n      swap1\n      pop\n        /* \"CoinFlip/CoinFlip.sol\":660:666  _guess */\n      dup5\n        /* \"CoinFlip/CoinFlip.sol\":652:666  side == _guess */\n      iszero\n      iszero\n        /* \"CoinFlip/CoinFlip.sol\":652:656  side */\n      dup2\n        /* \"CoinFlip/CoinFlip.sol\":652:666  side == _guess */\n      iszero\n      iszero\n      sub\n        /* \"CoinFlip/CoinFlip.sol\":648:785  if (side == _guess) {... */\n      tag_23\n      jumpi\n        /* \"CoinFlip/CoinFlip.sol\":677:692  consecutiveWins */\n      0x00\n      dup1\n        /* \"CoinFlip/CoinFlip.sol\":677:694  consecutiveWins++ */\n      dup2\n      sload\n      dup1\n      swap3\n      swap2\n      swap1\n      tag_24\n      swap1\n      tag_25\n      jump\t// in\n    tag_24:\n      swap2\n      swap1\n      pop\n      sstore\n      pop\n        /* \"CoinFlip/CoinFlip.sol\":710:714  true */\n      0x01\n        /* \"CoinFlip/CoinFlip.sol\":703:714  return true */\n      swap4\n      pop\n      pop\n      pop\n      pop\n      jump(tag_15)\n        /* \"CoinFlip/CoinFlip.sol\":648:785  if (side == _guess) {... */\n    tag_23:\n        /* \"CoinFlip/CoinFlip.sol\":755:756  0 */\n      0x00\n        /* \"CoinFlip/CoinFlip.sol\":737:752  consecutiveWins */\n      dup1\n        /* \"CoinFlip/CoinFlip.sol\":737:756  consecutiveWins = 0 */\n      dup2\n      swap1\n      sstore\n      pop\n        /* \"CoinFlip/CoinFlip.sol\":772:777  false */\n      0x00\n        /* \"CoinFlip/CoinFlip.sol\":765:777  return false */\n      swap4\n      pop\n      pop\n      pop\n      pop\n        /* \"CoinFlip/CoinFlip.sol\":337:790  function flip(bool _guess) public returns (bool) {... */\n    tag_15:\n      swap2\n      swap1\n      pop\n      jump\t// out\n        /* \"CoinFlip/CoinFlip.sol\":121:151  uint256 public consecutiveWins */\n    tag_12:\n      sload(0x00)\n      dup2\n      jump\t// out\n        /* \"Fallback/SafeMath.sol\":3213:3311  function sub(uint256 a, uint256 b) internal pure returns (uint256) {... */\n    tag_17:\n        /* \"Fallback/SafeMath.sol\":3271:3278  uint256 */\n      0x00\n        /* \"Fallback/SafeMath.sol\":3302:3303  b */\n      dup2\n        /* \"Fallback/SafeMath.sol\":3298:3299  a */\n      dup4\n        /* \"Fallback/SafeMath.sol\":3298:3303  a - b */\n      tag_28\n      swap2\n      swap1\n      tag_29\n      jump\t// in\n    tag_28:\n        /* \"Fallback/SafeMath.sol\":3291:3303  return a - b */\n      swap1\n      pop\n        /* \"Fallback/SafeMath.sol\":3213:3311  function sub(uint256 a, uint256 b) internal pure returns (uint256) {... */\n      swap3\n      swap2\n      pop\n      pop\n      jump\t// out\n        /* \"Fallback/SafeMath.sol\":3969:4067  function div(uint256 a, uint256 b) internal pure returns (uint256) {... */\n    tag_20:\n        /* \"Fallback/SafeMath.sol\":4027:4034  uint256 */\n      0x00\n        /* \"Fallback/SafeMath.sol\":4058:4059  b */\n      dup2\n        /* \"Fallback/SafeMath.sol\":4054:4055  a */\n      dup4\n        /* \"Fallback/SafeMath.sol\":4054:4059  a / b */\n      tag_31\n      swap2\n      swap1\n      tag_32\n      jump\t// in\n    tag_31:\n        /* \"Fallback/SafeMath.sol\":4047:4059  return a / b */\n      swap1\n      pop\n        /* \"Fallback/SafeMath.sol\":3969:4067  function div(uint256 a, uint256 b) internal pure returns (uint256) {... */\n      swap3\n      swap2\n      pop\n      pop\n      jump\t// out\n        /* \"#utility.yul\":88:205   */\n    tag_34:\n        /* \"#utility.yul\":197:198   */\n      0x00\n        /* \"#utility.yul\":194:195   */\n      dup1\n        /* \"#utility.yul\":187:199   */\n      revert\n        /* \"#utility.yul\":334:424   */\n    tag_36:\n        /* \"#utility.yul\":368:375   */\n      0x00\n        /* \"#utility.yul\":411:416   */\n      dup2\n        /* \"#utility.yul\":404:417   */\n      iszero\n        /* \"#utility.yul\":397:418   */\n      iszero\n        /* \"#utility.yul\":386:418   */\n      swap1\n      pop\n        /* \"#utility.yul\":334:424   */\n      swap2\n      swap1\n      pop\n      jump\t// out\n        /* \"#utility.yul\":430:546   */\n    tag_37:\n        /* \"#utility.yul\":500:521   */\n      tag_50\n        /* \"#utility.yul\":515:520   */\n      dup2\n        /* \"#utility.yul\":500:521   */\n      tag_36\n      jump\t// in\n    tag_50:\n        /* \"#utility.yul\":493:498   */\n      dup2\n        /* \"#utility.yul\":490:522   */\n      eq\n        /* \"#utility.yul\":480:540   */\n      tag_51\n      jumpi\n        /* \"#utility.yul\":536:537   */\n      0x00\n        /* \"#utility.yul\":533:534   */\n      dup1\n        /* \"#utility.yul\":526:538   */\n      revert\n        /* \"#utility.yul\":480:540   */\n    tag_51:\n        /* \"#utility.yul\":430:546   */\n      pop\n      jump\t// out\n        /* \"#utility.yul\":552:685   */\n    tag_38:\n        /* \"#utility.yul\":595:600   */\n      0x00\n        /* \"#utility.yul\":633:639   */\n      dup2\n        /* \"#utility.yul\":620:640   */\n      calldataload\n        /* \"#utility.yul\":611:640   */\n      swap1\n      pop\n        /* \"#utility.yul\":649:679   */\n      tag_53\n        /* \"#utility.yul\":673:678   */\n      dup2\n        /* \"#utility.yul\":649:679   */\n      tag_37\n      jump\t// in\n    tag_53:\n        /* \"#utility.yul\":552:685   */\n      swap3\n      swap2\n      pop\n      pop\n      jump\t// out\n        /* \"#utility.yul\":691:1014   */\n    tag_7:\n        /* \"#utility.yul\":747:753   */\n      0x00\n        /* \"#utility.yul\":796:798   */\n      0x20\n        /* \"#utility.yul\":784:793   */\n      dup3\n        /* \"#utility.yul\":775:782   */\n      dup5\n        /* \"#utility.yul\":771:794   */\n      sub\n        /* \"#utility.yul\":767:799   */\n      slt\n        /* \"#utility.yul\":764:883   */\n      iszero\n      tag_55\n      jumpi\n        /* \"#utility.yul\":802:881   */\n      tag_56\n      tag_34\n      jump\t// in\n    tag_56:\n        /* \"#utility.yul\":764:883   */\n    tag_55:\n        /* \"#utility.yul\":922:923   */\n      0x00\n        /* \"#utility.yul\":947:997   */\n      tag_57\n        /* \"#utility.yul\":989:996   */\n      dup5\n        /* \"#utility.yul\":980:986   */\n      dup3\n        /* \"#utility.yul\":969:978   */\n      dup6\n        /* \"#utility.yul\":965:987   */\n      add\n        /* \"#utility.yul\":947:997   */\n      tag_38\n      jump\t// in\n    tag_57:\n        /* \"#utility.yul\":937:997   */\n      swap2\n      pop\n        /* \"#utility.yul\":893:1007   */\n      pop\n        /* \"#utility.yul\":691:1014   */\n      swap3\n      swap2\n      pop\n      pop\n      jump\t// out\n        /* \"#utility.yul\":1020:1129   */\n    tag_39:\n        /* \"#utility.yul\":1101:1122   */\n      tag_59\n        /* \"#utility.yul\":1116:1121   */\n      dup2\n        /* \"#utility.yul\":1101:1122   */\n      tag_36\n      jump\t// in\n    tag_59:\n        /* \"#utility.yul\":1096:1099   */\n      dup3\n        /* \"#utility.yul\":1089:1123   */\n      mstore\n        /* \"#utility.yul\":1020:1129   */\n      pop\n      pop\n      jump\t// out\n        /* \"#utility.yul\":1135:1345   */\n    tag_10:\n        /* \"#utility.yul\":1222:1226   */\n      0x00\n        /* \"#utility.yul\":1260:1262   */\n      0x20\n        /* \"#utility.yul\":1249:1258   */\n      dup3\n        /* \"#utility.yul\":1245:1263   */\n      add\n        /* \"#utility.yul\":1237:1263   */\n      swap1\n      pop\n        /* \"#utility.yul\":1273:1338   */\n      tag_61\n        /* \"#utility.yul\":1335:1336   */\n      0x00\n        /* \"#utility.yul\":1324:1333   */\n      dup4\n        /* \"#utility.yul\":1320:1337   */\n      add\n        /* \"#utility.yul\":1311:1317   */\n      dup5\n        /* \"#utility.yul\":1273:1338   */\n      tag_39\n      jump\t// in\n    tag_61:\n        /* \"#utility.yul\":1135:1345   */\n      swap3\n      swap2\n      pop\n      pop\n      jump\t// out\n        /* \"#utility.yul\":1351:1428   */\n    tag_40:\n        /* \"#utility.yul\":1388:1395   */\n      0x00\n        /* \"#utility.yul\":1417:1422   */\n      dup2\n        /* \"#utility.yul\":1406:1422   */\n      swap1\n      pop\n        /* \"#utility.yul\":1351:1428   */\n      swap2\n      swap1\n      pop\n      jump\t// out\n        /* \"#utility.yul\":1434:1552   */\n    tag_41:\n        /* \"#utility.yul\":1521:1545   */\n      tag_64\n        /* \"#utility.yul\":1539:1544   */\n      dup2\n        /* \"#utility.yul\":1521:1545   */\n      tag_40\n      jump\t// in\n    tag_64:\n        /* \"#utility.yul\":1516:1519   */\n      dup3\n        /* \"#utility.yul\":1509:1546   */\n      mstore\n        /* \"#utility.yul\":1434:1552   */\n      pop\n      pop\n      jump\t// out\n        /* \"#utility.yul\":1558:1780   */\n    tag_14:\n        /* \"#utility.yul\":1651:1655   */\n      0x00\n        /* \"#utility.yul\":1689:1691   */\n      0x20\n        /* \"#utility.yul\":1678:1687   */\n      dup3\n        /* \"#utility.yul\":1674:1692   */\n      add\n        /* \"#utility.yul\":1666:1692   */\n      swap1\n      pop\n        /* \"#utility.yul\":1702:1773   */\n      tag_66\n        /* \"#utility.yul\":1770:1771   */\n      0x00\n        /* \"#utility.yul\":1759:1768   */\n      dup4\n        /* \"#utility.yul\":1755:1772   */\n      add\n        /* \"#utility.yul\":1746:1752   */\n      dup5\n        /* \"#utility.yul\":1702:1773   */\n      tag_41\n      jump\t// in\n    tag_66:\n        /* \"#utility.yul\":1558:1780   */\n      swap3\n      swap2\n      pop\n      pop\n      jump\t// out\n        /* \"#utility.yul\":1786:1966   */\n    tag_42:\n        /* \"#utility.yul\":1834:1911   */\n      0x4e487b7100000000000000000000000000000000000000000000000000000000\n        /* \"#utility.yul\":1831:1832   */\n      0x00\n        /* \"#utility.yul\":1824:1912   */\n      mstore\n        /* \"#utility.yul\":1931:1935   */\n      0x11\n        /* \"#utility.yul\":1928:1929   */\n      0x04\n        /* \"#utility.yul\":1921:1936   */\n      mstore\n        /* \"#utility.yul\":1955:1959   */\n      0x24\n        /* \"#utility.yul\":1952:1953   */\n      0x00\n        /* \"#utility.yul\":1945:1960   */\n      revert\n        /* \"#utility.yul\":1972:2205   */\n    tag_25:\n        /* \"#utility.yul\":2011:2014   */\n      0x00\n        /* \"#utility.yul\":2034:2058   */\n      tag_69\n        /* \"#utility.yul\":2052:2057   */\n      dup3\n        /* \"#utility.yul\":2034:2058   */\n      tag_40\n      jump\t// in\n    tag_69:\n        /* \"#utility.yul\":2025:2058   */\n      swap2\n      pop\n        /* \"#utility.yul\":2080:2146   */\n      0xffffffffffffffffffffffffffffffffffffffffffffffffffffffffffffffff\n        /* \"#utility.yul\":2073:2078   */\n      dup3\n        /* \"#utility.yul\":2070:2147   */\n      sub\n        /* \"#utility.yul\":2067:2170   */\n      tag_70\n      jumpi\n        /* \"#utility.yul\":2150:2168   */\n      tag_71\n      tag_42\n      jump\t// in\n    tag_71:\n        /* \"#utility.yul\":2067:2170   */\n    tag_70:\n        /* \"#utility.yul\":2197:2198   */\n      0x01\n        /* \"#utility.yul\":2190:2195   */\n      dup3\n        /* \"#utility.yul\":2186:2199   */\n      add\n        /* \"#utility.yul\":2179:2199   */\n      swap1\n      pop\n        /* \"#utility.yul\":1972:2205   */\n      swap2\n      swap1\n      pop\n      jump\t// out\n        /* \"#utility.yul\":2211:2402   */\n    tag_29:\n        /* \"#utility.yul\":2251:2255   */\n      0x00\n        /* \"#utility.yul\":2271:2291   */\n      tag_73\n        /* \"#utility.yul\":2289:2290   */\n      dup3\n        /* \"#utility.yul\":2271:2291   */\n      tag_40\n      jump\t// in\n    tag_73:\n        /* \"#utility.yul\":2266:2291   */\n      swap2\n      pop\n        /* \"#utility.yul\":2305:2325   */\n      tag_74\n        /* \"#utility.yul\":2323:2324   */\n      dup4\n        /* \"#utility.yul\":2305:2325   */\n      tag_40\n      jump\t// in\n    tag_74:\n        /* \"#utility.yul\":2300:2325   */\n      swap3\n      pop\n        /* \"#utility.yul\":2344:2345   */\n      dup3\n        /* \"#utility.yul\":2341:2342   */\n      dup3\n        /* \"#utility.yul\":2338:2346   */\n      lt\n        /* \"#utility.yul\":2335:2369   */\n      iszero\n      tag_75\n      jumpi\n        /* \"#utility.yul\":2349:2367   */\n      tag_76\n      tag_42\n      jump\t// in\n    tag_76:\n        /* \"#utility.yul\":2335:2369   */\n    tag_75:\n        /* \"#utility.yul\":2394:2395   */\n      dup3\n        /* \"#utility.yul\":2391:2392   */\n      dup3\n        /* \"#utility.yul\":2387:2396   */\n      sub\n        /* \"#utility.yul\":2379:2396   */\n      swap1\n      pop\n        /* \"#utility.yul\":2211:2402   */\n      swap3\n      swap2\n      pop\n      pop\n      jump\t// out\n        /* \"#utility.yul\":2408:2588   */\n    tag_43:\n        /* \"#utility.yul\":2456:2533   */\n      0x4e487b7100000000000000000000000000000000000000000000000000000000\n        /* \"#utility.yul\":2453:2454   */\n      0x00\n        /* \"#utility.yul\":2446:2534   */\n      mstore\n        /* \"#utility.yul\":2553:2557   */\n      0x12\n        /* \"#utility.yul\":2550:2551   */\n      0x04\n        /* \"#utility.yul\":2543:2558   */\n      mstore\n        /* \"#utility.yul\":2577:2581   */\n      0x24\n        /* \"#utility.yul\":2574:2575   */\n      0x00\n        /* \"#utility.yul\":2567:2582   */\n      revert\n        /* \"#utility.yul\":2594:2779   */\n    tag_32:\n        /* \"#utility.yul\":2634:2635   */\n      0x00\n        /* \"#utility.yul\":2651:2671   */\n      tag_79\n        /* \"#utility.yul\":2669:2670   */\n      dup3\n        /* \"#utility.yul\":2651:2671   */\n      tag_40\n      jump\t// in\n    tag_79:\n        /* \"#utility.yul\":2646:2671   */\n      swap2\n      pop\n        /* \"#utility.yul\":2685:2705   */\n      tag_80\n        /* \"#utility.yul\":2703:2704   */\n      dup4\n        /* \"#utility.yul\":2685:2705   */\n      tag_40\n      jump\t// in\n    tag_80:\n        /* \"#utility.yul\":2680:2705   */\n      swap3\n      pop\n        /* \"#utility.yul\":2724:2725   */\n      dup3\n        /* \"#utility.yul\":2714:2749   */\n      tag_81\n      jumpi\n        /* \"#utility.yul\":2729:2747   */\n      tag_82\n      tag_43\n      jump\t// in\n    tag_82:\n        /* \"#utility.yul\":2714:2749   */\n    tag_81:\n        /* \"#utility.yul\":2771:2772   */\n      dup3\n        /* \"#utility.yul\":2768:2769   */\n      dup3\n        /* \"#utility.yul\":2764:2773   */\n      div\n        /* \"#utility.yul\":2759:2773   */\n      swap1\n      pop\n        /* \"#utility.yul\":2594:2779   */\n      swap3\n      swap2\n      pop\n      pop\n      jump\t// out\n\n    auxdata: 0xa2646970667358221220482a8f1b0bdf0f239afa5679974bb9be95f3f3c7b90e3def45056861dddd664664736f6c634300080d0033\n}\n",
				"bytecode": {
					"linkReferences": {},
					"object": "60806040527f800000000000000000000000000000000000000000000000000000000000000060025534801561003457600080fd5b50600080819055506103678061004b6000396000f3fe608060405234801561001057600080fd5b50600436106100365760003560e01c80631d263f671461003b578063e6f334d71461006b575b600080fd5b6100556004803603810190610050919061019b565b610089565b60405161006291906101d7565b60405180910390f35b61007361012c565b604051610080919061020b565b60405180910390f35b6000806100a060014361013290919063ffffffff16565b4060001c905080600154036100b457600080fd5b8060018190555060006100d26002548361014890919063ffffffff16565b90506000600182146100e55760006100e8565b60015b9050841515811515036101185760008081548092919061010790610255565b919050555060019350505050610127565b60008081905550600093505050505b919050565b60005481565b60008183610140919061029d565b905092915050565b600081836101569190610300565b905092915050565b600080fd5b60008115159050919050565b61017881610163565b811461018357600080fd5b50565b6000813590506101958161016f565b92915050565b6000602082840312156101b1576101b061015e565b5b60006101bf84828501610186565b91505092915050565b6101d181610163565b82525050565b60006020820190506101ec60008301846101c8565b92915050565b6000819050919050565b610205816101f2565b82525050565b600060208201905061022060008301846101fc565b92915050565b7f4e487b7100000000000000000000000000000000000000000000000000000000600052601160045260246000fd5b6000610260826101f2565b91507fffffffffffffffffffffffffffffffffffffffffffffffffffffffffffffffff820361029257610291610226565b5b600182019050919050565b60006102a8826101f2565b91506102b3836101f2565b9250828210156102c6576102c5610226565b5b828203905092915050565b7f4e487b7100000000000000000000000000000000000000000000000000000000600052601260045260246000fd5b600061030b826101f2565b9150610316836101f2565b925082610326576103256102d1565b5b82820490509291505056fea2646970667358221220482a8f1b0bdf0f239afa5679974bb9be95f3f3c7b90e3def45056861dddd664664736f6c634300080d0033",
					"opcodes": "PUSH1 0x80 PUSH1 0x40 MSTORE PUSH32 0x8000000000000000000000000000000000000000000000000000000000000000 PUSH1 0x2 SSTORE CALLVALUE DUP1 ISZERO PUSH2 0x34 JUMPI PUSH1 0x0 DUP1 REVERT JUMPDEST POP PUSH1 0x0 DUP1 DUP2 SWAP1 SSTORE POP PUSH2 0x367 DUP1 PUSH2 0x4B PUSH1 0x0 CODECOPY PUSH1 0x0 RETURN INVALID PUSH1 0x80 PUSH1 0x40 MSTORE CALLVALUE DUP1 ISZERO PUSH2 0x10 JUMPI PUSH1 0x0 DUP1 REVERT JUMPDEST POP PUSH1 0x4 CALLDATASIZE LT PUSH2 0x36 JUMPI PUSH1 0x0 CALLDATALOAD PUSH1 0xE0 SHR DUP1 PUSH4 0x1D263F67 EQ PUSH2 0x3B JUMPI DUP1 PUSH4 0xE6F334D7 EQ PUSH2 0x6B JUMPI JUMPDEST PUSH1 0x0 DUP1 REVERT JUMPDEST PUSH2 0x55 PUSH1 0x4 DUP1 CALLDATASIZE SUB DUP2 ADD SWAP1 PUSH2 0x50 SWAP2 SWAP1 PUSH2 0x19B JUMP JUMPDEST PUSH2 0x89 JUMP JUMPDEST PUSH1 0x40 MLOAD PUSH2 0x62 SWAP2 SWAP1 PUSH2 0x1D7 JUMP JUMPDEST PUSH1 0x40 MLOAD DUP1 SWAP2 SUB SWAP1 RETURN JUMPDEST PUSH2 0x73 PUSH2 0x12C JUMP JUMPDEST PUSH1 0x40 MLOAD PUSH2 0x80 SWAP2 SWAP1 PUSH2 0x20B JUMP JUMPDEST PUSH1 0x40 MLOAD DUP1 SWAP2 SUB SWAP1 RETURN JUMPDEST PUSH1 0x0 DUP1 PUSH2 0xA0 PUSH1 0x1 NUMBER PUSH2 0x132 SWAP1 SWAP2 SWAP1 PUSH4 0xFFFFFFFF AND JUMP JUMPDEST BLOCKHASH PUSH1 0x0 SHR SWAP1 POP DUP1 PUSH1 0x1 SLOAD SUB PUSH2 0xB4 JUMPI PUSH1 0x0 DUP1 REVERT JUMPDEST DUP1 PUSH1 0x1 DUP2 SWAP1 SSTORE POP PUSH1 0x0 PUSH2 0xD2 PUSH1 0x2 SLOAD DUP4 PUSH2 0x148 SWAP1 SWAP2 SWAP1 PUSH4 0xFFFFFFFF AND JUMP JUMPDEST SWAP1 POP PUSH1 0x0 PUSH1 0x1 DUP3 EQ PUSH2 0xE5 JUMPI PUSH1 0x0 PUSH2 0xE8 JUMP JUMPDEST PUSH1 0x1 JUMPDEST SWAP1 POP DUP5 ISZERO ISZERO DUP2 ISZERO ISZERO SUB PUSH2 0x118 JUMPI PUSH1 0x0 DUP1 DUP2 SLOAD DUP1 SWAP3 SWAP2 SWAP1 PUSH2 0x107 SWAP1 PUSH2 0x255 JUMP JUMPDEST SWAP2 SWAP1 POP SSTORE POP PUSH1 0x1 SWAP4 POP POP POP POP PUSH2 0x127 JUMP JUMPDEST PUSH1 0x0 DUP1 DUP2 SWAP1 SSTORE POP PUSH1 0x0 SWAP4 POP POP POP POP JUMPDEST SWAP2 SWAP1 POP JUMP JUMPDEST PUSH1 0x0 SLOAD DUP2 JUMP JUMPDEST PUSH1 0x0 DUP2 DUP4 PUSH2 0x140 SWAP2 SWAP1 PUSH2 0x29D JUMP JUMPDEST SWAP1 POP SWAP3 SWAP2 POP POP JUMP JUMPDEST PUSH1 0x0 DUP2 DUP4 PUSH2 0x156 SWAP2 SWAP1 PUSH2 0x300 JUMP JUMPDEST SWAP1 POP SWAP3 SWAP2 POP POP JUMP JUMPDEST PUSH1 0x0 DUP1 REVERT JUMPDEST PUSH1 0x0 DUP2 ISZERO ISZERO SWAP1 POP SWAP2 SWAP1 POP JUMP JUMPDEST PUSH2 0x178 DUP2 PUSH2 0x163 JUMP JUMPDEST DUP2 EQ PUSH2 0x183 JUMPI PUSH1 0x0 DUP1 REVERT JUMPDEST POP JUMP JUMPDEST PUSH1 0x0 DUP2 CALLDATALOAD SWAP1 POP PUSH2 0x195 DUP2 PUSH2 0x16F JUMP JUMPDEST SWAP3 SWAP2 POP POP JUMP JUMPDEST PUSH1 0x0 PUSH1 0x20 DUP3 DUP5 SUB SLT ISZERO PUSH2 0x1B1 JUMPI PUSH2 0x1B0 PUSH2 0x15E JUMP JUMPDEST JUMPDEST PUSH1 0x0 PUSH2 0x1BF DUP5 DUP3 DUP6 ADD PUSH2 0x186 JUMP JUMPDEST SWAP2 POP POP SWAP3 SWAP2 POP POP JUMP JUMPDEST PUSH2 0x1D1 DUP2 PUSH2 0x163 JUMP JUMPDEST DUP3 MSTORE POP POP JUMP JUMPDEST PUSH1 0x0 PUSH1 0x20 DUP3 ADD SWAP1 POP PUSH2 0x1EC PUSH1 0x0 DUP4 ADD DUP5 PUSH2 0x1C8 JUMP JUMPDEST SWAP3 SWAP2 POP POP JUMP JUMPDEST PUSH1 0x0 DUP2 SWAP1 POP SWAP2 SWAP1 POP JUMP JUMPDEST PUSH2 0x205 DUP2 PUSH2 0x1F2 JUMP JUMPDEST DUP3 MSTORE POP POP JUMP JUMPDEST PUSH1 0x0 PUSH1 0x20 DUP3 ADD SWAP1 POP PUSH2 0x220 PUSH1 0x0 DUP4 ADD DUP5 PUSH2 0x1FC JUMP JUMPDEST SWAP3 SWAP2 POP POP JUMP JUMPDEST PUSH32 0x4E487B7100000000000000000000000000000000000000000000000000000000 PUSH1 0x0 MSTORE PUSH1 0x11 PUSH1 0x4 MSTORE PUSH1 0x24 PUSH1 0x0 REVERT JUMPDEST PUSH1 0x0 PUSH2 0x260 DUP3 PUSH2 0x1F2 JUMP JUMPDEST SWAP2 POP PUSH32 0xFFFFFFFFFFFFFFFFFFFFFFFFFFFFFFFFFFFFFFFFFFFFFFFFFFFFFFFFFFFFFFFF DUP3 SUB PUSH2 0x292 JUMPI PUSH2 0x291 PUSH2 0x226 JUMP JUMPDEST JUMPDEST PUSH1 0x1 DUP3 ADD SWAP1 POP SWAP2 SWAP1 POP JUMP JUMPDEST PUSH1 0x0 PUSH2 0x2A8 DUP3 PUSH2 0x1F2 JUMP JUMPDEST SWAP2 POP PUSH2 0x2B3 DUP4 PUSH2 0x1F2 JUMP JUMPDEST SWAP3 POP DUP3 DUP3 LT ISZERO PUSH2 0x2C6 JUMPI PUSH2 0x2C5 PUSH2 0x226 JUMP JUMPDEST JUMPDEST DUP3 DUP3 SUB SWAP1 POP SWAP3 SWAP2 POP POP JUMP JUMPDEST PUSH32 0x4E487B7100000000000000000000000000000000000000000000000000000000 PUSH1 0x0 MSTORE PUSH1 0x12 PUSH1 0x4 MSTORE PUSH1 0x24 PUSH1 0x0 REVERT JUMPDEST PUSH1 0x0 PUSH2 0x30B DUP3 PUSH2 0x1F2 JUMP JUMPDEST SWAP2 POP PUSH2 0x316 DUP4 PUSH2 0x1F2 JUMP JUMPDEST SWAP3 POP DUP3 PUSH2 0x326 JUMPI PUSH2 0x325 PUSH2 0x2D1 JUMP JUMPDEST JUMPDEST DUP3 DUP3 DIV SWAP1 POP SWAP3 SWAP2 POP POP JUMP INVALID LOG2 PUSH5 0x6970667358 0x22 SLT KECCAK256 BASEFEE 0x2A DUP16 SHL SIGNEXTEND 0xDF 0xF 0x23 SWAP11 STATICCALL JUMP PUSH26 0x974BB9BE95F3F3C7B90E3DEF45056861DDDD664664736F6C6343 STOP ADDMOD 0xD STOP CALLER "
				},
				"gasEstimates": {
					"creation": {
						"codeDepositCost": "174200",
						"executionCost": "27340",
						"totalCost": "201540"
					},
					"external": {
						"consecutiveWins()": "2429",
						"flip(bool)": "infinite"
					}
				},
				"methodIdentifiers": {
					"consecutiveWins()": "e6f334d7",
					"flip(bool)": "1d263f67"
				}
			},
			"userdoc": {
				"kind": "user",
				"methods": {},
				"version": 1
			}
		}
	}
}