{
	"Force/attackForce.sol": {
		"Attack": {
			"abi": [
				{
					"inputs": [],
					"stateMutability": "nonpayable",
					"type": "constructor"
				},
				{
					"inputs": [],
					"name": "amount",
					"outputs": [
						{
							"internalType": "uint256",
							"name": "",
							"type": "uint256"
						}
					],
					"stateMutability": "view",
					"type": "function"
				},
				{
					"inputs": [],
					"name": "storageSomeMoney",
					"outputs": [],
					"stateMutability": "payable",
					"type": "function"
				}
			],
			"devdoc": {
				"kind": "dev",
				"methods": {},
				"version": 1
			},
			"evm": {
				"assembly": "    /* \"Force/attackForce.sol\":51:169  contract Attack{... */\n  mstore(0x40, 0x80)\n    /* \"Force/attackForce.sol\":95:114  constructor(){... */\n  callvalue\n  dup1\n  iszero\n  tag_1\n  jumpi\n  0x00\n  dup1\n  revert\ntag_1:\n  pop\n    /* \"Force/attackForce.sol\":51:169  contract Attack{... */\n  dataSize(sub_0)\n  dup1\n  dataOffset(sub_0)\n  0x00\n  codecopy\n  0x00\n  return\nstop\n\nsub_0: assembly {\n        /* \"Force/attackForce.sol\":51:169  contract Attack{... */\n      mstore(0x40, 0x80)\n      jumpi(tag_1, lt(calldatasize, 0x04))\n      shr(0xe0, calldataload(0x00))\n      dup1\n      0xaa8c217c\n      eq\n      tag_2\n      jumpi\n      dup1\n      0xb3865fd9\n      eq\n      tag_3\n      jumpi\n    tag_1:\n      0x00\n      dup1\n      revert\n        /* \"Force/attackForce.sol\":69:90  uint256 public amount */\n    tag_2:\n      callvalue\n      dup1\n      iszero\n      tag_4\n      jumpi\n      0x00\n      dup1\n      revert\n    tag_4:\n      pop\n      tag_5\n      tag_6\n      jump\t// in\n    tag_5:\n      mload(0x40)\n      tag_7\n      swap2\n      swap1\n      tag_8\n      jump\t// in\n    tag_7:\n      mload(0x40)\n      dup1\n      swap2\n      sub\n      swap1\n      return\n        /* \"Force/attackForce.sol\":116:164  function storageSomeMoney() public payable{... */\n    tag_3:\n      tag_9\n      tag_10\n      jump\t// in\n    tag_9:\n      stop\n        /* \"Force/attackForce.sol\":69:90  uint256 public amount */\n    tag_6:\n      sload(0x00)\n      dup2\n      jump\t// out\n        /* \"Force/attackForce.sol\":116:164  function storageSomeMoney() public payable{... */\n    tag_10:\n      jump\t// out\n        /* \"#utility.yul\":7:84   */\n    tag_12:\n        /* \"#utility.yul\":44:51   */\n      0x00\n        /* \"#utility.yul\":73:78   */\n      dup2\n        /* \"#utility.yul\":62:78   */\n      swap1\n      pop\n        /* \"#utility.yul\":7:84   */\n      swap2\n      swap1\n      pop\n      jump\t// out\n        /* \"#utility.yul\":90:208   */\n    tag_13:\n        /* \"#utility.yul\":177:201   */\n      tag_17\n        /* \"#utility.yul\":195:200   */\n      dup2\n        /* \"#utility.yul\":177:201   */\n      tag_12\n      jump\t// in\n    tag_17:\n        /* \"#utility.yul\":172:175   */\n      dup3\n        /* \"#utility.yul\":165:202   */\n      mstore\n        /* \"#utility.yul\":90:208   */\n      pop\n      pop\n      jump\t// out\n        /* \"#utility.yul\":214:436   */\n    tag_8:\n        /* \"#utility.yul\":307:311   */\n      0x00\n        /* \"#utility.yul\":345:347   */\n      0x20\n        /* \"#utility.yul\":334:343   */\n      dup3\n        /* \"#utility.yul\":330:348   */\n      add\n        /* \"#utility.yul\":322:348   */\n      swap1\n      pop\n        /* \"#utility.yul\":358:429   */\n      tag_19\n        /* \"#utility.yul\":426:427   */\n      0x00\n        /* \"#utility.yul\":415:424   */\n      dup4\n        /* \"#utility.yul\":411:428   */\n      add\n        /* \"#utility.yul\":402:408   */\n      dup5\n        /* \"#utility.yul\":358:429   */\n      tag_13\n      jump\t// in\n    tag_19:\n        /* \"#utility.yul\":214:436   */\n      swap3\n      swap2\n      pop\n      pop\n      jump\t// out\n\n    auxdata: 0xa2646970667358221220a415ed93aee83d6aa599c9e43d5d1b04b1af3b9122d2bf513aa128537e5be6c664736f6c634300080d0033\n}\n",
				"bytecode": {
					"linkReferences": {},
					"object": "608060405234801561001057600080fd5b5060c78061001f6000396000f3fe60806040526004361060265760003560e01c8063aa8c217c14602b578063b3865fd9146051575b600080fd5b348015603657600080fd5b50603d6059565b604051604891906078565b60405180910390f35b6057605f565b005b60005481565b565b6000819050919050565b6072816061565b82525050565b6000602082019050608b6000830184606b565b9291505056fea2646970667358221220a415ed93aee83d6aa599c9e43d5d1b04b1af3b9122d2bf513aa128537e5be6c664736f6c634300080d0033",
					"opcodes": "PUSH1 0x80 PUSH1 0x40 MSTORE CALLVALUE DUP1 ISZERO PUSH2 0x10 JUMPI PUSH1 0x0 DUP1 REVERT JUMPDEST POP PUSH1 0xC7 DUP1 PUSH2 0x1F PUSH1 0x0 CODECOPY PUSH1 0x0 RETURN INVALID PUSH1 0x80 PUSH1 0x40 MSTORE PUSH1 0x4 CALLDATASIZE LT PUSH1 0x26 JUMPI PUSH1 0x0 CALLDATALOAD PUSH1 0xE0 SHR DUP1 PUSH4 0xAA8C217C EQ PUSH1 0x2B JUMPI DUP1 PUSH4 0xB3865FD9 EQ PUSH1 0x51 JUMPI JUMPDEST PUSH1 0x0 DUP1 REVERT JUMPDEST CALLVALUE DUP1 ISZERO PUSH1 0x36 JUMPI PUSH1 0x0 DUP1 REVERT JUMPDEST POP PUSH1 0x3D PUSH1 0x59 JUMP JUMPDEST PUSH1 0x40 MLOAD PUSH1 0x48 SWAP2 SWAP1 PUSH1 0x78 JUMP JUMPDEST PUSH1 0x40 MLOAD DUP1 SWAP2 SUB SWAP1 RETURN JUMPDEST PUSH1 0x57 PUSH1 0x5F JUMP JUMPDEST STOP JUMPDEST PUSH1 0x0 SLOAD DUP2 JUMP JUMPDEST JUMP JUMPDEST PUSH1 0x0 DUP2 SWAP1 POP SWAP2 SWAP1 POP JUMP JUMPDEST PUSH1 0x72 DUP2 PUSH1 0x61 JUMP JUMPDEST DUP3 MSTORE POP POP JUMP JUMPDEST PUSH1 0x0 PUSH1 0x20 DUP3 ADD SWAP1 POP PUSH1 0x8B PUSH1 0x0 DUP4 ADD DUP5 PUSH1 0x6B JUMP JUMPDEST SWAP3 SWAP2 POP POP JUMP INVALID LOG2 PUSH5 0x6970667358 0x22 SLT KECCAK256 LOG4 ISZERO 0xED SWAP4 0xAE 0xE8 RETURNDATASIZE PUSH11 0xA599C9E43D5D1B04B1AF3B SWAP2 0x22 0xD2 0xBF MLOAD GASPRICE LOG1 0x28 MSTORE8 PUSH31 0x5BE6C664736F6C634300080D00330000000000000000000000000000000000 "
				},
				"gasEstimates": {
					"creation": {
						"codeDepositCost": "39800",
						"executionCost": "93",
						"totalCost": "39893"
					},
					"external": {
						"amount()": "2407",
						"storageSomeMoney()": "120"
					}
				},
				"methodIdentifiers": {
					"amount()": "aa8c217c",
					"storageSomeMoney()": "b3865fd9"
				}
			},
			"userdoc": {
				"kind": "user",
				"methods": {},
				"version": 1
			}
		}
	}
}