{
	"Force/attackForce.sol": {
		"Attack": {
			"abi": [
				{
					"inputs": [],
					"name": "amount",
					"outputs": [
						{
							"internalType": "uint256",
							"name": "",
							"type": "uint256"
						}
					],
					"stateMutability": "view",
					"type": "function"
				},
				{
					"inputs": [
						{
							"internalType": "address",
							"name": "_addr",
							"type": "address"
						}
					],
					"name": "exploit",
					"outputs": [],
					"stateMutability": "nonpayable",
					"type": "function"
				},
				{
					"inputs": [],
					"name": "storageSomeMoney",
					"outputs": [],
					"stateMutability": "payable",
					"type": "function"
				}
			],
			"devdoc": {
				"kind": "dev",
				"methods": {},
				"version": 1
			},
			"evm": {
				"assembly": "    /* \"Force/attackForce.sol\":27:230  contract Attack{... */\n  mstore(0x40, 0x80)\n  callvalue\n  dup1\n  iszero\n  tag_1\n  jumpi\n  0x00\n  dup1\n  revert\ntag_1:\n  pop\n  dataSize(sub_0)\n  dup1\n  dataOffset(sub_0)\n  0x00\n  codecopy\n  0x00\n  return\nstop\n\nsub_0: assembly {\n        /* \"Force/attackForce.sol\":27:230  contract Attack{... */\n      mstore(0x40, 0x80)\n      jumpi(tag_1, lt(calldatasize, 0x04))\n      shr(0xe0, calldataload(0x00))\n      dup1\n      0x0aeb4ddf\n      eq\n      tag_2\n      jumpi\n      dup1\n      0xaa8c217c\n      eq\n      tag_3\n      jumpi\n      dup1\n      0xb3865fd9\n      eq\n      tag_4\n      jumpi\n    tag_1:\n      0x00\n      dup1\n      revert\n        /* \"Force/attackForce.sol\":69:148  function exploit(address _addr)public {... */\n    tag_2:\n      callvalue\n      dup1\n      iszero\n      tag_5\n      jumpi\n      0x00\n      dup1\n      revert\n    tag_5:\n      pop\n      tag_6\n      0x04\n      dup1\n      calldatasize\n      sub\n      dup2\n      add\n      swap1\n      tag_7\n      swap2\n      swap1\n      tag_8\n      jump\t// in\n    tag_7:\n      tag_9\n      jump\t// in\n    tag_6:\n      stop\n        /* \"Force/attackForce.sol\":45:66  uint256 public amount */\n    tag_3:\n      callvalue\n      dup1\n      iszero\n      tag_10\n      jumpi\n      0x00\n      dup1\n      revert\n    tag_10:\n      pop\n      tag_11\n      tag_12\n      jump\t// in\n    tag_11:\n      mload(0x40)\n      tag_13\n      swap2\n      swap1\n      tag_14\n      jump\t// in\n    tag_13:\n      mload(0x40)\n      dup1\n      swap2\n      sub\n      swap1\n      return\n        /* \"Force/attackForce.sol\":152:223  function storageSomeMoney() public payable{... */\n    tag_4:\n      tag_15\n      tag_16\n      jump\t// in\n    tag_15:\n      stop\n        /* \"Force/attackForce.sol\":69:148  function exploit(address _addr)public {... */\n    tag_9:\n        /* \"Force/attackForce.sol\":137:142  _addr */\n      dup1\n        /* \"Force/attackForce.sol\":116:144  selfdestruct(payable(_addr)) */\n      0xffffffffffffffffffffffffffffffffffffffff\n      and\n      selfdestruct\n        /* \"Force/attackForce.sol\":45:66  uint256 public amount */\n    tag_12:\n      sload(0x00)\n      dup2\n      jump\t// out\n        /* \"Force/attackForce.sol\":152:223  function storageSomeMoney() public payable{... */\n    tag_16:\n        /* \"Force/attackForce.sol\":210:219  msg.value */\n      callvalue\n        /* \"Force/attackForce.sol\":201:207  amount */\n      0x00\n        /* \"Force/attackForce.sol\":201:219  amount = msg.value */\n      dup2\n      swap1\n      sstore\n      pop\n        /* \"Force/attackForce.sol\":152:223  function storageSomeMoney() public payable{... */\n      jump\t// out\n        /* \"#utility.yul\":88:205   */\n    tag_20:\n        /* \"#utility.yul\":197:198   */\n      0x00\n        /* \"#utility.yul\":194:195   */\n      dup1\n        /* \"#utility.yul\":187:199   */\n      revert\n        /* \"#utility.yul\":334:460   */\n    tag_22:\n        /* \"#utility.yul\":371:378   */\n      0x00\n        /* \"#utility.yul\":411:453   */\n      0xffffffffffffffffffffffffffffffffffffffff\n        /* \"#utility.yul\":404:409   */\n      dup3\n        /* \"#utility.yul\":400:454   */\n      and\n        /* \"#utility.yul\":389:454   */\n      swap1\n      pop\n        /* \"#utility.yul\":334:460   */\n      swap2\n      swap1\n      pop\n      jump\t// out\n        /* \"#utility.yul\":466:562   */\n    tag_23:\n        /* \"#utility.yul\":503:510   */\n      0x00\n        /* \"#utility.yul\":532:556   */\n      tag_34\n        /* \"#utility.yul\":550:555   */\n      dup3\n        /* \"#utility.yul\":532:556   */\n      tag_22\n      jump\t// in\n    tag_34:\n        /* \"#utility.yul\":521:556   */\n      swap1\n      pop\n        /* \"#utility.yul\":466:562   */\n      swap2\n      swap1\n      pop\n      jump\t// out\n        /* \"#utility.yul\":568:690   */\n    tag_24:\n        /* \"#utility.yul\":641:665   */\n      tag_36\n        /* \"#utility.yul\":659:664   */\n      dup2\n        /* \"#utility.yul\":641:665   */\n      tag_23\n      jump\t// in\n    tag_36:\n        /* \"#utility.yul\":634:639   */\n      dup2\n        /* \"#utility.yul\":631:666   */\n      eq\n        /* \"#utility.yul\":621:684   */\n      tag_37\n      jumpi\n        /* \"#utility.yul\":680:681   */\n      0x00\n        /* \"#utility.yul\":677:678   */\n      dup1\n        /* \"#utility.yul\":670:682   */\n      revert\n        /* \"#utility.yul\":621:684   */\n    tag_37:\n        /* \"#utility.yul\":568:690   */\n      pop\n      jump\t// out\n        /* \"#utility.yul\":696:835   */\n    tag_25:\n        /* \"#utility.yul\":742:747   */\n      0x00\n        /* \"#utility.yul\":780:786   */\n      dup2\n        /* \"#utility.yul\":767:787   */\n      calldataload\n        /* \"#utility.yul\":758:787   */\n      swap1\n      pop\n        /* \"#utility.yul\":796:829   */\n      tag_39\n        /* \"#utility.yul\":823:828   */\n      dup2\n        /* \"#utility.yul\":796:829   */\n      tag_24\n      jump\t// in\n    tag_39:\n        /* \"#utility.yul\":696:835   */\n      swap3\n      swap2\n      pop\n      pop\n      jump\t// out\n        /* \"#utility.yul\":841:1170   */\n    tag_8:\n        /* \"#utility.yul\":900:906   */\n      0x00\n        /* \"#utility.yul\":949:951   */\n      0x20\n        /* \"#utility.yul\":937:946   */\n      dup3\n        /* \"#utility.yul\":928:935   */\n      dup5\n        /* \"#utility.yul\":924:947   */\n      sub\n        /* \"#utility.yul\":920:952   */\n      slt\n        /* \"#utility.yul\":917:1036   */\n      iszero\n      tag_41\n      jumpi\n        /* \"#utility.yul\":955:1034   */\n      tag_42\n      tag_20\n      jump\t// in\n    tag_42:\n        /* \"#utility.yul\":917:1036   */\n    tag_41:\n        /* \"#utility.yul\":1075:1076   */\n      0x00\n        /* \"#utility.yul\":1100:1153   */\n      tag_43\n        /* \"#utility.yul\":1145:1152   */\n      dup5\n        /* \"#utility.yul\":1136:1142   */\n      dup3\n        /* \"#utility.yul\":1125:1134   */\n      dup6\n        /* \"#utility.yul\":1121:1143   */\n      add\n        /* \"#utility.yul\":1100:1153   */\n      tag_25\n      jump\t// in\n    tag_43:\n        /* \"#utility.yul\":1090:1153   */\n      swap2\n      pop\n        /* \"#utility.yul\":1046:1163   */\n      pop\n        /* \"#utility.yul\":841:1170   */\n      swap3\n      swap2\n      pop\n      pop\n      jump\t// out\n        /* \"#utility.yul\":1176:1253   */\n    tag_26:\n        /* \"#utility.yul\":1213:1220   */\n      0x00\n        /* \"#utility.yul\":1242:1247   */\n      dup2\n        /* \"#utility.yul\":1231:1247   */\n      swap1\n      pop\n        /* \"#utility.yul\":1176:1253   */\n      swap2\n      swap1\n      pop\n      jump\t// out\n        /* \"#utility.yul\":1259:1377   */\n    tag_27:\n        /* \"#utility.yul\":1346:1370   */\n      tag_46\n        /* \"#utility.yul\":1364:1369   */\n      dup2\n        /* \"#utility.yul\":1346:1370   */\n      tag_26\n      jump\t// in\n    tag_46:\n        /* \"#utility.yul\":1341:1344   */\n      dup3\n        /* \"#utility.yul\":1334:1371   */\n      mstore\n        /* \"#utility.yul\":1259:1377   */\n      pop\n      pop\n      jump\t// out\n        /* \"#utility.yul\":1383:1605   */\n    tag_14:\n        /* \"#utility.yul\":1476:1480   */\n      0x00\n        /* \"#utility.yul\":1514:1516   */\n      0x20\n        /* \"#utility.yul\":1503:1512   */\n      dup3\n        /* \"#utility.yul\":1499:1517   */\n      add\n        /* \"#utility.yul\":1491:1517   */\n      swap1\n      pop\n        /* \"#utility.yul\":1527:1598   */\n      tag_48\n        /* \"#utility.yul\":1595:1596   */\n      0x00\n        /* \"#utility.yul\":1584:1593   */\n      dup4\n        /* \"#utility.yul\":1580:1597   */\n      add\n        /* \"#utility.yul\":1571:1577   */\n      dup5\n        /* \"#utility.yul\":1527:1598   */\n      tag_27\n      jump\t// in\n    tag_48:\n        /* \"#utility.yul\":1383:1605   */\n      swap3\n      swap2\n      pop\n      pop\n      jump\t// out\n\n    auxdata: 0xa264697066735822122065da39136d1afa78a8b6998f218109cd6490be1282c06429c201e6089c6dba6564736f6c634300080d0033\n}\n",
				"bytecode": {
					"linkReferences": {},
					"object": "608060405234801561001057600080fd5b506101b9806100206000396000f3fe6080604052600436106100345760003560e01c80630aeb4ddf14610039578063aa8c217c14610062578063b3865fd91461008d575b600080fd5b34801561004557600080fd5b50610060600480360381019061005b9190610122565b610097565b005b34801561006e57600080fd5b506100776100b0565b6040516100849190610168565b60405180910390f35b6100956100b6565b005b8073ffffffffffffffffffffffffffffffffffffffff16ff5b60005481565b34600081905550565b600080fd5b600073ffffffffffffffffffffffffffffffffffffffff82169050919050565b60006100ef826100c4565b9050919050565b6100ff816100e4565b811461010a57600080fd5b50565b60008135905061011c816100f6565b92915050565b600060208284031215610138576101376100bf565b5b60006101468482850161010d565b91505092915050565b6000819050919050565b6101628161014f565b82525050565b600060208201905061017d6000830184610159565b9291505056fea264697066735822122065da39136d1afa78a8b6998f218109cd6490be1282c06429c201e6089c6dba6564736f6c634300080d0033",
					"opcodes": "PUSH1 0x80 PUSH1 0x40 MSTORE CALLVALUE DUP1 ISZERO PUSH2 0x10 JUMPI PUSH1 0x0 DUP1 REVERT JUMPDEST POP PUSH2 0x1B9 DUP1 PUSH2 0x20 PUSH1 0x0 CODECOPY PUSH1 0x0 RETURN INVALID PUSH1 0x80 PUSH1 0x40 MSTORE PUSH1 0x4 CALLDATASIZE LT PUSH2 0x34 JUMPI PUSH1 0x0 CALLDATALOAD PUSH1 0xE0 SHR DUP1 PUSH4 0xAEB4DDF EQ PUSH2 0x39 JUMPI DUP1 PUSH4 0xAA8C217C EQ PUSH2 0x62 JUMPI DUP1 PUSH4 0xB3865FD9 EQ PUSH2 0x8D JUMPI JUMPDEST PUSH1 0x0 DUP1 REVERT JUMPDEST CALLVALUE DUP1 ISZERO PUSH2 0x45 JUMPI PUSH1 0x0 DUP1 REVERT JUMPDEST POP PUSH2 0x60 PUSH1 0x4 DUP1 CALLDATASIZE SUB DUP2 ADD SWAP1 PUSH2 0x5B SWAP2 SWAP1 PUSH2 0x122 JUMP JUMPDEST PUSH2 0x97 JUMP JUMPDEST STOP JUMPDEST CALLVALUE DUP1 ISZERO PUSH2 0x6E JUMPI PUSH1 0x0 DUP1 REVERT JUMPDEST POP PUSH2 0x77 PUSH2 0xB0 JUMP JUMPDEST PUSH1 0x40 MLOAD PUSH2 0x84 SWAP2 SWAP1 PUSH2 0x168 JUMP JUMPDEST PUSH1 0x40 MLOAD DUP1 SWAP2 SUB SWAP1 RETURN JUMPDEST PUSH2 0x95 PUSH2 0xB6 JUMP JUMPDEST STOP JUMPDEST DUP1 PUSH20 0xFFFFFFFFFFFFFFFFFFFFFFFFFFFFFFFFFFFFFFFF AND SELFDESTRUCT JUMPDEST PUSH1 0x0 SLOAD DUP2 JUMP JUMPDEST CALLVALUE PUSH1 0x0 DUP2 SWAP1 SSTORE POP JUMP JUMPDEST PUSH1 0x0 DUP1 REVERT JUMPDEST PUSH1 0x0 PUSH20 0xFFFFFFFFFFFFFFFFFFFFFFFFFFFFFFFFFFFFFFFF DUP3 AND SWAP1 POP SWAP2 SWAP1 POP JUMP JUMPDEST PUSH1 0x0 PUSH2 0xEF DUP3 PUSH2 0xC4 JUMP JUMPDEST SWAP1 POP SWAP2 SWAP1 POP JUMP JUMPDEST PUSH2 0xFF DUP2 PUSH2 0xE4 JUMP JUMPDEST DUP2 EQ PUSH2 0x10A JUMPI PUSH1 0x0 DUP1 REVERT JUMPDEST POP JUMP JUMPDEST PUSH1 0x0 DUP2 CALLDATALOAD SWAP1 POP PUSH2 0x11C DUP2 PUSH2 0xF6 JUMP JUMPDEST SWAP3 SWAP2 POP POP JUMP JUMPDEST PUSH1 0x0 PUSH1 0x20 DUP3 DUP5 SUB SLT ISZERO PUSH2 0x138 JUMPI PUSH2 0x137 PUSH2 0xBF JUMP JUMPDEST JUMPDEST PUSH1 0x0 PUSH2 0x146 DUP5 DUP3 DUP6 ADD PUSH2 0x10D JUMP JUMPDEST SWAP2 POP POP SWAP3 SWAP2 POP POP JUMP JUMPDEST PUSH1 0x0 DUP2 SWAP1 POP SWAP2 SWAP1 POP JUMP JUMPDEST PUSH2 0x162 DUP2 PUSH2 0x14F JUMP JUMPDEST DUP3 MSTORE POP POP JUMP JUMPDEST PUSH1 0x0 PUSH1 0x20 DUP3 ADD SWAP1 POP PUSH2 0x17D PUSH1 0x0 DUP4 ADD DUP5 PUSH2 0x159 JUMP JUMPDEST SWAP3 SWAP2 POP POP JUMP INVALID LOG2 PUSH5 0x6970667358 0x22 SLT KECCAK256 PUSH6 0xDA39136D1AFA PUSH25 0xA8B6998F218109CD6490BE1282C06429C201E6089C6DBA6564 PUSH20 0x6F6C634300080D00330000000000000000000000 "
				},
				"gasEstimates": {
					"creation": {
						"codeDepositCost": "88200",
						"executionCost": "135",
						"totalCost": "88335"
					},
					"external": {
						"amount()": "2429",
						"exploit(address)": "28031",
						"storageSomeMoney()": "22255"
					}
				},
				"methodIdentifiers": {
					"amount()": "aa8c217c",
					"exploit(address)": "0aeb4ddf",
					"storageSomeMoney()": "b3865fd9"
				}
			},
			"userdoc": {
				"kind": "user",
				"methods": {},
				"version": 1
			}
		}
	}
}