{
	"Privacy/Privacy.sol": {
		"Privacy": {
			"abi": [
				{
					"inputs": [
						{
							"internalType": "bytes32[3]",
							"name": "_data",
							"type": "bytes32[3]"
						}
					],
					"stateMutability": "nonpayable",
					"type": "constructor"
				},
				{
					"inputs": [],
					"name": "ID",
					"outputs": [
						{
							"internalType": "uint256",
							"name": "",
							"type": "uint256"
						}
					],
					"stateMutability": "view",
					"type": "function"
				},
				{
					"inputs": [],
					"name": "locked",
					"outputs": [
						{
							"internalType": "bool",
							"name": "",
							"type": "bool"
						}
					],
					"stateMutability": "view",
					"type": "function"
				},
				{
					"inputs": [
						{
							"internalType": "bytes16",
							"name": "_key",
							"type": "bytes16"
						}
					],
					"name": "unlock",
					"outputs": [],
					"stateMutability": "nonpayable",
					"type": "function"
				}
			],
			"devdoc": {
				"kind": "dev",
				"methods": {},
				"version": 1
			},
			"evm": {
				"assembly": "    /* \"Privacy/Privacy.sol\":60:871  contract Privacy {\r... */\n  mstore(0x40, 0x80)\n    /* \"Privacy/Privacy.sol\":105:109  true */\n  0x01\n    /* \"Privacy/Privacy.sol\":84:109  bool public locked = true */\n  0x00\n  dup1\n  0x0100\n  exp\n  dup2\n  sload\n  dup2\n  0xff\n  mul\n  not\n  and\n  swap1\n  dup4\n  iszero\n  iszero\n  mul\n  or\n  swap1\n  sstore\n  pop\n    /* \"Privacy/Privacy.sol\":134:149  block.timestamp */\n  timestamp\n    /* \"Privacy/Privacy.sol\":114:149  uint256 public ID = block.timestamp */\n  0x01\n  sstore\n    /* \"Privacy/Privacy.sol\":181:183  10 */\n  0x0a\n    /* \"Privacy/Privacy.sol\":154:183  uint8 private flattening = 10 */\n  0x02\n  exp(0x0100, 0x00)\n  dup2\n  sload\n  dup2\n  0xff\n  mul\n  not\n  and\n  swap1\n  dup4\n  0xff\n  and\n  mul\n  or\n  swap1\n  sstore\n  pop\n    /* \"Privacy/Privacy.sol\":217:220  255 */\n  0xff\n    /* \"Privacy/Privacy.sol\":188:220  uint8 private denomination = 255 */\n  0x02\n  exp(0x0100, 0x01)\n  dup2\n  sload\n  dup2\n  0xff\n  mul\n  not\n  and\n  swap1\n  dup4\n  0xff\n  and\n  mul\n  or\n  swap1\n  sstore\n  pop\n    /* \"Privacy/Privacy.sol\":261:264  now */\n  timestamp\n    /* \"Privacy/Privacy.sol\":225:265  uint16 private awkwardness = uint16(now) */\n  0x02\n  dup1\n  0x0100\n  exp\n  dup2\n  sload\n  dup2\n  0xffff\n  mul\n  not\n  and\n  swap1\n  dup4\n  0xffff\n  and\n  mul\n  or\n  swap1\n  sstore\n  pop\n    /* \"Privacy/Privacy.sol\":300:369  constructor(bytes32[3] memory _data) public {\r... */\n  callvalue\n  dup1\n  iszero\n  tag_1\n  jumpi\n  0x00\n  dup1\n  revert\ntag_1:\n  pop\n  mload(0x40)\n  sub(codesize, bytecodeSize)\n  dup1\n  bytecodeSize\n  dup4\n  codecopy\n  dup2\n  dup2\n  add\n  0x40\n  mstore\n  0x60\n  dup2\n  lt\n  iszero\n  tag_2\n  jumpi\n  0x00\n  dup1\n  revert\ntag_2:\n  dup2\n  add\n  swap1\n  dup1\n  swap2\n  swap1\n  pop\n  pop\n    /* \"Privacy/Privacy.sol\":358:363  _data */\n  dup1\n    /* \"Privacy/Privacy.sol\":351:355  data */\n  0x03\n    /* \"Privacy/Privacy.sol\":351:363  data = _data */\n  swap1\n  0x03\n  tag_5\n  swap3\n  swap2\n  swap1\n  tag_6\n  jump\t// in\ntag_5:\n  pop\n    /* \"Privacy/Privacy.sol\":300:369  constructor(bytes32[3] memory _data) public {\r... */\n  pop\n    /* \"Privacy/Privacy.sol\":60:871  contract Privacy {\r... */\n  jump(tag_7)\ntag_6:\n  dup3\n  0x03\n  dup2\n  add\n  swap3\n  dup3\n  iszero\n  tag_8\n  jumpi\n  swap2\n  0x20\n  mul\n  dup3\n  add\ntag_9:\n  dup3\n  dup2\n  gt\n  iszero\n  tag_10\n  jumpi\n  dup3\n  mload\n  dup3\n  sstore\n  swap2\n  0x20\n  add\n  swap2\n  swap1\n  0x01\n  add\n  swap1\n  jump(tag_9)\ntag_10:\ntag_8:\n  pop\n  swap1\n  pop\n  tag_11\n  swap2\n  swap1\n  tag_12\n  jump\t// in\ntag_11:\n  pop\n  swap1\n  jump\t// out\ntag_12:\ntag_13:\n  dup1\n  dup3\n  gt\n  iszero\n  tag_14\n  jumpi\n  0x00\n  dup2\n  0x00\n  swap1\n  sstore\n  pop\n  0x01\n  add\n  jump(tag_13)\ntag_14:\n  pop\n  swap1\n  jump\t// out\ntag_7:\n  dataSize(sub_0)\n  dup1\n  dataOffset(sub_0)\n  0x00\n  codecopy\n  0x00\n  return\nstop\n\nsub_0: assembly {\n        /* \"Privacy/Privacy.sol\":60:871  contract Privacy {\r... */\n      mstore(0x40, 0x80)\n      callvalue\n      dup1\n      iszero\n      tag_1\n      jumpi\n      0x00\n      dup1\n      revert\n    tag_1:\n      pop\n      jumpi(tag_2, lt(calldatasize, 0x04))\n      shr(0xe0, calldataload(0x00))\n      dup1\n      0xb3cea217\n      eq\n      tag_3\n      jumpi\n      dup1\n      0xcf309012\n      eq\n      tag_4\n      jumpi\n      dup1\n      0xe1afb08c\n      eq\n      tag_5\n      jumpi\n    tag_2:\n      0x00\n      dup1\n      revert\n        /* \"Privacy/Privacy.sol\":114:149  uint256 public ID = block.timestamp */\n    tag_3:\n      tag_6\n      tag_7\n      jump\t// in\n    tag_6:\n      mload(0x40)\n      dup1\n      dup3\n      dup2\n      mstore\n      0x20\n      add\n      swap2\n      pop\n      pop\n      mload(0x40)\n      dup1\n      swap2\n      sub\n      swap1\n      return\n        /* \"Privacy/Privacy.sol\":84:109  bool public locked = true */\n    tag_4:\n      tag_8\n      tag_9\n      jump\t// in\n    tag_8:\n      mload(0x40)\n      dup1\n      dup3\n      iszero\n      iszero\n      dup2\n      mstore\n      0x20\n      add\n      swap2\n      pop\n      pop\n      mload(0x40)\n      dup1\n      swap2\n      sub\n      swap1\n      return\n        /* \"Privacy/Privacy.sol\":377:481  function unlock(bytes16 _key) public {\r... */\n    tag_5:\n      tag_10\n      0x04\n      dup1\n      calldatasize\n      sub\n      0x20\n      dup2\n      lt\n      iszero\n      tag_11\n      jumpi\n      0x00\n      dup1\n      revert\n    tag_11:\n      dup2\n      add\n      swap1\n      dup1\n      dup1\n      calldataload\n      not(0xffffffffffffffffffffffffffffffff)\n      and\n      swap1\n      0x20\n      add\n      swap1\n      swap3\n      swap2\n      swap1\n      pop\n      pop\n      pop\n      tag_12\n      jump\t// in\n    tag_10:\n      stop\n        /* \"Privacy/Privacy.sol\":114:149  uint256 public ID = block.timestamp */\n    tag_7:\n      sload(0x01)\n      dup2\n      jump\t// out\n        /* \"Privacy/Privacy.sol\":84:109  bool public locked = true */\n    tag_9:\n      0x00\n      dup1\n      sload\n      swap1\n      0x0100\n      exp\n      swap1\n      div\n      0xff\n      and\n      dup2\n      jump\t// out\n        /* \"Privacy/Privacy.sol\":377:481  function unlock(bytes16 _key) public {\r... */\n    tag_12:\n        /* \"Privacy/Privacy.sol\":445:449  data */\n      0x03\n        /* \"Privacy/Privacy.sol\":450:451  2 */\n      0x02\n        /* \"Privacy/Privacy.sol\":445:452  data[2] */\n      0x03\n      dup2\n      lt\n      tag_14\n      jumpi\n      invalid\n    tag_14:\n      add\n      sload\n        /* \"Privacy/Privacy.sol\":429:453  _key == bytes16(data[2]) */\n      not(0xffffffffffffffffffffffffffffffff)\n      and\n        /* \"Privacy/Privacy.sol\":429:433  _key */\n      dup2\n        /* \"Privacy/Privacy.sol\":429:453  _key == bytes16(data[2]) */\n      not(0xffffffffffffffffffffffffffffffff)\n      and\n      eq\n        /* \"Privacy/Privacy.sol\":421:454  require(_key == bytes16(data[2])) */\n      tag_16\n      jumpi\n      0x00\n      dup1\n      revert\n    tag_16:\n        /* \"Privacy/Privacy.sol\":470:475  false */\n      0x00\n        /* \"Privacy/Privacy.sol\":461:467  locked */\n      dup1\n      0x00\n        /* \"Privacy/Privacy.sol\":461:475  locked = false */\n      0x0100\n      exp\n      dup2\n      sload\n      dup2\n      0xff\n      mul\n      not\n      and\n      swap1\n      dup4\n      iszero\n      iszero\n      mul\n      or\n      swap1\n      sstore\n      pop\n        /* \"Privacy/Privacy.sol\":377:481  function unlock(bytes16 _key) public {\r... */\n      pop\n      jump\t// out\n\n    auxdata: 0xa26469706673582212201b5baa9a556fc7797c0adcdc6839374735bbe0759cc94ca3120ce2f366495e1664736f6c634300060c0033\n}\n",
				"bytecode": {
					"linkReferences": {},
					"object": "608060405260016000806101000a81548160ff02191690831515021790555042600155600a600260006101000a81548160ff021916908360ff16021790555060ff600260016101000a81548160ff021916908360ff160217905550426002806101000a81548161ffff021916908361ffff16021790555034801561008257600080fd5b506040516102a13803806102a1833981810160405260608110156100a557600080fd5b81019080919050508060039060036100be9291906100c5565b5050610122565b82600381019282156100f4579160200282015b828111156100f35782518255916020019190600101906100d8565b5b5090506101019190610105565b5090565b5b8082111561011e576000816000905550600101610106565b5090565b610170806101316000396000f3fe608060405234801561001057600080fd5b50600436106100415760003560e01c8063b3cea21714610046578063cf30901214610064578063e1afb08c14610084575b600080fd5b61004e6100c5565b6040518082815260200191505060405180910390f35b61006c6100cb565b60405180821515815260200191505060405180910390f35b6100c36004803603602081101561009a57600080fd5b8101908080356fffffffffffffffffffffffffffffffff191690602001909291905050506100dc565b005b60015481565b60008054906101000a900460ff1681565b60036002600381106100ea57fe5b01546fffffffffffffffffffffffffffffffff1916816fffffffffffffffffffffffffffffffff19161461011d57600080fd5b60008060006101000a81548160ff0219169083151502179055505056fea26469706673582212201b5baa9a556fc7797c0adcdc6839374735bbe0759cc94ca3120ce2f366495e1664736f6c634300060c0033",
					"opcodes": "PUSH1 0x80 PUSH1 0x40 MSTORE PUSH1 0x1 PUSH1 0x0 DUP1 PUSH2 0x100 EXP DUP2 SLOAD DUP2 PUSH1 0xFF MUL NOT AND SWAP1 DUP4 ISZERO ISZERO MUL OR SWAP1 SSTORE POP TIMESTAMP PUSH1 0x1 SSTORE PUSH1 0xA PUSH1 0x2 PUSH1 0x0 PUSH2 0x100 EXP DUP2 SLOAD DUP2 PUSH1 0xFF MUL NOT AND SWAP1 DUP4 PUSH1 0xFF AND MUL OR SWAP1 SSTORE POP PUSH1 0xFF PUSH1 0x2 PUSH1 0x1 PUSH2 0x100 EXP DUP2 SLOAD DUP2 PUSH1 0xFF MUL NOT AND SWAP1 DUP4 PUSH1 0xFF AND MUL OR SWAP1 SSTORE POP TIMESTAMP PUSH1 0x2 DUP1 PUSH2 0x100 EXP DUP2 SLOAD DUP2 PUSH2 0xFFFF MUL NOT AND SWAP1 DUP4 PUSH2 0xFFFF AND MUL OR SWAP1 SSTORE POP CALLVALUE DUP1 ISZERO PUSH2 0x82 JUMPI PUSH1 0x0 DUP1 REVERT JUMPDEST POP PUSH1 0x40 MLOAD PUSH2 0x2A1 CODESIZE SUB DUP1 PUSH2 0x2A1 DUP4 CODECOPY DUP2 DUP2 ADD PUSH1 0x40 MSTORE PUSH1 0x60 DUP2 LT ISZERO PUSH2 0xA5 JUMPI PUSH1 0x0 DUP1 REVERT JUMPDEST DUP2 ADD SWAP1 DUP1 SWAP2 SWAP1 POP POP DUP1 PUSH1 0x3 SWAP1 PUSH1 0x3 PUSH2 0xBE SWAP3 SWAP2 SWAP1 PUSH2 0xC5 JUMP JUMPDEST POP POP PUSH2 0x122 JUMP JUMPDEST DUP3 PUSH1 0x3 DUP2 ADD SWAP3 DUP3 ISZERO PUSH2 0xF4 JUMPI SWAP2 PUSH1 0x20 MUL DUP3 ADD JUMPDEST DUP3 DUP2 GT ISZERO PUSH2 0xF3 JUMPI DUP3 MLOAD DUP3 SSTORE SWAP2 PUSH1 0x20 ADD SWAP2 SWAP1 PUSH1 0x1 ADD SWAP1 PUSH2 0xD8 JUMP JUMPDEST JUMPDEST POP SWAP1 POP PUSH2 0x101 SWAP2 SWAP1 PUSH2 0x105 JUMP JUMPDEST POP SWAP1 JUMP JUMPDEST JUMPDEST DUP1 DUP3 GT ISZERO PUSH2 0x11E JUMPI PUSH1 0x0 DUP2 PUSH1 0x0 SWAP1 SSTORE POP PUSH1 0x1 ADD PUSH2 0x106 JUMP JUMPDEST POP SWAP1 JUMP JUMPDEST PUSH2 0x170 DUP1 PUSH2 0x131 PUSH1 0x0 CODECOPY PUSH1 0x0 RETURN INVALID PUSH1 0x80 PUSH1 0x40 MSTORE CALLVALUE DUP1 ISZERO PUSH2 0x10 JUMPI PUSH1 0x0 DUP1 REVERT JUMPDEST POP PUSH1 0x4 CALLDATASIZE LT PUSH2 0x41 JUMPI PUSH1 0x0 CALLDATALOAD PUSH1 0xE0 SHR DUP1 PUSH4 0xB3CEA217 EQ PUSH2 0x46 JUMPI DUP1 PUSH4 0xCF309012 EQ PUSH2 0x64 JUMPI DUP1 PUSH4 0xE1AFB08C EQ PUSH2 0x84 JUMPI JUMPDEST PUSH1 0x0 DUP1 REVERT JUMPDEST PUSH2 0x4E PUSH2 0xC5 JUMP JUMPDEST PUSH1 0x40 MLOAD DUP1 DUP3 DUP2 MSTORE PUSH1 0x20 ADD SWAP2 POP POP PUSH1 0x40 MLOAD DUP1 SWAP2 SUB SWAP1 RETURN JUMPDEST PUSH2 0x6C PUSH2 0xCB JUMP JUMPDEST PUSH1 0x40 MLOAD DUP1 DUP3 ISZERO ISZERO DUP2 MSTORE PUSH1 0x20 ADD SWAP2 POP POP PUSH1 0x40 MLOAD DUP1 SWAP2 SUB SWAP1 RETURN JUMPDEST PUSH2 0xC3 PUSH1 0x4 DUP1 CALLDATASIZE SUB PUSH1 0x20 DUP2 LT ISZERO PUSH2 0x9A JUMPI PUSH1 0x0 DUP1 REVERT JUMPDEST DUP2 ADD SWAP1 DUP1 DUP1 CALLDATALOAD PUSH16 0xFFFFFFFFFFFFFFFFFFFFFFFFFFFFFFFF NOT AND SWAP1 PUSH1 0x20 ADD SWAP1 SWAP3 SWAP2 SWAP1 POP POP POP PUSH2 0xDC JUMP JUMPDEST STOP JUMPDEST PUSH1 0x1 SLOAD DUP2 JUMP JUMPDEST PUSH1 0x0 DUP1 SLOAD SWAP1 PUSH2 0x100 EXP SWAP1 DIV PUSH1 0xFF AND DUP2 JUMP JUMPDEST PUSH1 0x3 PUSH1 0x2 PUSH1 0x3 DUP2 LT PUSH2 0xEA JUMPI INVALID JUMPDEST ADD SLOAD PUSH16 0xFFFFFFFFFFFFFFFFFFFFFFFFFFFFFFFF NOT AND DUP2 PUSH16 0xFFFFFFFFFFFFFFFFFFFFFFFFFFFFFFFF NOT AND EQ PUSH2 0x11D JUMPI PUSH1 0x0 DUP1 REVERT JUMPDEST PUSH1 0x0 DUP1 PUSH1 0x0 PUSH2 0x100 EXP DUP2 SLOAD DUP2 PUSH1 0xFF MUL NOT AND SWAP1 DUP4 ISZERO ISZERO MUL OR SWAP1 SSTORE POP POP JUMP INVALID LOG2 PUSH5 0x6970667358 0x22 SLT KECCAK256 SHL JUMPDEST 0xAA SWAP11 SSTORE PUSH16 0xC7797C0ADCDC6839374735BBE0759CC9 0x4C LOG3 SLT 0xC 0xE2 RETURN PUSH7 0x495E1664736F6C PUSH4 0x4300060C STOP CALLER "
				},
				"gasEstimates": {
					"creation": {
						"codeDepositCost": "73600",
						"executionCost": "infinite",
						"totalCost": "infinite"
					},
					"external": {
						"ID()": "983",
						"locked()": "1044",
						"unlock(bytes16)": "21996"
					}
				},
				"methodIdentifiers": {
					"ID()": "b3cea217",
					"locked()": "cf309012",
					"unlock(bytes16)": "e1afb08c"
				}
			},
			"userdoc": {
				"kind": "user",
				"methods": {},
				"version": 1
			}
		}
	}
}