{
	"Vault/Vault.sol": {
		"Vault": {
			"abi": [
				{
					"inputs": [
						{
							"internalType": "bytes32",
							"name": "_password",
							"type": "bytes32"
						}
					],
					"stateMutability": "nonpayable",
					"type": "constructor"
				},
				{
					"inputs": [],
					"name": "locked",
					"outputs": [
						{
							"internalType": "bool",
							"name": "",
							"type": "bool"
						}
					],
					"stateMutability": "view",
					"type": "function"
				},
				{
					"inputs": [
						{
							"internalType": "bytes32",
							"name": "_password",
							"type": "bytes32"
						}
					],
					"name": "unlock",
					"outputs": [],
					"stateMutability": "nonpayable",
					"type": "function"
				}
			],
			"devdoc": {
				"kind": "dev",
				"methods": {},
				"version": 1
			},
			"evm": {
				"assembly": "    /* \"Vault/Vault.sol\":60:346  contract Vault {\r... */\n  mstore(0x40, 0x80)\n    /* \"Vault/Vault.sol\":134:225  constructor(bytes32 _password) public {\r... */\n  callvalue\n  dup1\n  iszero\n  tag_1\n  jumpi\n  0x00\n  dup1\n  revert\ntag_1:\n  pop\n  mload(0x40)\n  sub(codesize, bytecodeSize)\n  dup1\n  bytecodeSize\n  dup4\n  codecopy\n  dup2\n  dup2\n  add\n  0x40\n  mstore\n  0x20\n  dup2\n  lt\n  iszero\n  tag_2\n  jumpi\n  0x00\n  dup1\n  revert\ntag_2:\n  dup2\n  add\n  swap1\n  dup1\n  dup1\n  mload\n  swap1\n  0x20\n  add\n  swap1\n  swap3\n  swap2\n  swap1\n  pop\n  pop\n  pop\n    /* \"Vault/Vault.sol\":188:192  true */\n  0x01\n    /* \"Vault/Vault.sol\":179:185  locked */\n  0x00\n  dup1\n    /* \"Vault/Vault.sol\":179:192  locked = true */\n  0x0100\n  exp\n  dup2\n  sload\n  dup2\n  0xff\n  mul\n  not\n  and\n  swap1\n  dup4\n  iszero\n  iszero\n  mul\n  or\n  swap1\n  sstore\n  pop\n    /* \"Vault/Vault.sol\":210:219  _password */\n  dup1\n    /* \"Vault/Vault.sol\":199:207  password */\n  0x01\n    /* \"Vault/Vault.sol\":199:219  password = _password */\n  dup2\n  swap1\n  sstore\n  pop\n    /* \"Vault/Vault.sol\":134:225  constructor(bytes32 _password) public {\r... */\n  pop\n    /* \"Vault/Vault.sol\":60:346  contract Vault {\r... */\n  dataSize(sub_0)\n  dup1\n  dataOffset(sub_0)\n  0x00\n  codecopy\n  0x00\n  return\nstop\n\nsub_0: assembly {\n        /* \"Vault/Vault.sol\":60:346  contract Vault {\r... */\n      mstore(0x40, 0x80)\n      callvalue\n      dup1\n      iszero\n      tag_1\n      jumpi\n      0x00\n      dup1\n      revert\n    tag_1:\n      pop\n      jumpi(tag_2, lt(calldatasize, 0x04))\n      shr(0xe0, calldataload(0x00))\n      dup1\n      0xcf309012\n      eq\n      tag_3\n      jumpi\n      dup1\n      0xec9b5b3a\n      eq\n      tag_4\n      jumpi\n    tag_2:\n      0x00\n      dup1\n      revert\n        /* \"Vault/Vault.sol\":80:98  bool public locked */\n    tag_3:\n      tag_5\n      tag_6\n      jump\t// in\n    tag_5:\n      mload(0x40)\n      dup1\n      dup3\n      iszero\n      iszero\n      dup2\n      mstore\n      0x20\n      add\n      swap2\n      pop\n      pop\n      mload(0x40)\n      dup1\n      swap2\n      sub\n      swap1\n      return\n        /* \"Vault/Vault.sol\":231:343  function unlock(bytes32 _password) public {\r... */\n    tag_4:\n      tag_7\n      0x04\n      dup1\n      calldatasize\n      sub\n      0x20\n      dup2\n      lt\n      iszero\n      tag_8\n      jumpi\n      0x00\n      dup1\n      revert\n    tag_8:\n      dup2\n      add\n      swap1\n      dup1\n      dup1\n      calldataload\n      swap1\n      0x20\n      add\n      swap1\n      swap3\n      swap2\n      swap1\n      pop\n      pop\n      pop\n      tag_9\n      jump\t// in\n    tag_7:\n      stop\n        /* \"Vault/Vault.sol\":80:98  bool public locked */\n    tag_6:\n      0x00\n      dup1\n      sload\n      swap1\n      0x0100\n      exp\n      swap1\n      div\n      0xff\n      and\n      dup2\n      jump\t// out\n        /* \"Vault/Vault.sol\":231:343  function unlock(bytes32 _password) public {\r... */\n    tag_9:\n        /* \"Vault/Vault.sol\":296:305  _password */\n      dup1\n        /* \"Vault/Vault.sol\":284:292  password */\n      sload(0x01)\n        /* \"Vault/Vault.sol\":284:305  password == _password */\n      eq\n        /* \"Vault/Vault.sol\":280:338  if (password == _password) {\r... */\n      iszero\n      tag_11\n      jumpi\n        /* \"Vault/Vault.sol\":325:330  false */\n      0x00\n        /* \"Vault/Vault.sol\":316:322  locked */\n      dup1\n      0x00\n        /* \"Vault/Vault.sol\":316:330  locked = false */\n      0x0100\n      exp\n      dup2\n      sload\n      dup2\n      0xff\n      mul\n      not\n      and\n      swap1\n      dup4\n      iszero\n      iszero\n      mul\n      or\n      swap1\n      sstore\n      pop\n        /* \"Vault/Vault.sol\":280:338  if (password == _password) {\r... */\n    tag_11:\n        /* \"Vault/Vault.sol\":231:343  function unlock(bytes32 _password) public {\r... */\n      pop\n      jump\t// out\n\n    auxdata: 0xa26469706673582212200c327c9a24c69682eb2246c58a7d488440f9397f86a24bf02a5a75244953f5df64736f6c634300060c0033\n}\n",
				"bytecode": {
					"linkReferences": {},
					"object": "608060405234801561001057600080fd5b506040516101623803806101628339818101604052602081101561003357600080fd5b810190808051906020019092919050505060016000806101000a81548160ff021916908315150217905550806001819055505060ee806100746000396000f3fe6080604052348015600f57600080fd5b506004361060325760003560e01c8063cf309012146037578063ec9b5b3a146055575b600080fd5b603d6080565b60405180821515815260200191505060405180910390f35b607e60048036036020811015606957600080fd5b81019080803590602001909291905050506091565b005b60008054906101000a900460ff1681565b80600154141560b55760008060006101000a81548160ff0219169083151502179055505b5056fea26469706673582212200c327c9a24c69682eb2246c58a7d488440f9397f86a24bf02a5a75244953f5df64736f6c634300060c0033",
					"opcodes": "PUSH1 0x80 PUSH1 0x40 MSTORE CALLVALUE DUP1 ISZERO PUSH2 0x10 JUMPI PUSH1 0x0 DUP1 REVERT JUMPDEST POP PUSH1 0x40 MLOAD PUSH2 0x162 CODESIZE SUB DUP1 PUSH2 0x162 DUP4 CODECOPY DUP2 DUP2 ADD PUSH1 0x40 MSTORE PUSH1 0x20 DUP2 LT ISZERO PUSH2 0x33 JUMPI PUSH1 0x0 DUP1 REVERT JUMPDEST DUP2 ADD SWAP1 DUP1 DUP1 MLOAD SWAP1 PUSH1 0x20 ADD SWAP1 SWAP3 SWAP2 SWAP1 POP POP POP PUSH1 0x1 PUSH1 0x0 DUP1 PUSH2 0x100 EXP DUP2 SLOAD DUP2 PUSH1 0xFF MUL NOT AND SWAP1 DUP4 ISZERO ISZERO MUL OR SWAP1 SSTORE POP DUP1 PUSH1 0x1 DUP2 SWAP1 SSTORE POP POP PUSH1 0xEE DUP1 PUSH2 0x74 PUSH1 0x0 CODECOPY PUSH1 0x0 RETURN INVALID PUSH1 0x80 PUSH1 0x40 MSTORE CALLVALUE DUP1 ISZERO PUSH1 0xF JUMPI PUSH1 0x0 DUP1 REVERT JUMPDEST POP PUSH1 0x4 CALLDATASIZE LT PUSH1 0x32 JUMPI PUSH1 0x0 CALLDATALOAD PUSH1 0xE0 SHR DUP1 PUSH4 0xCF309012 EQ PUSH1 0x37 JUMPI DUP1 PUSH4 0xEC9B5B3A EQ PUSH1 0x55 JUMPI JUMPDEST PUSH1 0x0 DUP1 REVERT JUMPDEST PUSH1 0x3D PUSH1 0x80 JUMP JUMPDEST PUSH1 0x40 MLOAD DUP1 DUP3 ISZERO ISZERO DUP2 MSTORE PUSH1 0x20 ADD SWAP2 POP POP PUSH1 0x40 MLOAD DUP1 SWAP2 SUB SWAP1 RETURN JUMPDEST PUSH1 0x7E PUSH1 0x4 DUP1 CALLDATASIZE SUB PUSH1 0x20 DUP2 LT ISZERO PUSH1 0x69 JUMPI PUSH1 0x0 DUP1 REVERT JUMPDEST DUP2 ADD SWAP1 DUP1 DUP1 CALLDATALOAD SWAP1 PUSH1 0x20 ADD SWAP1 SWAP3 SWAP2 SWAP1 POP POP POP PUSH1 0x91 JUMP JUMPDEST STOP JUMPDEST PUSH1 0x0 DUP1 SLOAD SWAP1 PUSH2 0x100 EXP SWAP1 DIV PUSH1 0xFF AND DUP2 JUMP JUMPDEST DUP1 PUSH1 0x1 SLOAD EQ ISZERO PUSH1 0xB5 JUMPI PUSH1 0x0 DUP1 PUSH1 0x0 PUSH2 0x100 EXP DUP2 SLOAD DUP2 PUSH1 0xFF MUL NOT AND SWAP1 DUP4 ISZERO ISZERO MUL OR SWAP1 SSTORE POP JUMPDEST POP JUMP INVALID LOG2 PUSH5 0x6970667358 0x22 SLT KECCAK256 0xC ORIGIN PUSH29 0x9A24C69682EB2246C58A7D488440F9397F86A24BF02A5A75244953F5DF PUSH5 0x736F6C6343 STOP MOD 0xC STOP CALLER "
				},
				"gasEstimates": {
					"creation": {
						"codeDepositCost": "47600",
						"executionCost": "infinite",
						"totalCost": "infinite"
					},
					"external": {
						"locked()": "1022",
						"unlock(bytes32)": "21921"
					}
				},
				"methodIdentifiers": {
					"locked()": "cf309012",
					"unlock(bytes32)": "ec9b5b3a"
				}
			},
			"userdoc": {
				"kind": "user",
				"methods": {},
				"version": 1
			}
		}
	}
}